{
  "contractName": "Campaign",
  "abi": [
    {
      "inputs": [
        {
          "internalType": "uint256",
          "name": "tokenPrice",
          "type": "uint256"
        },
        {
          "internalType": "address",
          "name": "m",
          "type": "address"
        },
        {
          "internalType": "string",
          "name": "title",
          "type": "string"
        },
        {
          "internalType": "string",
          "name": "imageURL",
          "type": "string"
        },
        {
          "internalType": "string",
          "name": "description",
          "type": "string"
        },
        {
          "internalType": "uint256",
          "name": "tokenMaxSupply",
          "type": "uint256"
        },
        {
          "internalType": "string",
          "name": "tokenName",
          "type": "string"
        },
        {
          "internalType": "string",
          "name": "tokenSymbol",
          "type": "string"
        },
        {
          "internalType": "uint256",
          "name": "t",
          "type": "uint256"
        }
      ],
      "stateMutability": "nonpayable",
      "type": "constructor"
    },
    {
      "inputs": [],
      "name": "details",
      "outputs": [
        {
          "internalType": "uint256",
          "name": "tokenPrice",
          "type": "uint256"
        },
        {
          "internalType": "uint256",
          "name": "tokenMaxSupply",
          "type": "uint256"
        },
        {
          "internalType": "address",
          "name": "manager",
          "type": "address"
        }
      ],
      "stateMutability": "view",
      "type": "function"
    },
    {
      "inputs": [],
      "name": "funding",
      "outputs": [
        {
          "internalType": "uint256",
          "name": "tokensAvailibility",
          "type": "uint256"
        },
        {
          "internalType": "uint256",
          "name": "timeout",
          "type": "uint256"
        },
        {
          "internalType": "bool",
          "name": "isCampaignFunded",
          "type": "bool"
        }
      ],
      "stateMutability": "view",
      "type": "function"
    },
    {
      "inputs": [],
      "name": "governanceAddress",
      "outputs": [
        {
          "internalType": "address",
          "name": "",
          "type": "address"
        }
      ],
      "stateMutability": "view",
      "type": "function"
    },
    {
      "inputs": [],
      "name": "tokenAddress",
      "outputs": [
        {
          "internalType": "address",
          "name": "",
          "type": "address"
        }
      ],
      "stateMutability": "view",
      "type": "function"
    },
    {
      "inputs": [],
      "name": "contribute",
      "outputs": [],
      "stateMutability": "payable",
      "type": "function"
    },
    {
      "inputs": [],
      "name": "allocationBalanceOf",
      "outputs": [
        {
          "internalType": "uint256",
          "name": "",
          "type": "uint256"
        }
      ],
      "stateMutability": "view",
      "type": "function"
    },
    {
      "inputs": [],
      "name": "tokensBalanceOf",
      "outputs": [
        {
          "internalType": "uint256",
          "name": "",
          "type": "uint256"
        }
      ],
      "stateMutability": "view",
      "type": "function"
    },
    {
      "inputs": [],
      "name": "finalizeCrowdfunding",
      "outputs": [],
      "stateMutability": "nonpayable",
      "type": "function"
    },
    {
      "inputs": [],
      "name": "redeem",
      "outputs": [],
      "stateMutability": "nonpayable",
      "type": "function"
    },
    {
      "inputs": [
        {
          "internalType": "string",
          "name": "t",
          "type": "string"
        },
        {
          "internalType": "string",
          "name": "desc",
          "type": "string"
        },
        {
          "internalType": "uint256",
          "name": "value",
          "type": "uint256"
        },
        {
          "internalType": "address payable",
          "name": "recipient",
          "type": "address"
        },
        {
          "internalType": "uint256",
          "name": "time",
          "type": "uint256"
        }
      ],
      "name": "createRequest",
      "outputs": [],
      "stateMutability": "nonpayable",
      "type": "function"
    },
    {
      "inputs": [
        {
          "internalType": "uint256",
          "name": "requestId",
          "type": "uint256"
        }
      ],
      "name": "approveRequest",
      "outputs": [],
      "stateMutability": "nonpayable",
      "type": "function"
    },
    {
      "inputs": [
        {
          "internalType": "uint256",
          "name": "id",
          "type": "uint256"
        }
      ],
      "name": "finalizeRequest",
      "outputs": [],
      "stateMutability": "nonpayable",
      "type": "function"
    },
    {
      "inputs": [],
      "name": "getCampaignSummary",
      "outputs": [
        {
          "internalType": "uint256",
          "name": "",
          "type": "uint256"
        },
        {
          "internalType": "uint256",
          "name": "",
          "type": "uint256"
        },
        {
          "internalType": "address",
          "name": "",
          "type": "address"
        },
        {
          "internalType": "string",
          "name": "",
          "type": "string"
        },
        {
          "internalType": "string",
          "name": "",
          "type": "string"
        },
        {
          "internalType": "string",
          "name": "",
          "type": "string"
        },
        {
          "internalType": "bool",
          "name": "",
          "type": "bool"
        },
        {
          "internalType": "uint256",
          "name": "",
          "type": "uint256"
        }
      ],
      "stateMutability": "view",
      "type": "function"
    },
    {
      "inputs": [],
      "name": "getFundingSummary",
      "outputs": [
        {
          "internalType": "uint256",
          "name": "",
          "type": "uint256"
        },
        {
          "internalType": "uint256",
          "name": "",
          "type": "uint256"
        },
        {
          "internalType": "address[]",
          "name": "",
          "type": "address[]"
        },
        {
          "internalType": "string",
          "name": "",
          "type": "string"
        },
        {
          "internalType": "string",
          "name": "",
          "type": "string"
        }
      ],
      "stateMutability": "view",
      "type": "function"
    }
  ],
  "bytecode": "0x60806040523480156200001157600080fd5b5060405162003c5938038062003c5983398181016040526101208110156200003857600080fd5b815160208301516040808501805191519395929483019291846401000000008211156200006457600080fd5b9083019060208201858111156200007a57600080fd5b82516401000000008111828201881017156200009557600080fd5b82525081516020918201929091019080838360005b83811015620000c4578181015183820152602001620000aa565b50505050905090810190601f168015620000f25780820380516001836020036101000a031916815260200191505b50604052602001805160405193929190846401000000008211156200011657600080fd5b9083019060208201858111156200012c57600080fd5b82516401000000008111828201881017156200014757600080fd5b82525081516020918201929091019080838360005b83811015620001765781810151838201526020016200015c565b50505050905090810190601f168015620001a45780820380516001836020036101000a031916815260200191505b5060405260200180516040519392919084640100000000821115620001c857600080fd5b908301906020820185811115620001de57600080fd5b8251640100000000811182820188101715620001f957600080fd5b82525081516020918201929091019080838360005b83811015620002285781810151838201526020016200020e565b50505050905090810190601f168015620002565780820380516001836020036101000a031916815260200191505b506040818152602083015192018051929491939192846401000000008211156200027f57600080fd5b9083019060208201858111156200029557600080fd5b8251640100000000811182820188101715620002b057600080fd5b82525081516020918201929091019080838360005b83811015620002df578181015183820152602001620002c5565b50505050905090810190601f1680156200030d5780820380516001836020036101000a031916815260200191505b50604052602001805160405193929190846401000000008211156200033157600080fd5b9083019060208201858111156200034757600080fd5b82516401000000008111828201881017156200036257600080fd5b82525081516020918201929091019080838360005b838110156200039157818101518382015260200162000377565b50505050905090810190601f168015620003bf5780820380516001836020036101000a031916815260200191505b50604081815260209283015161012083018252608083018c815260a084018b905260c084018c905260e0840189905261010084018890528084529383018e90529082018890526001600160a01b038c166060830152935091506000906200042a9082906005620005fb565b50602082810151600583015560408301516006830155606090920151600790910180546001600160a01b0319166001600160a01b03909216919091179055620004809042908390620004d2811b6200156617901c565b600b55600c805460ff19169055620004bf620004aa85600462000534602090811b620015c817901c565b856200059d60201b6200162e1790919060201c565b600a555062000756975050505050505050565b6000828201838110156200052d576040805162461bcd60e51b815260206004820152601b60248201527f536166654d6174683a206164646974696f6e206f766572666c6f770000000000604482015290519081900360640190fd5b9392505050565b60008082116200058b576040805162461bcd60e51b815260206004820152601a60248201527f536166654d6174683a206469766973696f6e206279207a65726f000000000000604482015290519081900360640190fd5b8183816200059557fe5b049392505050565b600082821115620005f5576040805162461bcd60e51b815260206004820152601e60248201527f536166654d6174683a207375627472616374696f6e206f766572666c6f770000604482015290519081900360640190fd5b50900390565b826005810192821562000640579160200282015b828111156200064057825180516200062f91849160209091019062000652565b50916020019190600101906200060f565b506200064e929150620006d3565b5090565b828054600181600116156101000203166002900490600052602060002090601f016020900481019282601f106200069557805160ff1916838001178555620006c5565b82800160010185558215620006c5579182015b82811115620006c5578251825591602001919060010190620006a8565b506200064e929150620006f4565b808211156200064e576000620006ea82826200070b565b50600101620006d3565b5b808211156200064e5760008155600101620006f5565b50805460018160011615610100020316600290046000825580601f1062000733575062000753565b601f016020900490600052602060002090810190620007539190620006f4565b50565b6134f380620007666000396000f3fe608060405260043610620000bc5760003560e01c80630344100614620000c15780631cfaa40314620000f15780631ed692c0146200011b578063565974d31462000133578063795053d314620001725780639256e2ce14620001a6578063988cc82414620002fa5780639d76ea581462000312578063a00c96d7146200032a578063be040fb014620004bd578063cb4c86b714620004d5578063cdda3af1146200050d578063d7bb99ba146200065e578063d7d1bbdb1462000668575b600080fd5b348015620000ce57600080fd5b50620000ef60048036036020811015620000e757600080fd5b503562000696565b005b348015620000fe57600080fd5b50620001096200086a565b60408051918252519081900360200190f35b3480156200012857600080fd5b50620000ef62000905565b3480156200014057600080fd5b506200014b62000b84565b6040805193845260208401929092526001600160a01b031682820152519081900360600190f35b3480156200017f57600080fd5b506200018a62000b99565b604080516001600160a01b039092168252519081900360200190f35b348015620001b357600080fd5b50620000ef600480360360a0811015620001cc57600080fd5b810190602081018135600160201b811115620001e757600080fd5b820183602082011115620001fa57600080fd5b803590602001918460018302840111600160201b831117156200021c57600080fd5b91908080601f0160208091040260200160405190810160405280939291908181526020018383808284376000920191909152509295949360208101935035915050600160201b8111156200026f57600080fd5b8201836020820111156200028257600080fd5b803590602001918460018302840111600160201b83111715620002a457600080fd5b91908080601f0160208091040260200160405190810160405280939291908181526020018383808284376000920191909152509295505082359350505060208101356001600160a01b0316906040013562000ba8565b3480156200030757600080fd5b506200010962000db9565b3480156200031f57600080fd5b506200018a62000dcc565b3480156200033757600080fd5b506200034262000ddb565b60405180898152602001888152602001876001600160a01b031681526020018060200180602001806020018615158152602001858152602001848103845289818151815260200191508051906020019080838360005b83811015620003b257818101518382015260200162000398565b50505050905090810190601f168015620003e05780820380516001836020036101000a031916815260200191505b5084810383528851815288516020918201918a019080838360005b8381101562000415578181015183820152602001620003fb565b50505050905090810190601f168015620004435780820380516001836020036101000a031916815260200191505b50848103825287518152875160209182019189019080838360005b83811015620004785781810151838201526020016200045e565b50505050905090810190601f168015620004a65780820380516001836020036101000a031916815260200191505b509b50505050505050505050505060405180910390f35b348015620004ca57600080fd5b50620000ef62000fea565b348015620004e257600080fd5b50620004ed6200110f565b604080519384526020840192909252151582820152519081900360600190f35b3480156200051a57600080fd5b50620005256200111e565b60405180868152602001858152602001806020018060200180602001848103845287818151815260200191508051906020019060200280838360005b838110156200057b57818101518382015260200162000561565b50505050905001848103835286818151815260200191508051906020019080838360005b83811015620005b95781810151838201526020016200059f565b50505050905090810190601f168015620005e75780820380516001836020036101000a031916815260200191505b50848103825285518152855160209182019187019080838360005b838110156200061c57818101518382015260200162000602565b50505050905090810190601f1680156200064a5780820380516001836020036101000a031916815260200191505b509850505050505050505060405180910390f35b620000ef620012cf565b3480156200067557600080fd5b50620000ef600480360360208110156200068e57600080fd5b503562001412565b600b544211620006a257fe5b600c5460ff16620006af57fe5b601054600e54604080516318160ddd60e01b815290516001600160a01b039384169363c8b9dd679386939116916318160ddd91600480820192602092909190829003018186803b1580156200070357600080fd5b505afa15801562000718573d6000803e3d6000fd5b505050506040513d60208110156200072f57600080fd5b5051604080516001600160e01b031960e086901b1681526004810193909352602483019190915251604480830192600092919082900301818387803b1580156200077857600080fd5b505af11580156200078d573d6000803e3d6000fd5b50506010546040805163d8a4676f60e01b81526004810186905290516000945084935083926001600160a01b03169163d8a4676f916024808301926060929190829003018186803b158015620007e257600080fd5b505afa158015620007f7573d6000803e3d6000fd5b505050506040513d60608110156200080e57600080fd5b50805160208201516040909201519094509092509050821562000864576040516001600160a01b0383169082156108fc029083906000818181858888f1935050505015801562000862573d6000803e3d6000fd5b505b50505050565b600b5460009042116200087957fe5b600c5460ff166200088657fe5b600e54604080516370a0823160e01b815233600482015290516001600160a01b03909216916370a0823191602480820192602092909190829003018186803b158015620008d257600080fd5b505afa158015620008e7573d6000803e3d6000fd5b505050506040513d6020811015620008fe57600080fd5b5051905090565b6007546001600160a01b031633146200091a57fe5b600b5442116200092657fe5b600a54156200093457600080fd5b6006546040516003906004906200094b90620016ea565b838152606060208201818152845460026000196101006001841615020190911604918301829052906040830190608084019086908015620009d05780601f10620009a457610100808354040283529160200191620009d0565b820191906000526020600020905b815481529060010190602001808311620009b257829003601f168201915b505083810382528454600260001961010060018416150201909116048082526020909101908590801562000a485780601f1062000a1c5761010080835404028352916020019162000a48565b820191906000526020600020905b81548152906001019060200180831162000a2a57829003601f168201915b505095505050505050604051809103906000f08015801562000a6e573d6000803e3d6000fd5b50600e80546001600160a01b03199081166001600160a01b039384161791829055600d805492909316911617905560405162000aaa90620016f8565b604051809103906000f08015801562000ac7573d6000803e3d6000fd5b50601080546001600160a01b039283166001600160a01b03199182161791829055600f8054909116918316919091179055600e546006549116906329322e059062000b14906004620015c8565b336040518363ffffffff1660e01b815260040180838152602001826001600160a01b0316815260200192505050600060405180830381600087803b15801562000b5c57600080fd5b505af115801562000b71573d6000803e3d6000fd5b5050600c805460ff191660011790555050565b6005546006546007546001600160a01b031683565b600f546001600160a01b031681565b600b54421162000bb457fe5b600c5460ff1662000bc157fe5b60065462000bd190600a620015c8565b600e54604080516370a0823160e01b815233600482015290516001600160a01b03909216916370a0823191602480820192602092909190829003018186803b15801562000c1d57600080fd5b505afa15801562000c32573d6000803e3d6000fd5b505050506040513d602081101562000c4957600080fd5b50511162000c5657600080fd5b601054604051630e22d96360e11b81523360048201818152606483018790526001600160a01b03868116608485015260a4840186905260c0602485019081528a5160c48601528a519190951694631c45b2c6948b938b938b938b938b9392604482019160e4019060208a019080838360005b8381101562000ce257818101518382015260200162000cc8565b50505050905090810190601f16801562000d105780820380516001836020036101000a031916815260200191505b50838103825287518152875160209182019189019080838360005b8381101562000d4557818101518382015260200162000d2b565b50505050905090810190601f16801562000d735780820380516001836020036101000a031916815260200191505b5098505050505050505050600060405180830381600087803b15801562000d9957600080fd5b505af115801562000dae573d6000803e3d6000fd5b505050505050505050565b3360009081526009602052604090205490565b600d546001600160a01b031681565b60055460075460009182918291606091829182918591829147906001600160a01b0316838001600060010160006002600c54600654855460408051602060026101006001861615026000190190941693909304601f8101849004840282018401909252818152949095019460ff909316939192879183018282801562000ea55780601f1062000e795761010080835404028352916020019162000ea5565b820191906000526020600020905b81548152906001019060200180831162000e8757829003601f168201915b5050875460408051602060026001851615610100026000190190941693909304601f8101849004840282018401909252818152959a508994509250840190508282801562000f375780601f1062000f0b5761010080835404028352916020019162000f37565b820191906000526020600020905b81548152906001019060200180831162000f1957829003601f168201915b5050865460408051602060026001851615610100026000190190941693909304601f81018490048402820184019092528181529599508894509250840190508282801562000fc95780601f1062000f9d5761010080835404028352916020019162000fc9565b820191906000526020600020905b81548152906001019060200180831162000fab57829003601f168201915b50505050509250975097509750975097509750975097509091929394959697565b600b54421162000ff657fe5b600c5460ff1615620010bd5733600090815260096020526040902054806200101d57600080fd5b600e546005546001600160a01b03909116906329322e059062001055906200104e85670de0b6b3a76400006200168c565b90620015c8565b336040518363ffffffff1660e01b815260040180838152602001826001600160a01b0316815260200192505050600060405180830381600087803b1580156200109d57600080fd5b505af1158015620010b2573d6000803e3d6000fd5b5050505050620010fd565b3360008181526009602052604080822054905190929183156108fc02918491818181858888f19350505050158015620010fa573d6000803e3d6000fd5b50505b33600090815260096020526040812055565b600a54600b54600c5460ff1683565b600a54600b54600091829160609182918291906008866003016000600401828054806020026020016040519081016040528092919081815260200182805480156200119357602002820191906000526020600020905b81546001600160a01b0316815260019091019060200180831162001174575b5050855460408051602060026001851615610100026000190190941693909304601f810184900484028201840190925281815295985087945092508401905082828015620012255780601f10620011f95761010080835404028352916020019162001225565b820191906000526020600020905b8154815290600101906020018083116200120757829003601f168201915b5050845460408051602060026001851615610100026000190190941693909304601f810184900484028201840190925281815295975086945092508401905082828015620012b75780601f106200128b57610100808354040283529160200191620012b7565b820191906000526020600020905b8154815290600101906020018083116200129957829003601f168201915b50505050509050945094509450945094509091929394565b600b54421115620012dc57fe5b60003411620012ea57600080fd5b60055462001306906200104e34670de0b6b3a76400006200168c565b600a5410156200135c576040805162461bcd60e51b815260206004820152601c60248201527b4e6f7420656e6f75676820746f6b656e7320646973706f6e69626c6560201b604482015290519081900360640190fd5b3360009081526009602052604090205480620013b557600880546001810182556000919091527ff3f7a9fe364faab93b216da50a3214154f22a0a2b415b23a84c8169e8b636ee30180546001600160a01b031916331790555b33600090815260096020526040902054620013d1903462001566565b336000908152600960205260409020556005546200140c9062001402906200104e34670de0b6b3a76400006200168c565b600a54906200162e565b600a5550565b600b5442116200141e57fe5b600c5460ff166200142b57fe5b600e54604080516370a0823160e01b815233600482015290516000926001600160a01b0316916370a08231916024808301926020929190829003018186803b1580156200147757600080fd5b505afa1580156200148c573d6000803e3d6000fd5b505050506040513d6020811015620014a357600080fd5b5051905080620014ee576040805162461bcd60e51b8152602060048201526011602482015270596f7520686176656e7420746f6b656e7360781b604482015290519081900360640190fd5b601054604080516366c0da1d60e11b8152600481018590523360248201526044810184905290516001600160a01b039092169163cd81b43a9160648082019260009290919082900301818387803b1580156200154957600080fd5b505af11580156200155e573d6000803e3d6000fd5b505050505050565b600082820183811015620015bf576040805162461bcd60e51b815260206004820152601b60248201527a536166654d6174683a206164646974696f6e206f766572666c6f7760281b604482015290519081900360640190fd5b90505b92915050565b60008082116200161c576040805162461bcd60e51b815260206004820152601a602482015279536166654d6174683a206469766973696f6e206279207a65726f60301b604482015290519081900360640190fd5b8183816200162657fe5b049392505050565b60008282111562001686576040805162461bcd60e51b815260206004820152601e60248201527f536166654d6174683a207375627472616374696f6e206f766572666c6f770000604482015290519081900360640190fd5b50900390565b6000826200169d57506000620015c2565b82820282848281620016ab57fe5b0414620015bf5760405162461bcd60e51b81526004018080602001828103825260218152602001806200349d6021913960400191505060405180910390fd5b61104d806200170783390190565b610d4980620027548339019056fe60806040523480156200001157600080fd5b506040516200104d3803806200104d833981810160405260608110156200003757600080fd5b8151602083018051604051929492938301929190846401000000008211156200005f57600080fd5b9083019060208201858111156200007557600080fd5b82516401000000008111828201881017156200009057600080fd5b82525081516020918201929091019080838360005b83811015620000bf578181015183820152602001620000a5565b50505050905090810190601f168015620000ed5780820380516001836020036101000a031916815260200191505b50604052602001805160405193929190846401000000008211156200011157600080fd5b9083019060208201858111156200012757600080fd5b82516401000000008111828201881017156200014257600080fd5b82525081516020918201929091019080838360005b838110156200017157818101518382015260200162000157565b50505050905090810190601f1680156200019f5780820380516001836020036101000a031916815260200191505b506040525050508282828160039080519060200190620001c19291906200025a565b508051620001d79060049060208401906200025a565b50506005805460ff1916601217905550806200023a576040805162461bcd60e51b815260206004820152601560248201527f45524332304361707065643a2063617020697320300000000000000000000000604482015290519081900360640190fd5b6006555050600780546001600160a01b03191633179055600855620002f6565b828054600181600116156101000203166002900490600052602060002090601f016020900481019282601f106200029d57805160ff1916838001178555620002cd565b82800160010185558215620002cd579182015b82811115620002cd578251825591602001919060010190620002b0565b50620002db929150620002df565b5090565b5b80821115620002db5760008155600101620002e0565b610d4780620003066000396000f3fe608060405234801561001057600080fd5b50600436106100d05760003560e01c806306fdde03146100d5578063095ea7b31461015257806311765b271461019257806318160ddd146101b657806323b872dd146101d057806329322e0514610206578063313ce56714610234578063355274ea14610252578063395093511461025a5780634051ddac1461028657806370a082311461037a57806382ae7286146103a057806395d89b41146103a8578063a457c2d7146103b0578063a9059cbb146103dc578063dd62ed3e14610408575b600080fd5b6100dd610436565b6040805160208082528351818301528351919283929083019185019080838360005b838110156101175781810151838201526020016100ff565b50505050905090810190601f1680156101445780820380516001836020036101000a031916815260200191505b509250505060405180910390f35b61017e6004803603604081101561016857600080fd5b506001600160a01b0381351690602001356104cc565b604080519115158252519081900360200190f35b61019a6104e9565b604080516001600160a01b039092168252519081900360200190f35b6101be6104f8565b60408051918252519081900360200190f35b61017e600480360360608110156101e657600080fd5b506001600160a01b038135811691602081013590911690604001356104fe565b6102326004803603604081101561021c57600080fd5b50803590602001356001600160a01b0316610585565b005b61023c6105a7565b6040805160ff9092168252519081900360200190f35b6101be6105b0565b61017e6004803603604081101561027057600080fd5b506001600160a01b0381351690602001356105b6565b61028e610604565b604051808581526020018481526020018060200180602001838103835285818151815260200191508051906020019080838360005b838110156102db5781810151838201526020016102c3565b50505050905090810190601f1680156103085780820380516001836020036101000a031916815260200191505b50838103825284518152845160209182019186019080838360005b8381101561033b578181015183820152602001610323565b50505050905090810190601f1680156103685780820380516001836020036101000a031916815260200191505b50965050505050505060405180910390f35b6101be6004803603602081101561039057600080fd5b50356001600160a01b0316610633565b6101be61064e565b6100dd610654565b61017e600480360360408110156103c657600080fd5b506001600160a01b0381351690602001356106b5565b61017e600480360360408110156103f257600080fd5b506001600160a01b03813516906020013561071d565b6101be6004803603604081101561041e57600080fd5b506001600160a01b0381358116916020013516610731565b60038054604080516020601f60026000196101006001881615020190951694909404938401819004810282018101909252828152606093909290918301828280156104c25780601f10610497576101008083540402835291602001916104c2565b820191906000526020600020905b8154815290600101906020018083116104a557829003601f168201915b5050505050905090565b60006104e06104d961075c565b8484610760565b50600192915050565b6007546001600160a01b031681565b60025490565b600061050b84848461084c565b61057b8461051761075c565b61057685604051806060016040528060288152602001610c5c602891396001600160a01b038a1660009081526001602052604081209061055561075c565b6001600160a01b031681526020810191909152604001600020549190610995565b610760565b5060019392505050565b6007546001600160a01b0316331461059957fe5b6105a38183610a2c565b5050565b60055460ff1690565b60065490565b60006104e06105c361075c565b8461057685600160006105d461075c565b6001600160a01b03908116825260208083019390935260409182016000908120918c168152925290205490610b0a565b6000806060806106126104f8565b60085461061d610436565b610625610654565b935093509350935090919293565b6001600160a01b031660009081526020819052604090205490565b60085481565b60048054604080516020601f60026000196101006001881615020190951694909404938401819004810282018101909252828152606093909290918301828280156104c25780601f10610497576101008083540402835291602001916104c2565b60006104e06106c261075c565b8461057685604051806060016040528060258152602001610ced60259139600160006106ec61075c565b6001600160a01b03908116825260208083019390935260409182016000908120918d16815292529020549190610995565b60006104e061072a61075c565b848461084c565b6001600160a01b03918216600090815260016020908152604080832093909416825291909152205490565b3390565b6001600160a01b0383166107a55760405162461bcd60e51b8152600401808060200182810382526024815260200180610cc96024913960400191505060405180910390fd5b6001600160a01b0382166107ea5760405162461bcd60e51b8152600401808060200182810382526022815260200180610c146022913960400191505060405180910390fd5b6001600160a01b03808416600081815260016020908152604080832094871680845294825291829020859055815185815291517f8c5be1e5ebec7d5bd14f71427d1e84f3dd0314c0f7b2291e5b200ac8c7c3b9259281900390910190a3505050565b6001600160a01b0383166108915760405162461bcd60e51b8152600401808060200182810382526025815260200180610ca46025913960400191505060405180910390fd5b6001600160a01b0382166108d65760405162461bcd60e51b8152600401808060200182810382526023815260200180610bf16023913960400191505060405180910390fd5b6108e1838383610b69565b61091e81604051806060016040528060268152602001610c36602691396001600160a01b0386166000908152602081905260409020549190610995565b6001600160a01b03808516600090815260208190526040808220939093559084168152205461094d9082610b0a565b6001600160a01b03808416600081815260208181526040918290209490945580518581529051919392871692600080516020610c8483398151915292918290030190a3505050565b60008184841115610a245760405162461bcd60e51b81526004018080602001828103825283818151815260200191508051906020019080838360005b838110156109e95781810151838201526020016109d1565b50505050905090810190601f168015610a165780820380516001836020036101000a031916815260200191505b509250505060405180910390fd5b505050900390565b6001600160a01b038216610a87576040805162461bcd60e51b815260206004820152601f60248201527f45524332303a206d696e7420746f20746865207a65726f206164647265737300604482015290519081900360640190fd5b610a9360008383610b69565b600254610aa09082610b0a565b6002556001600160a01b038216600090815260208190526040902054610ac69082610b0a565b6001600160a01b038316600081815260208181526040808320949094558351858152935192939192600080516020610c848339815191529281900390910190a35050565b600082820183811015610b62576040805162461bcd60e51b815260206004820152601b60248201527a536166654d6174683a206164646974696f6e206f766572666c6f7760281b604482015290519081900360640190fd5b9392505050565b610b74838383610beb565b6001600160a01b038316610beb57610b8a6105b0565b610b9c82610b966104f8565b90610b0a565b1115610beb576040805162461bcd60e51b8152602060048201526019602482015278115490cc8c10d85c1c19590e8818d85c08195e18d959591959603a1b604482015290519081900360640190fd5b50505056fe45524332303a207472616e7366657220746f20746865207a65726f206164647265737345524332303a20617070726f766520746f20746865207a65726f206164647265737345524332303a207472616e7366657220616d6f756e7420657863656564732062616c616e636545524332303a207472616e7366657220616d6f756e74206578636565647320616c6c6f77616e6365ddf252ad1be2c89b69c2b068fc378daa952ba7f163c4a11628f55a4df523b3ef45524332303a207472616e736665722066726f6d20746865207a65726f206164647265737345524332303a20617070726f76652066726f6d20746865207a65726f206164647265737345524332303a2064656372656173656420616c6c6f77616e63652062656c6f77207a65726fa26469706673582212209c6f3c466edf91866acd6ef71b336fb8ada8ee170f273c988b9ba25ff6bde8af64736f6c634300060c0033608060405234801561001057600080fd5b50600280546001600160a01b031916331790556000600155610d12806100376000396000f3fe608060405234801561001057600080fd5b50600436106100785760003560e01c80631c45b2c61461007d5780633410452a146101cc578063811e539c146101e657806381d12c581461020a578063c8b9dd6714610256578063cd81b43a14610279578063d8a4676f146102ab578063fbfa4b7f146102f0575b600080fd5b6101ca600480360360c081101561009357600080fd5b6001600160a01b038235169190810190604081016020820135600160201b8111156100bd57600080fd5b8201836020820111156100cf57600080fd5b803590602001918460018302840111600160201b831117156100f057600080fd5b91908080601f0160208091040260200160405190810160405280939291908181526020018383808284376000920191909152509295949360208101935035915050600160201b81111561014257600080fd5b82018360208201111561015457600080fd5b803590602001918460018302840111600160201b8311171561017557600080fd5b91908080601f0160208091040260200160405190810160405280939291908181526020018383808284376000920191909152509295505082359350505060208101356001600160a01b031690604001356102f8565b005b6101d4610499565b60408051918252519081900360200190f35b6101ee61049f565b604080516001600160a01b039092168252519081900360200190f35b6102276004803603602081101561022057600080fd5b50356104ae565b60405180836001600160a01b03168152602001826001600160a01b031681526020019250505060405180910390f35b6101ca6004803603604081101561026c57600080fd5b50803590602001356104e4565b6101ca6004803603606081101561028f57600080fd5b508035906001600160a01b0360208201351690604001356105f8565b6102c8600480360360208110156102c157600080fd5b5035610789565b6040805193151584526001600160a01b03909216602084015282820152519081900360600190f35b6101d4610950565b6002546001600160a01b0316331461030c57fe5b610314610a19565b6040518060a00160405280886001600160a01b031681526020016040518060400160405280898152602001888152508152602001604051806060016040528087815260200160008152602001610373864261095690919063ffffffff16565b905281526001600160a01b0385811660208084019190915260408051808201825260008082528184018190529190940193909352825460018101845592805283517f290decd9548b62a8d60345a988386fc84ba6bc95484008f6362f93160ef3e563600990940293840180546001600160a01b031916919093161782558301519293508392909161042a917f290decd9548b62a8d60345a988386fc84ba6bc95484008f6362f93160ef3e564909101906002610a62565b5060408201516104409060038084019190610ab2565b5060608201516006820180546001600160a01b0319166001600160a01b03909216919091179055608082015161047c9060078301906002610aec565b50506001805461048d925090610956565b60015550505050505050565b60005490565b6002546001600160a01b031681565b600081815481106104bb57fe5b6000918252602090912060099091020180546006909101546001600160a01b0391821692501682565b6002546001600160a01b031633146104f857fe5b600080838154811061050657fe5b60009182526020909120600990910201600781015490915060ff161561056f576040805162461bcd60e51b815260206004820152601960248201527814995c5d595cdd08185b1d1c99591e4818dbdb5c1b195d1959603a1b604482015290519081900360640190fd5b600581015442116105be576040805162461bcd60e51b8152602060048201526014602482015273151a5b595bdd5d081a5cc81b9bdd08195b99195960621b604482015290519081900360640190fd5b6105c98260026109b5565b600482015460079092018054600161ff001990911692909311610100029190911760ff19169190911790555050565b6002546001600160a01b0316331461060c57fe5b600154831061061757fe5b600080848154811061062557fe5b60009182526020909120600990910201600781015490915060ff161561068e576040805162461bcd60e51b815260206004820152601960248201527814995c5d595cdd08185b1d1c99591e4818dbdb5c1b195d1959603a1b604482015290519081900360640190fd5b60058101544211156106da576040805162461bcd60e51b815260206004820152601060248201526f151a5b595bdd5d081a5cc8195b99195960821b604482015290519081900360640190fd5b6001600160a01b038316600090815260088201602052604090205460ff161561074a576040805162461bcd60e51b815260206004820152601d60248201527f596f752063616e20617070726f7665206f6e6c79206f6e652074696d65000000604482015290519081900360640190fd5b6001600160a01b03831660009081526008820160205260409020805460ff19166001179055600481015461077e9083610956565b600490910155505050565b6000806000610796610a19565b600085815481106107a357fe5b600091825260208083206040805160a081018252600990940290910180546001600160a01b0316845281518083019092529293918401916001840190600290835b8282101561088757838201805460408051602060026001851615610100026000190190941693909304601f810184900484028201840190925281815292918301828280156108735780601f1061084857610100808354040283529160200191610873565b820191906000526020600020905b81548152906001019060200180831161085657829003601f168201915b5050505050815260200190600101906107e4565b505050908252506040805160608101918290526020909201919060038481019182845b8154815260200190600101908083116108aa57505050918352505060068201546001600160a01b03166020820152604080518082018083529190920191906007840190600290826000855b825461010083900a900460ff1615158152602060019283018181049485019490930390920291018084116108f55750505092909352505050506080810151602001516060820151604090920151519097919650945092505050565b60015481565b6000828201838110156109ae576040805162461bcd60e51b815260206004820152601b60248201527a536166654d6174683a206164646974696f6e206f766572666c6f7760281b604482015290519081900360640190fd5b9392505050565b6000808211610a08576040805162461bcd60e51b815260206004820152601a602482015279536166654d6174683a206469766973696f6e206279207a65726f60301b604482015290519081900360640190fd5b818381610a1157fe5b049392505050565b6040518060a0016040528060006001600160a01b03168152602001610a3c610b7a565b8152602001610a49610ba1565b815260006020820152604001610a5d610bbf565b905290565b8260028101928215610aa2579160200282015b82811115610aa25782518051610a92918491602090910190610bdd565b5091602001919060010190610a75565b50610aae929150610c4a565b5090565b8260038101928215610ae0579160200282015b82811115610ae0578251825591602001919060010190610ac5565b50610aae929150610c67565b600183019183908215610b6e5791602002820160005b83821115610b3f57835183826101000a81548160ff0219169083151502179055509260200192600101602081600001049283019260010302610b02565b8015610b6c5782816101000a81549060ff0219169055600101602081600001049283019260010302610b3f565b505b50610aae929150610c7c565b60405180604001604052806002905b6060815260200190600190039081610b895790505090565b60405180606001604052806003906020820280368337509192915050565b60405180604001604052806002906020820280368337509192915050565b828054600181600116156101000203166002900490600052602060002090601f016020900481019282601f10610c1e57805160ff1916838001178555610ae0565b82800160010185558215610ae05791820182811115610ae0578251825591602001919060010190610ac5565b80821115610aae576000610c5e8282610c95565b50600101610c4a565b5b80821115610aae5760008155600101610c68565b5b80821115610aae57805460ff19168155600101610c7d565b50805460018160011615610100020316600290046000825580601f10610cbb5750610cd9565b601f016020900490600052602060002090810190610cd99190610c67565b5056fea26469706673582212202188abe62d02df279144f2bac4360d2dada514f7bc9ecc5c0db5998f1ed2e93664736f6c634300060c0033536166654d6174683a206d756c7469706c69636174696f6e206f766572666c6f77a26469706673582212203c9b313ea057f3db42745e955657631b40d3eb91c2c20361857220d5c3a990fc64736f6c634300060c0033",
  "immutableReferences": {},
  "source": "// SPDX-License-Identifier: GPLv3\r\npragma solidity ^0.6.0;\r\nimport {SToken} from \"./SToken.sol\";\r\nimport {SGovernance} from \"./SGovernance.sol\";\r\nimport '@openzeppelin/contracts/math/SafeMath.sol';\r\n\r\ncontract Campaign {\r\n\r\n    using SafeMath for uint;\r\n\r\n    struct Details {\r\n        string[5] info; //[title, description, imageURL, tokenName, tokenSymbol]\r\n        uint tokenPrice;\r\n        uint tokenMaxSupply;\r\n        address manager;\r\n    }\r\n\r\n    struct Funding {\r\n        address[] contributersAddresses;\r\n        mapping(address=>uint) contributersFunds;\r\n        uint tokensAvailibility;\r\n        uint timeout;\r\n        bool isCampaignFunded;\r\n    }\r\n\r\n    Details public details;\r\n    Funding public funding;\r\n\r\n    address public tokenAddress;\r\n    SToken sToken;\r\n\r\n    address public governanceAddress;\r\n    SGovernance sGovernance;\r\n\r\n    modifier restricted(){\r\n        assert(msg.sender == details.manager);\r\n        _;\r\n    }\r\n    modifier beforeTimeout(){\r\n        assert(block.timestamp <= funding.timeout);\r\n        _;\r\n    }\r\n    modifier afterTimeout(){\r\n        assert(block.timestamp > funding.timeout);\r\n        _;\r\n    }\r\n    modifier isCampaignFundedModifier(){\r\n        assert(funding.isCampaignFunded);\r\n        _;\r\n    }\r\n\r\n    constructor(uint tokenPrice, address m, string memory title, string memory imageURL, string memory description, uint tokenMaxSupply,string memory tokenName, string memory tokenSymbol, uint t) public {\r\n        details = Details({\r\n            info: [title, description, imageURL,tokenName,tokenSymbol],\r\n            tokenPrice:tokenPrice,\r\n            tokenMaxSupply:tokenMaxSupply,\r\n            manager:m\r\n        });\r\n\r\n        funding.timeout = block.timestamp.add(t);\r\n        funding.isCampaignFunded = false;\r\n        funding.tokensAvailibility = tokenMaxSupply.sub(tokenMaxSupply.div(4));\r\n    }\r\n\r\n    function contribute() public payable beforeTimeout {\r\n        require(msg.value > 0);\r\n        require(funding.tokensAvailibility >= msg.value.mul(10**18).div(details.tokenPrice), \"Not enough tokens disponible\");\r\n        uint depositedAmount = funding.contributersFunds[msg.sender];\r\n        if(depositedAmount == 0)\r\n            funding.contributersAddresses.push(msg.sender);\r\n        funding.contributersFunds[msg.sender] = funding.contributersFunds[msg.sender].add(msg.value);\r\n        funding.tokensAvailibility = funding.tokensAvailibility.sub(msg.value.mul(10**18).div(details.tokenPrice));\r\n    }\r\n\r\n    function allocationBalanceOf() public view returns(uint){\r\n        return funding.contributersFunds[msg.sender];\r\n    }\r\n    function tokensBalanceOf() public view afterTimeout isCampaignFundedModifier returns(uint){\r\n        return sToken.balanceOf(msg.sender);\r\n    }\r\n\r\n    function finalizeCrowdfunding() public restricted afterTimeout {\r\n        require(funding.tokensAvailibility == 0);\r\n        sToken = new SToken(details.tokenMaxSupply, details.info[3], details.info[4]);\r\n        tokenAddress = address(sToken);\r\n        sGovernance = new SGovernance();\r\n        governanceAddress = address(sGovernance);\r\n        sToken.sendTokens(details.tokenMaxSupply.div(4), msg.sender);\r\n        funding.isCampaignFunded = true;\r\n\r\n    }\r\n    function redeem() public afterTimeout {\r\n        if(funding.isCampaignFunded){\r\n            uint depositedAmount = funding.contributersFunds[msg.sender];\r\n            require(depositedAmount>0);\r\n            sToken.sendTokens(depositedAmount.mul(10**18).div(details.tokenPrice), msg.sender);\r\n        } else {\r\n            uint depositedAmount = funding.contributersFunds[msg.sender];\r\n            msg.sender.transfer(depositedAmount);\r\n        }\r\n        funding.contributersFunds[msg.sender] = 0;\r\n\r\n    }\r\n\r\n    function createRequest(string memory t, string memory desc, uint value, address payable recipient, uint time) public afterTimeout isCampaignFundedModifier {\r\n        require(sToken.balanceOf(msg.sender) > details.tokenMaxSupply.div(10));\r\n        sGovernance.createRequest(msg.sender, t, desc, value, recipient, time);\r\n    }\r\n\r\n    function approveRequest(uint requestId) public afterTimeout isCampaignFundedModifier {\r\n        uint balance = sToken.balanceOf(msg.sender);\r\n        require( balance > 0, \"You havent tokens\");\r\n\r\n        sGovernance.approveRequest(requestId, msg.sender, balance);\r\n    }\r\n\r\n    function finalizeRequest(uint id) public afterTimeout isCampaignFundedModifier{\r\n\r\n        sGovernance.finalizeRequest(id, sToken.totalSupply());\r\n        (bool isApproved, address payable recipient, uint value) = sGovernance.getRequestStatus(id);\r\n        if(isApproved)\r\n            recipient.transfer(value);\r\n    }\r\n\r\n    function getCampaignSummary() public view returns(uint, uint, address, string memory, string memory, string memory, bool, uint){\r\n        return(\r\n            details.tokenPrice,\r\n            address(this).balance,\r\n            details.manager,\r\n            details.info[0],\r\n            details.info[1],\r\n            details.info[2],\r\n            funding.isCampaignFunded,\r\n            details.tokenMaxSupply\r\n        );\r\n    }\r\n\r\n    function getFundingSummary() public view returns(uint, uint, address[] memory, string memory, string memory){\r\n        return (\r\n            funding.tokensAvailibility, \r\n            funding.timeout, \r\n            funding.contributersAddresses,\r\n            details.info[3],\r\n            details.info[4]\r\n        );\r\n    }\r\n}",
  "sourcePath": "/home/christianvari/github/EthStart-contracts/contracts/Campaign.sol",
  "compiler": {
    "name": "solc",
    "version": "0.6.12+commit.27d51765.Emscripten.clang"
  },
  "schemaVersion": "3.4.3",
  "updatedAt": "2021-09-26T08:47:56.576Z",
  "devdoc": {
    "kind": "dev",
    "methods": {},
    "version": 1
  },
  "userdoc": {
    "kind": "user",
    "methods": {},
    "version": 1
  }
}