{
  "contractName": "CampaignFactory",
  "abi": [
    {
      "inputs": [
        {
          "internalType": "uint256",
          "name": "",
          "type": "uint256"
        }
      ],
      "name": "fundedCampaigns",
      "outputs": [
        {
          "internalType": "address",
          "name": "",
          "type": "address"
        }
      ],
      "stateMutability": "view",
      "type": "function",
      "constant": true
    },
    {
      "inputs": [
        {
          "internalType": "uint256",
          "name": "",
          "type": "uint256"
        }
      ],
      "name": "runningCampaigns",
      "outputs": [
        {
          "internalType": "address",
          "name": "",
          "type": "address"
        }
      ],
      "stateMutability": "view",
      "type": "function",
      "constant": true
    },
    {
      "inputs": [
        {
          "internalType": "address",
          "name": "",
          "type": "address"
        }
      ],
      "name": "runningCampaignsIndexer",
      "outputs": [
        {
          "internalType": "uint256",
          "name": "",
          "type": "uint256"
        }
      ],
      "stateMutability": "view",
      "type": "function",
      "constant": true
    },
    {
      "inputs": [
        {
          "internalType": "string",
          "name": "title",
          "type": "string"
        },
        {
          "internalType": "string",
          "name": "image",
          "type": "string"
        },
        {
          "internalType": "string",
          "name": "description",
          "type": "string"
        },
        {
          "internalType": "uint256",
          "name": "tokenMaxSupply",
          "type": "uint256"
        },
        {
          "internalType": "string",
          "name": "tokenName",
          "type": "string"
        },
        {
          "internalType": "string",
          "name": "tokenSymbol",
          "type": "string"
        },
        {
          "internalType": "uint256",
          "name": "timeout",
          "type": "uint256"
        }
      ],
      "name": "createCampaign",
      "outputs": [],
      "stateMutability": "nonpayable",
      "type": "function"
    },
    {
      "inputs": [
        {
          "internalType": "address",
          "name": "campaignAddress",
          "type": "address"
        }
      ],
      "name": "finalizeCrowdfunding",
      "outputs": [],
      "stateMutability": "nonpayable",
      "type": "function"
    },
    {
      "inputs": [
        {
          "internalType": "uint256",
          "name": "cursor",
          "type": "uint256"
        },
        {
          "internalType": "uint256",
          "name": "howMany",
          "type": "uint256"
        },
        {
          "internalType": "bool",
          "name": "isRunning",
          "type": "bool"
        }
      ],
      "name": "getCampaigns",
      "outputs": [
        {
          "internalType": "address[]",
          "name": "values",
          "type": "address[]"
        },
        {
          "internalType": "uint256",
          "name": "len",
          "type": "uint256"
        }
      ],
      "stateMutability": "view",
      "type": "function",
      "constant": true
    }
  ],
  "bytecode": "0x608060405234801561001057600080fd5b50615f86806100206000396000f3fe60806040523480156200001157600080fd5b50600436106200006a5760003560e01c806331d0b804146200006f57806350997c3714620000a35780636b3abdf514620000bc5780639f2c19fb14620000e3578063dc4785dd1462000115578063dc8640a0146200012c575b600080fd5b620000866200008036600462000893565b62000143565b6040516001600160a01b0390911681526020015b60405180910390f35b620000ba620000b436600462000760565b6200016e565b005b620000d3620000cd366004620008c5565b62000460565b6040516200009a929190620009ec565b62000106620000f436600462000760565b60016020526000908152604090205481565b6040519081526020016200009a565b620000866200012636600462000893565b620005ec565b620000ba6200013d366004620007a5565b620005fd565b600281815481106200015457600080fd5b6000918252602090912001546001600160a01b0316905081565b6001600160a01b03811660009081526001602052604081205490548110620001a657634e487b7160e01b600052600160045260246000fd5b6000829050336001600160a01b0316816001600160a01b031663481c6a756040518163ffffffff1660e01b815260040160206040518083038186803b158015620001ef57600080fd5b505afa15801562000204573d6000803e3d6000fd5b505050506040513d601f19601f820116820180604052508101906200022a919062000786565b6001600160a01b0316148015620002b45750806001600160a01b03166370dea79a6040518163ffffffff1660e01b815260040160206040518083038186803b1580156200027657600080fd5b505afa1580156200028b573d6000803e3d6000fd5b505050506040513d601f19601f82011682018060405250810190620002b19190620008ac565b42115b620002cf57634e487b7160e01b600052600160045260246000fd5b600260008381548110620002f357634e487b7160e01b600052603260045260246000fd5b600091825260208083209091015483546001818101865594845291832090910180546001600160a01b0319166001600160a01b03909216919091179055805490916200033f9162000a5a565b815481106200035e57634e487b7160e01b600052603260045260246000fd5b600091825260208220015481546001600160a01b039091169190849081106200039757634e487b7160e01b600052603260045260246000fd5b6000918252602082200180546001600160a01b0319166001600160a01b039390931692909217909155805480620003de57634e487b7160e01b600052603160045260246000fd5b6001900381819060005260206000200160006101000a8154906001600160a01b0302191690559055806001600160a01b0316631ed692c06040518163ffffffff1660e01b8152600401600060405180830381600087803b1580156200044257600080fd5b505af115801562000457573d6000803e3d6000fd5b50505050505050565b606060008381846200047457600262000477565b60005b805480602002602001604051908101604052809291908181526020018280548015620004cd57602002820191906000526020600020905b81546001600160a01b03168152600190910190602001808311620004ae575b50505050509050868151620004e3919062000a5a565b821115620004fd57868151620004fa919062000a5a565b91505b816001600160401b038111156200052457634e487b7160e01b600052604160045260246000fd5b6040519080825280602002602001820160405280156200054e578160200160208202803683370190505b50935060005b82811015620005df57816200056a828a62000a3f565b815181106200058957634e487b7160e01b600052603260045260246000fd5b6020026020010151858281518110620005b257634e487b7160e01b600052603260045260246000fd5b6001600160a01b039092166020928302919091019091015280620005d68162000a74565b91505062000554565b5051915050935093915050565b600081815481106200015457600080fd5b600033888888888888886040516200061590620006c4565b6200062898979695949392919062000951565b604051809103906000f08015801562000645573d6000803e3d6000fd5b5060008054600180820183558280527f290decd9548b62a8d60345a988386fc84ba6bc95484008f6362f93160ef3e56390910180546001600160a01b0319166001600160a01b0385161790559054919250620006a19162000a5a565b6001600160a01b0390911660009081526001602052604090205550505050505050565b6154798062000ad883390190565b600082601f830112620006e3578081fd5b81356001600160401b038082111562000700576200070062000aa8565b604051601f8301601f19908116603f011681019082821181831017156200072b576200072b62000aa8565b8160405283815286602085880101111562000744578485fd5b8360208701602083013792830160200193909352509392505050565b60006020828403121562000772578081fd5b81356200077f8162000abe565b9392505050565b60006020828403121562000798578081fd5b81516200077f8162000abe565b600080600080600080600060e0888a031215620007c0578283fd5b87356001600160401b0380821115620007d7578485fd5b620007e58b838c01620006d2565b985060208a0135915080821115620007fb578485fd5b620008098b838c01620006d2565b975060408a01359150808211156200081f578485fd5b6200082d8b838c01620006d2565b965060608a0135955060808a01359150808211156200084a578485fd5b620008588b838c01620006d2565b945060a08a01359150808211156200086e578384fd5b506200087d8a828b01620006d2565b92505060c0880135905092959891949750929550565b600060208284031215620008a5578081fd5b5035919050565b600060208284031215620008be578081fd5b5051919050565b600080600060608486031215620008da578283fd5b833592506020840135915060408401358015158114620008f8578182fd5b809150509250925092565b60008151808452815b818110156200092a576020818501810151868301820152016200090c565b818111156200093c5782602083870101525b50601f01601f19169290920160200192915050565b6001600160a01b038916815261010060208201819052600090620009788382018b62000903565b905082810360408401526200098e818a62000903565b90508281036060840152620009a4818962000903565b905086608084015282810360a0840152620009c0818762000903565b905082810360c0840152620009d6818662000903565b9150508260e08301529998505050505050505050565b604080825283519082018190526000906020906060840190828701845b8281101562000a305781516001600160a01b03168452928401929084019060010162000a09565b50505092019290925292915050565b6000821982111562000a555762000a5562000a92565b500190565b60008282101562000a6f5762000a6f62000a92565b500390565b600060001982141562000a8b5762000a8b62000a92565b5060010190565b634e487b7160e01b600052601160045260246000fd5b634e487b7160e01b600052604160045260246000fd5b6001600160a01b038116811462000ad457600080fd5b5056fe60806040523480156200001157600080fd5b50604051620054793803806200547983398101604081905262000034916200029c565b804211158015620000455750600084115b6200006057634e487b7160e01b600052600160045260246000fd5b600080546001600160a01b031916331790558651620000879060019060208a019062000126565b5085516200009d90600390602089019062000126565b508451620000b390600290602088019062000126565b5060068490558251620000ce90600490602086019062000126565b508151620000e490600590602085019062000126565b50600780546001600160a01b0319166001600160a01b03999099169890981790975550505060089390935550504260095550600a805460ff19169055620003f1565b82805462000134906200039e565b90600052602060002090601f016020900481019282620001585760008555620001a3565b82601f106200017357805160ff1916838001178555620001a3565b82800160010185558215620001a3579182015b82811115620001a357825182559160200191906001019062000186565b50620001b1929150620001b5565b5090565b5b80821115620001b15760008155600101620001b6565b80516001600160a01b0381168114620001e457600080fd5b919050565b600082601f830112620001fa578081fd5b81516001600160401b0380821115620002175762000217620003db565b604051601f8301601f19908116603f01168101908282118183101715620002425762000242620003db565b816040528381526020925086838588010111156200025e578485fd5b8491505b8382101562000281578582018301518183018401529082019062000262565b838211156200029257848385830101525b9695505050505050565b600080600080600080600080610100898b031215620002b9578384fd5b620002c489620001cc565b60208a01519098506001600160401b0380821115620002e1578586fd5b620002ef8c838d01620001e9565b985060408b015191508082111562000305578586fd5b620003138c838d01620001e9565b975060608b015191508082111562000329578586fd5b620003378c838d01620001e9565b965060808b0151955060a08b015191508082111562000354578485fd5b620003628c838d01620001e9565b945060c08b015191508082111562000378578384fd5b50620003878b828c01620001e9565b92505060e089015190509295985092959890939650565b600281046001821680620003b357607f821691505b60208210811415620003d557634e487b7160e01b600052602260045260246000fd5b50919050565b634e487b7160e01b600052604160045260246000fd5b61507880620004016000396000f3fe608060405260043610620000e05760003560e01c80631ed692c014620000e5578063481c6a7514620000ff5780634a79d50c146200013e5780635708716d14620001655780635c39fcc114620001ae5780636c02a93114620001d057806370dea79a14620001e85780637284e4161462000200578063795053d314620002185780637b52b03b146200023a5780637b61c32014620002675780639d76ea58146200027f578063b331108614620002a1578063b90497e014620002b9578063be040fb014620002d1578063d7bb99ba14620002e9578063f99cc96e14620002f3575b600080fd5b348015620000f257600080fd5b50620000fd6200030b565b005b3480156200010c57600080fd5b5060075462000121906001600160a01b031681565b6040516001600160a01b0390911681526020015b60405180910390f35b3480156200014b57600080fd5b506200015662000488565b60405162000135919062000886565b3480156200017257600080fd5b506200019f6200018436600462000782565b6001600160a01b03166000908152600c602052604090205490565b60405190815260200162000135565b348015620001bb57600080fd5b5060005462000121906001600160a01b031681565b348015620001dd57600080fd5b50620001566200051e565b348015620001f557600080fd5b506200019f60085481565b3480156200020d57600080fd5b50620001566200052d565b3480156200022557600080fd5b50600e5462000121906001600160a01b031681565b3480156200024757600080fd5b50600a54620002569060ff1681565b604051901515815260200162000135565b3480156200027457600080fd5b50620001566200053c565b3480156200028c57600080fd5b50600d5462000121906001600160a01b031681565b348015620002ae57600080fd5b506200019f60095481565b348015620002c657600080fd5b50620001566200054b565b348015620002de57600080fd5b50620000fd6200055a565b620000fd620006bf565b3480156200030057600080fd5b506200019f60065481565b6000546001600160a01b031633146200033457634e487b7160e01b600052600160045260246000fd5b6000600654600460056040516200034b9062000766565b6200035993929190620008f3565b604051809103906000f08015801562000376573d6000803e3d6000fd5b50600d80546001600160a01b0319166001600160a01b0383161790556040519091506000908290600190620003ab9062000774565b620003b892919062000858565b604051809103906000f080158015620003d5573d6000803e3d6000fd5b50600e80546001600160a01b0319166001600160a01b0383811691909117909155600a805460ff191660011790556006549192508316906329322e0590620004209060049062000947565b6007546040516001600160e01b031960e085901b1681526200045092916001600160a01b031690600401620008dc565b600060405180830381600087803b1580156200046b57600080fd5b505af115801562000480573d6000803e3d6000fd5b505050505050565b6001805462000497906200098a565b80601f0160208091040260200160405190810160405280929190818152602001828054620004c5906200098a565b8015620005165780601f10620004ea5761010080835404028352916020019162000516565b820191906000526020600020905b815481529060010190602001808311620004f857829003601f168201915b505050505081565b6004805462000497906200098a565b6002805462000497906200098a565b6005805462000497906200098a565b6003805462000497906200098a565b60085442116200057a57634e487b7160e01b600052600160045260246000fd5b600a5460ff16156200063e57336000908152600c602052604090205480620005a157600080fd5b336000908152600c6020526040812055600d546006546001600160a01b03909116906329322e05904790620005d7908562000968565b620005e3919062000947565b336040518363ffffffff1660e01b815260040162000603929190620008dc565b600060405180830381600087803b1580156200061e57600080fd5b505af115801562000633573d6000803e3d6000fd5b5050505050620006bd565b336000818152600c6020526040808220805490839055905190929083908381818185875af1925050503d806000811462000695576040519150601f19603f3d011682016040523d82523d6000602084013e6200069a565b606091505b5050905080620006ba57634e487b7160e01b600052600160045260246000fd5b50505b565b600854421115620006e057634e487b7160e01b600052600160045260246000fd5b60003411620006ee57600080fd5b336000908152600c6020526040902054806200074757600b80546001810182556000919091527f0175b7a638427703f0dbe7bb9bbf987a2551717b34e79f33b5b1008d1fa01db90180546001600160a01b031916331790555b6200075334826200092c565b336000908152600c602052604090205550565b6120de80620009de83390190565b6125878062002abc83390190565b60006020828403121562000794578081fd5b81356001600160a01b0381168114620007ab578182fd5b9392505050565b805460009060028104600180831680620007cd57607f831692505b6020808410821415620007ee57634e487b7160e01b86526022600452602486fd5b838852602088018280156200080c57600181146200081e576200084b565b60ff198716825282820197506200084b565b60008981526020902060005b8781101562000845578154848201529086019084016200082a565b83019850505b5050505050505092915050565b6001600160a01b03831681526040602082018190526000906200087e90830184620007b2565b949350505050565b6000602080835283518082850152825b81811015620008b45785810183015185820160400152820162000896565b81811115620008c65783604083870101525b50601f01601f1916929092016040019392505050565b9182526001600160a01b0316602082015260400190565b6000848252606060208301526200090e6060830185620007b2565b8281036040840152620009228185620007b2565b9695505050505050565b60008219821115620009425762000942620009c7565b500190565b6000826200096357634e487b7160e01b81526012600452602481fd5b500490565b6000816000190483118215151615620009855762000985620009c7565b500290565b6002810460018216806200099f57607f821691505b60208210811415620009c157634e487b7160e01b600052602260045260246000fd5b50919050565b634e487b7160e01b600052601160045260246000fdfe6101406040527f6e71edae12b1b97f4d1f60370fef10105fa2faae0126114a169c64845d6126c9610120523480156200003757600080fd5b50604051620020de380380620020de8339810160408190526200005a91620002a9565b8180604051806040016040528060018152602001603160f81b815250848481600390805190602001906200009092919062000150565b508051620000a690600490602084019062000150565b5050825160209384012082519284019290922060c083815260e08290524660a0818152604080517f8b73c3c69bb8fe3d512ecc4cf759cc79239f7b179b0ffacaa9a75d522b39400f818a01819052818301989098526060810195909552608080860193909352308583015280518086039092018252939092019092528051940193909320909252610100525050600980546001600160a01b031916331790555050600a556200036d565b8280546200015e906200031a565b90600052602060002090601f016020900481019282620001825760008555620001cd565b82601f106200019d57805160ff1916838001178555620001cd565b82800160010185558215620001cd579182015b82811115620001cd578251825591602001919060010190620001b0565b50620001db929150620001df565b5090565b5b80821115620001db5760008155600101620001e0565b600082601f83011262000207578081fd5b81516001600160401b038082111562000224576200022462000357565b604051601f8301601f19908116603f011681019082821181831017156200024f576200024f62000357565b816040528381526020925086838588010111156200026b578485fd5b8491505b838210156200028e57858201830151818301840152908201906200026f565b838211156200029f57848385830101525b9695505050505050565b600080600060608486031215620002be578283fd5b835160208501519093506001600160401b0380821115620002dd578384fd5b620002eb87838801620001f6565b9350604086015191508082111562000301578283fd5b506200031086828701620001f6565b9150509250925092565b6002810460018216806200032f57607f821691505b602082108114156200035157634e487b7160e01b600052602260045260246000fd5b50919050565b634e487b7160e01b600052604160045260246000fd5b60805160a05160c05160e0516101005161012051611d21620003bd600039600061097401526000610e6301526000610eb201526000610e8d01526000610e0f01526000610e380152611d216000f3fe608060405234801561001057600080fd5b50600436106101335760003560e01c806306fdde0314610138578063095ea7b31461015657806311765b271461017957806318160ddd146101a457806323b872dd146101b657806329322e05146101c9578063313ce567146101de5780633644e515146101ed57806339509351146101f55780633a46b1a8146102085780634051ddac1461021b578063587cde1e146102335780635c19a95c146102465780636fcfff451461025957806370a08231146102815780637ecebe00146102945780638e539e8c146102a757806395d89b41146102ba5780639ab24eb0146102c2578063a457c2d7146102d5578063a9059cbb146102e8578063c3cda520146102fb578063d505accf1461030e578063dd62ed3e14610321578063f1127ed81461035a575b600080fd5b610140610397565b60405161014d9190611b8b565b60405180910390f35b610169610164366004611a48565b61042a565b604051901515815260200161014d565b60095461018c906001600160a01b031681565b6040516001600160a01b03909116815260200161014d565b6002545b60405190815260200161014d565b6101696101c43660046119a4565b610440565b6101dc6101d7366004611b1e565b6104ef565b005b6040516012815260200161014d565b6101a8610525565b610169610203366004611a48565b610534565b6101a8610216366004611a48565b610570565b6102236105ba565b60405161014d9493929190611bd5565b61018c610241366004611958565b6105ea565b6101dc610254366004611958565b61060b565b61026c610267366004611958565b610618565b60405163ffffffff909116815260200161014d565b6101a861028f366004611958565b610640565b6101a86102a2366004611958565b61065b565b6101a86102b5366004611b06565b610679565b6101406106a5565b6101a86102d0366004611958565b6106b4565b6101696102e3366004611a48565b610748565b6101696102f6366004611a48565b6107e1565b6101dc610309366004611a71565b6107ee565b6101dc61031c3660046119df565b610920565b6101a861032f366004611972565b6001600160a01b03918216600090815260016020908152604080832093909416825291909152205490565b61036d610368366004611ac8565b610a84565b60408051825163ffffffff1681526020928301516001600160e01b0316928101929092520161014d565b6060600380546103a690611c60565b80601f01602080910402602001604051908101604052809291908181526020018280546103d290611c60565b801561041f5780601f106103f45761010080835404028352916020019161041f565b820191906000526020600020905b81548152906001019060200180831161040257829003601f168201915b505050505090505b90565b6000610437338484610b15565b50600192915050565b600061044d848484610c39565b6001600160a01b0384166000908152600160209081526040808320338452909152902054828110156104d75760405162461bcd60e51b815260206004820152602860248201527f45524332303a207472616e7366657220616d6f756e74206578636565647320616044820152676c6c6f77616e636560c01b60648201526084015b60405180910390fd5b6104e48533858403610b15565b506001949350505050565b6009546001600160a01b0316331461051757634e487b7160e01b600052600160045260246000fd5b6105218183610e01565b5050565b600061052f610e0b565b905090565b3360008181526001602090815260408083206001600160a01b0387168452909152812054909161043791859061056b908690611c11565b610b15565b60004382106105915760405162461bcd60e51b81526004016104ce90611b9e565b6001600160a01b03831660009081526007602052604090206105b39083610f02565b9392505050565b6000806060806105c960025490565b600a546105d4610397565b6105dc6106a5565b935093509350935090919293565b6001600160a01b03808216600090815260066020526040902054165b919050565b6106153382610fda565b50565b6001600160a01b03811660009081526007602052604081205461063a9061105a565b92915050565b6001600160a01b031660009081526020819052604090205490565b6001600160a01b03811660009081526005602052604081205461063a565b600043821061069a5760405162461bcd60e51b81526004016104ce90611b9e565b61063a600883610f02565b6060600480546103a690611c60565b6001600160a01b0381166000908152600760205260408120548015610735576001600160a01b03831660009081526007602052604090206106f6600183611c49565b8154811061071457634e487b7160e01b600052603260045260246000fd5b600091825260209091200154600160201b90046001600160e01b0316610738565b60005b6001600160e01b03169392505050565b3360009081526001602090815260408083206001600160a01b0386168452909152812054828110156107ca5760405162461bcd60e51b815260206004820152602560248201527f45524332303a2064656372656173656420616c6c6f77616e63652062656c6f77604482015264207a65726f60d81b60648201526084016104ce565b6107d73385858403610b15565b5060019392505050565b6000610437338484610c39565b8342111561083e5760405162461bcd60e51b815260206004820152601d60248201527f4552433230566f7465733a207369676e6174757265206578706972656400000060448201526064016104ce565b604080517fe48329057bfd03d55e49b547132e39cffd9c1820ad7b9d4c5307691425d15adf60208201526001600160a01b0388169181019190915260608101869052608081018590526000906108b8906108b09060a001604051602081830303815290604052805190602001206110c3565b858585611111565b90506108c381611139565b861461090d5760405162461bcd60e51b81526020600482015260196024820152784552433230566f7465733a20696e76616c6964206e6f6e636560381b60448201526064016104ce565b6109178188610fda565b50505050505050565b834211156109705760405162461bcd60e51b815260206004820152601d60248201527f45524332305065726d69743a206578706972656420646561646c696e6500000060448201526064016104ce565b60007f000000000000000000000000000000000000000000000000000000000000000088888861099f8c611139565b6040805160208101969096526001600160a01b0394851690860152929091166060840152608083015260a082015260c0810186905260e00160405160208183030381529060405280519060200120905060006109fa826110c3565b90506000610a0a82878787611111565b9050896001600160a01b0316816001600160a01b031614610a6d5760405162461bcd60e51b815260206004820152601e60248201527f45524332305065726d69743a20696e76616c6964207369676e6174757265000060448201526064016104ce565b610a788a8a8a610b15565b50505050505050505050565b60408051808201909152600080825260208201526001600160a01b0383166000908152600760205260409020805463ffffffff8416908110610ad657634e487b7160e01b600052603260045260246000fd5b60009182526020918290206040805180820190915291015463ffffffff81168252600160201b90046001600160e01b0316918101919091529392505050565b6001600160a01b038316610b775760405162461bcd60e51b8152602060048201526024808201527f45524332303a20617070726f76652066726f6d20746865207a65726f206164646044820152637265737360e01b60648201526084016104ce565b6001600160a01b038216610bd85760405162461bcd60e51b815260206004820152602260248201527f45524332303a20617070726f766520746f20746865207a65726f206164647265604482015261737360f01b60648201526084016104ce565b6001600160a01b0383811660008181526001602090815260408083209487168084529482529182902085905590518481527f8c5be1e5ebec7d5bd14f71427d1e84f3dd0314c0f7b2291e5b200ac8c7c3b925910160405180910390a3505050565b6001600160a01b038316610c9d5760405162461bcd60e51b815260206004820152602560248201527f45524332303a207472616e736665722066726f6d20746865207a65726f206164604482015264647265737360d81b60648201526084016104ce565b6001600160a01b038216610cff5760405162461bcd60e51b815260206004820152602360248201527f45524332303a207472616e7366657220746f20746865207a65726f206164647260448201526265737360e81b60648201526084016104ce565b6001600160a01b03831660009081526020819052604090205481811015610d775760405162461bcd60e51b815260206004820152602660248201527f45524332303a207472616e7366657220616d6f756e7420657863656564732062604482015265616c616e636560d01b60648201526084016104ce565b6001600160a01b03808516600090815260208190526040808220858503905591851681529081208054849290610dae908490611c11565b92505081905550826001600160a01b0316846001600160a01b0316600080516020611cac83398151915284604051610de891815260200190565b60405180910390a3610dfb848484611166565b50505050565b6105218282611171565b60007f0000000000000000000000000000000000000000000000000000000000000000461415610e5c57507f0000000000000000000000000000000000000000000000000000000000000000610427565b50604080517f00000000000000000000000000000000000000000000000000000000000000006020808301919091527f0000000000000000000000000000000000000000000000000000000000000000828401527f000000000000000000000000000000000000000000000000000000000000000060608301524660808301523060a0808401919091528351808403909101815260c09092019092528051910120610427565b8154600090815b81811015610f74576000610f1d82846111fb565b905084868281548110610f4057634e487b7160e01b600052603260045260246000fd5b60009182526020909120015463ffffffff161115610f6057809250610f6e565b610f6b816001611c11565b91505b50610f09565b8115610fc55784610f86600184611c49565b81548110610fa457634e487b7160e01b600052603260045260246000fd5b600091825260209091200154600160201b90046001600160e01b0316610fc8565b60005b6001600160e01b031695945050505050565b6000610fe5836105ea565b90506000610ff284610640565b6001600160a01b0385811660008181526006602052604080822080546001600160a01b031916898616908117909155905194955093928616927f3134e8a2e6d97e929a7e54011ea5485d7d196dd5f0ba4d4ef95803e8e3fc257f9190a4610dfb828483611216565b600063ffffffff8211156110bf5760405162461bcd60e51b815260206004820152602660248201527f53616665436173743a2076616c756520646f65736e27742066697420696e203360448201526532206269747360d01b60648201526084016104ce565b5090565b600061063a6110d0610e0b565b8360405161190160f01b6020820152602281018390526042810182905260009060620160405160208183030381529060405280519060200120905092915050565b60008060006111228787878761132f565b9150915061112f81611412565b5095945050505050565b6001600160a01b03811660009081526005602052604090208054600181018255905b50919050565b505050565b611161838383611610565b61117b828261162b565b6002546001600160e01b0310156111ed5760405162461bcd60e51b815260206004820152603060248201527f4552433230566f7465733a20746f74616c20737570706c79207269736b73206f60448201526f766572666c6f77696e6720766f74657360801b60648201526084016104ce565b610dfb60086117008361170c565b600061120a6002848418611c29565b6105b390848416611c11565b816001600160a01b0316836001600160a01b0316141580156112385750600081115b15611161576001600160a01b038316156112b4576001600160a01b03831660009081526007602052604081208190611273906118bb8561170c565b91509150846001600160a01b0316600080516020611ccc83398151915283836040516112a9929190918252602082015260400190565b60405180910390a250505b6001600160a01b03821615611161576001600160a01b038216600090815260076020526040812081906112ea906117008561170c565b91509150836001600160a01b0316600080516020611ccc8339815191528383604051611320929190918252602082015260400190565b60405180910390a25050505050565b6000806fa2a8918ca85bafe22016d0b997e4df60600160ff1b0383111561135c5750600090506003611409565b8460ff16601b1415801561137457508460ff16601c14155b156113855750600090506004611409565b6040805160008082526020820180845289905260ff881692820192909252606081018690526080810185905260019060a0016020604051602081039080840390855afa1580156113d9573d6000803e3d6000fd5b5050604051601f1901519150506001600160a01b03811661140257600060019250925050611409565b9150600090505b94509492505050565b600081600481111561143457634e487b7160e01b600052602160045260246000fd5b141561143f57610615565b600181600481111561146157634e487b7160e01b600052602160045260246000fd5b14156114aa5760405162461bcd60e51b815260206004820152601860248201527745434453413a20696e76616c6964207369676e617475726560401b60448201526064016104ce565b60028160048111156114cc57634e487b7160e01b600052602160045260246000fd5b141561151a5760405162461bcd60e51b815260206004820152601f60248201527f45434453413a20696e76616c6964207369676e6174757265206c656e6774680060448201526064016104ce565b600381600481111561153c57634e487b7160e01b600052602160045260246000fd5b14156115955760405162461bcd60e51b815260206004820152602260248201527f45434453413a20696e76616c6964207369676e6174757265202773272076616c604482015261756560f01b60648201526084016104ce565b60048160048111156115b757634e487b7160e01b600052602160045260246000fd5b14156106155760405162461bcd60e51b815260206004820152602260248201527f45434453413a20696e76616c6964207369676e6174757265202776272076616c604482015261756560f01b60648201526084016104ce565b61116161161c846105ea565b611625846105ea565b83611216565b6001600160a01b0382166116815760405162461bcd60e51b815260206004820152601f60248201527f45524332303a206d696e7420746f20746865207a65726f20616464726573730060448201526064016104ce565b80600260008282546116939190611c11565b90915550506001600160a01b038216600090815260208190526040812080548392906116c0908490611c11565b90915550506040518181526001600160a01b03831690600090600080516020611cac8339815191529060200160405180910390a361052160008383611166565b60006105b38284611c11565b8254600090819080156117645785611725600183611c49565b8154811061174357634e487b7160e01b600052603260045260246000fd5b600091825260209091200154600160201b90046001600160e01b0316611767565b60005b6001600160e01b0316925061178083858763ffffffff16565b91506000811180156117cc5750438661179a600184611c49565b815481106117b857634e487b7160e01b600052603260045260246000fd5b60009182526020909120015463ffffffff16145b1561183a576117da826118c7565b866117e6600184611c49565b8154811061180457634e487b7160e01b600052603260045260246000fd5b9060005260206000200160000160046101000a8154816001600160e01b0302191690836001600160e01b031602179055506118b2565b85604051806040016040528061184f4361105a565b63ffffffff168152602001611863856118c7565b6001600160e01b03908116909152825460018101845560009384526020938490208351910180549390940151909116600160201b0263ffffffff91821663ffffffff1990931692909217161790555b50935093915050565b60006105b38284611c49565b60006001600160e01b038211156110bf5760405162461bcd60e51b815260206004820152602760248201527f53616665436173743a2076616c756520646f65736e27742066697420696e20326044820152663234206269747360c81b60648201526084016104ce565b80356001600160a01b038116811461060657600080fd5b803560ff8116811461060657600080fd5b600060208284031215611969578081fd5b6105b382611930565b60008060408385031215611984578081fd5b61198d83611930565b915061199b60208401611930565b90509250929050565b6000806000606084860312156119b8578081fd5b6119c184611930565b92506119cf60208501611930565b9150604084013590509250925092565b600080600080600080600060e0888a0312156119f9578283fd5b611a0288611930565b9650611a1060208901611930565b95506040880135945060608801359350611a2c60808901611947565b925060a0880135915060c0880135905092959891949750929550565b60008060408385031215611a5a578182fd5b611a6383611930565b946020939093013593505050565b60008060008060008060c08789031215611a89578182fd5b611a9287611930565b95506020870135945060408701359350611aae60608801611947565b92506080870135915060a087013590509295509295509295565b60008060408385031215611ada578182fd5b611ae383611930565b9150602083013563ffffffff81168114611afb578182fd5b809150509250929050565b600060208284031215611b17578081fd5b5035919050565b60008060408385031215611b30578182fd5b8235915061199b60208401611930565b60008151808452815b81811015611b6557602081850181015186830182015201611b49565b81811115611b765782602083870101525b50601f01601f19169290920160200192915050565b6000602082526105b36020830184611b40565b6020808252601f908201527f4552433230566f7465733a20626c6f636b206e6f7420796574206d696e656400604082015260600190565b600085825284602083015260806040830152611bf46080830185611b40565b8281036060840152611c068185611b40565b979650505050505050565b60008219821115611c2457611c24611c95565b500190565b600082611c4457634e487b7160e01b81526012600452602481fd5b500490565b600082821015611c5b57611c5b611c95565b500390565b600281046001821680611c7457607f821691505b6020821081141561115b57634e487b7160e01b600052602260045260246000fd5b634e487b7160e01b600052601160045260246000fdfeddf252ad1be2c89b69c2b068fc378daa952ba7f163c4a11628f55a4df523b3efdec2bacdd2f05b59de34da9b523dff8be42e5e38e818c82fdb0bae774387a724a264697066735822122049e8bd56e91d3b1d79b851b57cddfae463b26e76155264fcb72d656113a0a44564736f6c634300080200336101406040523480156200001257600080fd5b50604051620025873803806200258783398101604081905262000035916200028d565b6033828280620000596040805180820190915260018152603160f81b602082015290565b815160209283012081519183019190912060c082815260e08290524660a0818152604080517f8b73c3c69bb8fe3d512ecc4cf759cc79239f7b179b0ffacaa9a75d522b39400f818901819052818301979097526060810195909552608080860193909352308583015280518086039092018252939092019092528051908401209052610100528151620000f39160009190840190620001e7565b505060601b6001600160601b0319166101205262000111816200011a565b505050620003d9565b6064811115620001a25760405162461bcd60e51b815260206004820152604360248201527f476f7665726e6f72566f74657351756f72756d4672616374696f6e3a2071756f60448201527f72756d4e756d657261746f72206f7665722071756f72756d44656e6f6d696e616064820152623a37b960e91b608482015260a40160405180910390fd5b600380549082905560408051828152602081018490527f0553476bf02ef2726e8ce5ced78d63e26e602e4a2257b1f559418e24b4633997910160405180910390a15050565b828054620001f59062000386565b90600052602060002090601f01602090048101928262000219576000855562000264565b82601f106200023457805160ff191683800117855562000264565b8280016001018555821562000264579182015b828111156200026457825182559160200191906001019062000247565b506200027292915062000276565b5090565b5b8082111562000272576000815560010162000277565b60008060408385031215620002a0578182fd5b82516001600160a01b0381168114620002b7578283fd5b602084810151919350906001600160401b0380821115620002d6578384fd5b818601915086601f830112620002ea578384fd5b815181811115620002ff57620002ff620003c3565b604051601f8201601f19908116603f011681019083821181831017156200032a576200032a620003c3565b81604052828152898684870101111562000342578687fd5b8693505b8284101562000365578484018601518185018701529285019262000346565b828411156200037657868684830101525b8096505050505050509250929050565b6002810460018216806200039b57607f821691505b60208210811415620003bd57634e487b7160e01b600052602260045260246000fd5b50919050565b634e487b7160e01b600052604160045260246000fd5b60805160a05160c05160e051610100516101205160601c61214d6200043a600039600081816104a10152818161110a01526111a3015260006112ca01526000611319015260006112f4015260006112760152600061129f015261214d6000f3fe60806040526004361061011b5760003560e01c806301ffc9a71461012057806302a251a31461015557806306f3f9e61461017857806306fdde031461019a5780632656227d146101bc5780632d63f693146101cf5780633932abb1146101ef5780633bccf4fd146102035780633e4f49e6146102235780634385963214610250578063544ffc9c1461029a57806354fd4d50146102f4578063567813881461031e5780637b3c71d31461033e5780637d5e81e21461035e57806397c3d3341461037e578063a7713a7014610392578063c01f9e37146103a7578063c59057e4146103c7578063dd4e2ba5146103e7578063deaaa7cc1461042d578063eb9019d41461044f578063f8ce560a1461046f578063fc0c546a1461048f575b600080fd5b34801561012c57600080fd5b5061014061013b366004611af4565b6104db565b60405190151581526020015b60405180910390f35b34801561016157600080fd5b5061016a610514565b60405190815260200161014c565b34801561018457600080fd5b50610198610193366004611b1c565b61051b565b005b3480156101a657600080fd5b506101af610576565b60405161014c9190611de7565b61016a6101ca3660046119af565b610608565b3480156101db57600080fd5b5061016a6101ea366004611b1c565b610731565b3480156101fb57600080fd5b50600161016a565b34801561020f57600080fd5b5061016a61021e366004611c1a565b610768565b34801561022f57600080fd5b5061024361023e366004611b1c565b6107ea565b60405161014c9190611dbf565b34801561025c57600080fd5b5061014061026b366004611b4c565b60008281526002602090815260408083206001600160a01b038516845260030190915290205460ff1692915050565b3480156102a657600080fd5b506102d96102b5366004611b1c565b60008181526002602081905260409091208054600182015491909201549193909250565b6040805193845260208401929092529082015260600161014c565b34801561030057600080fd5b506040805180820190915260018152603160f81b60208201526101af565b34801561032a57600080fd5b5061016a610339366004611b77565b610953565b34801561034a57600080fd5b5061016a610359366004611b99565b61097c565b34801561036a57600080fd5b5061016a610379366004611a3a565b6109ce565b34801561038a57600080fd5b50606461016a565b34801561039e57600080fd5b5060035461016a565b3480156103b357600080fd5b5061016a6103c2366004611b1c565b610bf4565b3480156103d357600080fd5b5061016a6103e23660046119af565b610c23565b3480156103f357600080fd5b506040805180820190915260208082527f737570706f72743d627261766f2671756f72756d3d666f722c6162737461696e908201526101af565b34801561043957600080fd5b5061016a6000805160206120d183398151915281565b34801561045b57600080fd5b5061016a61046a366004611986565b610c5d565b34801561047b57600080fd5b5061016a61048a366004611b1c565b610c70565b34801561049b57600080fd5b506104c37f000000000000000000000000000000000000000000000000000000000000000081565b6040516001600160a01b03909116815260200161014c565b60006001600160e01b0319821663bf26d89760e01b148061050c57506301ffc9a760e01b6001600160e01b03198316145b90505b919050565b61b2fa5b90565b33301461056a5760405162461bcd60e51b8152602060048201526018602482015277476f7665726e6f723a206f6e6c79476f7665726e616e636560401b60448201526064015b60405180910390fd5b61057381610c7b565b50565b60606000805461058590612054565b80601f01602080910402602001604051908101604052809291908181526020018280546105b190612054565b80156105fe5780601f106105d3576101008083540402835291602001916105fe565b820191906000526020600020905b8154815290600101906020018083116105e157829003601f168201915b5050505050905090565b60008061061786868686610c23565b90506000610624826107ea565b9050600481600781111561064857634e487b7160e01b600052602160045260246000fd5b14806106735750600581600781111561067157634e487b7160e01b600052602160045260246000fd5b145b6106c95760405162461bcd60e51b815260206004820152602160248201527f476f7665726e6f723a2070726f706f73616c206e6f74207375636365737366756044820152601b60fa1b6064820152608401610561565b600082815260016020818152604092839020600201805460ff191690921790915590518381527f712ae1383f79ac853f8d882153778e0260ef8f03b504e2866e0593e04d2b291f910160405180910390a16107278288888888610d43565b5095945050505050565b60008181526001602090815260408083208151928301909152546001600160401b0316908190525b6001600160401b031692915050565b604080516000805160206120d1833981519152602082015290810186905260ff8516606082015260009081906107c2906107ba9060800160405160208183030381529060405280519060200120610e6c565b868686610eba565b90506107df87828860405180602001604052806000815250610ed8565b979650505050505050565b6000818152600160208181526040808420815160a08101835281546001600160401b0390811660808301908152825283518086018552958301541685529283019390935260029092015460ff8082161580159484019490945261010090910416151560608201529061086057600791505061050f565b80606001511561087457600291505061050f565b805151436001600160401b03909116111561089357600091505061050f565b602081015151436001600160401b0390911611156108b557600191505061050f565b6108c28160200151610ff1565b15610905576108d083611020565b80156108ef575060008381526002602052604090208054600190910154115b6108fa5760036108fd565b60045b91505061050f565b60405162461bcd60e51b815260206004820152601d60248201527f476f7665726e6f723a20756e6b6e6f776e2070726f706f73616c2069640000006044820152606401610561565b50919050565b60008033905061097484828560405180602001604052806000815250610ed8565b949350505050565b6000803390506109c486828787878080601f016020809104026020016040519081016040528093929190818152602001838380828437600092019190915250610ed892505050565b9695505050505050565b6000806109e48686868680519060200120610c23565b90508451865114610a075760405162461bcd60e51b815260040161056190611dfa565b8351865114610a285760405162461bcd60e51b815260040161056190611dfa565b6000865111610a745760405162461bcd60e51b815260206004820152601860248201527711dbdd995c9b9bdc8e88195b5c1d1e481c1c9bdc1bdcd85b60421b6044820152606401610561565b600081815260016020908152604091829020825191820190925281546001600160401b03169081905215610af45760405162461bcd60e51b815260206004820152602160248201527f476f7665726e6f723a2070726f706f73616c20616c72656164792065786973746044820152607360f81b6064820152608401610561565b6000610b0160015b611058565b610b0a43611058565b610b149190611fba565b90506000610b23610afc610514565b610b2d9083611fba565b9050610b3983836110c4565b610b4660018401826110c4565b7f7d84a6263ae0d98d3329bd7b46bb4e8d6f98cd35a7adb45c274c8b7fd5ebd5e084338b8b8d516001600160401b03811115610b9257634e487b7160e01b600052604160045260246000fd5b604051908082528060200260200182016040528015610bc557816020015b6060815260200190600190039081610bb05790505b508c88888e604051610bdf99989796959493929190611e3b565b60405180910390a15091979650505050505050565b60008181526001602081815260408084208151928301909152909101546001600160401b031690819052610759565b600084848484604051602001610c3c9493929190611d74565b60408051601f19818403018152919052805160209091012095945050505050565b6000610c6983836110e1565b9392505050565b600061050c82611186565b6064811115610cfe5760405162461bcd60e51b815260206004820152604360248201527f476f7665726e6f72566f74657351756f72756d4672616374696f6e3a2071756f60448201527f72756d4e756d657261746f72206f7665722071756f72756d44656e6f6d696e616064820152623a37b960e91b608482015260a401610561565b600380549082905560408051828152602081018490527f0553476bf02ef2726e8ce5ced78d63e26e602e4a2257b1f559418e24b4633997910160405180910390a15050565b60006040518060600160405280602781526020016120f160279139905060005b8551811015610e6357600080878381518110610d8f57634e487b7160e01b600052603260045260246000fd5b60200260200101516001600160a01b0316878481518110610dc057634e487b7160e01b600052603260045260246000fd5b6020026020010151878581518110610de857634e487b7160e01b600052603260045260246000fd5b6020026020010151604051610dfd9190611d58565b60006040518083038185875af1925050503d8060008114610e3a576040519150601f19603f3d011682016040523d82523d6000602084013e610e3f565b606091505b5091509150610e4f828286611239565b50505080610e5c90612089565b9050610d63565b50505050505050565b600061050c610e79611272565b8360405161190160f01b6020820152602281018390526042810182905260009060620160405160208183030381529060405280519060200120905092915050565b6000806000610ecb87878787611369565b915091506107278161144c565b6000848152600160208190526040822090610ef2876107ea565b6007811115610f1157634e487b7160e01b600052602160045260246000fd5b14610f6a5760405162461bcd60e51b815260206004820152602360248201527f476f7665726e6f723a20766f7465206e6f742063757272656e746c792061637460448201526269766560e81b6064820152608401610561565b604080516020810190915281546001600160401b031690819052600090610f92908790610c5d565b9050610fa08787878461164a565b856001600160a01b03167fb8e138887d0aa13bab447e82de9d5c1777041ecd21ca36ba824ff1e6c07ddda488878488604051610fdf9493929190611f27565b60405180910390a29695505050505050565b600061100682516001600160401b0316151590565b801561050c57505051436001600160401b03909116111590565b600081815260026020819052604082209081015460018201546110439190611fa2565b61104f61048a85610731565b11159392505050565b60006001600160401b038211156110c05760405162461bcd60e51b815260206004820152602660248201527f53616665436173743a2076616c756520646f65736e27742066697420696e203660448201526534206269747360d01b6064820152608401610561565b5090565b81546001600160401b0319166001600160401b0391909116179055565b604051630748d63560e31b81526001600160a01b038381166004830152602482018390526000917f000000000000000000000000000000000000000000000000000000000000000090911690633a46b1a89060440160206040518083038186803b15801561114e57600080fd5b505afa158015611162573d6000803e3d6000fd5b505050506040513d601f19601f82011682018060405250810190610c699190611b34565b60006064600354604051632394e7a360e21b8152600481018590527f00000000000000000000000000000000000000000000000000000000000000006001600160a01b031690638e539e8c9060240160206040518083038186803b1580156111ed57600080fd5b505afa158015611201573d6000803e3d6000fd5b505050506040513d601f19601f820116820180604052508101906112259190611b34565b61122f9190612005565b61050c9190611fe5565b60608315611248575081610c69565b8251156112585782518084602001fd5b8160405162461bcd60e51b81526004016105619190611de7565b60007f00000000000000000000000000000000000000000000000000000000000000004614156112c357507f0000000000000000000000000000000000000000000000000000000000000000610518565b50604080517f00000000000000000000000000000000000000000000000000000000000000006020808301919091527f0000000000000000000000000000000000000000000000000000000000000000828401527f000000000000000000000000000000000000000000000000000000000000000060608301524660808301523060a0808401919091528351808403909101815260c09092019092528051910120610518565b6000806fa2a8918ca85bafe22016d0b997e4df60600160ff1b038311156113965750600090506003611443565b8460ff16601b141580156113ae57508460ff16601c14155b156113bf5750600090506004611443565b6040805160008082526020820180845289905260ff881692820192909252606081018690526080810185905260019060a0016020604051602081039080840390855afa158015611413573d6000803e3d6000fd5b5050604051601f1901519150506001600160a01b03811661143c57600060019250925050611443565b9150600090505b94509492505050565b600081600481111561146e57634e487b7160e01b600052602160045260246000fd5b141561147957610573565b600181600481111561149b57634e487b7160e01b600052602160045260246000fd5b14156114e45760405162461bcd60e51b815260206004820152601860248201527745434453413a20696e76616c6964207369676e617475726560401b6044820152606401610561565b600281600481111561150657634e487b7160e01b600052602160045260246000fd5b14156115545760405162461bcd60e51b815260206004820152601f60248201527f45434453413a20696e76616c6964207369676e6174757265206c656e677468006044820152606401610561565b600381600481111561157657634e487b7160e01b600052602160045260246000fd5b14156115cf5760405162461bcd60e51b815260206004820152602260248201527f45434453413a20696e76616c6964207369676e6174757265202773272076616c604482015261756560f01b6064820152608401610561565b60048160048111156115f157634e487b7160e01b600052602160045260246000fd5b14156105735760405162461bcd60e51b815260206004820152602260248201527f45434453413a20696e76616c6964207369676e6174757265202776272076616c604482015261756560f01b6064820152608401610561565b60008481526002602090815260408083206001600160a01b0387168452600381019092529091205460ff16156116d25760405162461bcd60e51b815260206004820152602760248201527f476f7665726e6f72566f74696e6753696d706c653a20766f746520616c726561604482015266191e4818d85cdd60ca1b6064820152608401610561565b6001600160a01b03841660009081526003820160205260408120805460ff1916600117905560ff168360ff16141561172357818160000160008282546117189190611fa2565b909155506117c99050565b60ff83166001141561174357818160010160008282546117189190611fa2565b60ff83166002141561176357818160020160008282546117189190611fa2565b60405162461bcd60e51b815260206004820152603560248201527f476f7665726e6f72566f74696e6753696d706c653a20696e76616c69642076616044820152746c756520666f7220656e756d20566f74655479706560581b6064820152608401610561565b5050505050565b60006001600160401b038311156117e9576117e96120ba565b6117fc601f8401601f1916602001611f4f565b905082815283838301111561181057600080fd5b828260208301376000602084830101529392505050565b80356001600160a01b038116811461050f57600080fd5b600082601f83011261184e578081fd5b8135602061186361185e83611f7f565b611f4f565b828152818101908583018385028701840188101561187f578586fd5b855b858110156118a45761189282611827565b84529284019290840190600101611881565b5090979650505050505050565b600082601f8301126118c1578081fd5b813560206118d161185e83611f7f565b82815281810190858301855b858110156118a4578135880189603f8201126118f7578788fd5b6119088a87830135604084016117d0565b85525092840192908401906001016118dd565b600082601f83011261192b578081fd5b8135602061193b61185e83611f7f565b8281528181019085830183850287018401881015611957578586fd5b855b858110156118a457813584529284019290840190600101611959565b803560ff8116811461050f57600080fd5b60008060408385031215611998578182fd5b6119a183611827565b946020939093013593505050565b600080600080608085870312156119c4578182fd5b84356001600160401b03808211156119da578384fd5b6119e68883890161183e565b955060208701359150808211156119fb578384fd5b611a078883890161191b565b94506040870135915080821115611a1c578384fd5b50611a29878288016118b1565b949793965093946060013593505050565b60008060008060808587031215611a4f578384fd5b84356001600160401b0380821115611a65578586fd5b611a718883890161183e565b95506020870135915080821115611a86578485fd5b611a928883890161191b565b94506040870135915080821115611aa7578384fd5b611ab3888389016118b1565b93506060870135915080821115611ac8578283fd5b508501601f81018713611ad9578182fd5b611ae8878235602084016117d0565b91505092959194509250565b600060208284031215611b05578081fd5b81356001600160e01b031981168114610c69578182fd5b600060208284031215611b2d578081fd5b5035919050565b600060208284031215611b45578081fd5b5051919050565b60008060408385031215611b5e578182fd5b82359150611b6e60208401611827565b90509250929050565b60008060408385031215611b89578182fd5b82359150611b6e60208401611975565b60008060008060608587031215611bae578182fd5b84359350611bbe60208601611975565b925060408501356001600160401b0380821115611bd9578384fd5b818701915087601f830112611bec578384fd5b813581811115611bfa578485fd5b886020828501011115611c0b578485fd5b95989497505060200194505050565b600080600080600060a08688031215611c31578283fd5b85359450611c4160208701611975565b9350611c4f60408701611975565b94979396509394606081013594506080013592915050565b6000815180845260208085019450808401835b83811015611c9f5781516001600160a01b031687529582019590820190600101611c7a565b509495945050505050565b6000815180845260208085018081965082840281019150828601855b85811015611cf0578284038952611cde848351611d2c565b98850198935090840190600101611cc6565b5091979650505050505050565b6000815180845260208085019450808401835b83811015611c9f57815187529582019590820190600101611d10565b60008151808452611d44816020860160208601612024565b601f01601f19169290920160200192915050565b60008251611d6a818460208701612024565b9190910192915050565b600060808252611d876080830187611c67565b8281036020840152611d998187611cfd565b90508281036040840152611dad8186611caa565b91505082606083015295945050505050565b6020810160088310611de157634e487b7160e01b600052602160045260246000fd5b91905290565b600060208252610c696020830184611d2c565b60208082526021908201527f476f7665726e6f723a20696e76616c69642070726f706f73616c206c656e67746040820152600d60fb1b606082015260800190565b60006101208b8352602060018060a01b038c1681850152816040850152611e648285018c611c67565b91508382036060850152611e78828b611cfd565b848103608086015289518082529092508183019082810284018301838c01865b83811015611ec657601f19878403018552611eb4838351611d2c565b94860194925090850190600101611e98565b505086810360a0880152611eda818c611caa565b945050505050611ef560c08401876001600160401b03169052565b6001600160401b03851660e0840152828103610100840152611f178185611d2c565b9c9b505050505050505050505050565b600085825260ff85166020830152836040830152608060608301526109c46080830184611d2c565b604051601f8201601f191681016001600160401b0381118282101715611f7757611f776120ba565b604052919050565b60006001600160401b03821115611f9857611f986120ba565b5060209081020190565b60008219821115611fb557611fb56120a4565b500190565b60006001600160401b03828116848216808303821115611fdc57611fdc6120a4565b01949350505050565b60008261200057634e487b7160e01b81526012600452602481fd5b500490565b600081600019048311821515161561201f5761201f6120a4565b500290565b60005b8381101561203f578181015183820152602001612027565b8381111561204e576000848401525b50505050565b60028104600182168061206857607f821691505b6020821081141561094d57634e487b7160e01b600052602260045260246000fd5b600060001982141561209d5761209d6120a4565b5060010190565b634e487b7160e01b600052601160045260246000fd5b634e487b7160e01b600052604160045260246000fdfe150214d74d59b7d1e90c73fc22ef3d991dd0a76b046543d4d80ab92d2a50328f476f7665726e6f723a2063616c6c20726576657274656420776974686f7574206d657373616765a264697066735822122044e445541297936650a94424ac939b027cc475ca481d7662fb903387302b1e9364736f6c63430008020033a26469706673582212207f45575529a14739dc2c6cbde344ba95a1162d9401f63d682e6899f3d42130f664736f6c63430008020033a26469706673582212206b9072c3b2fff53c672cc97e21014a289d4aabc7acea0b87de94422a4a1deb1764736f6c63430008020033",
  "immutableReferences": {},
  "source": "// SPDX-License-Identifier: GPLv3\r\npragma solidity >=0.8.2 <0.9.0;\r\nimport {Campaign} from \"./Campaign.sol\";\r\n\r\ncontract CampaignFactory {\r\n    address[] public runningCampaigns;\r\n    mapping(address => uint256) public runningCampaignsIndexer;\r\n    address[] public fundedCampaigns;\r\n\r\n    function createCampaign(\r\n        string memory title,\r\n        string memory image,\r\n        string memory description,\r\n        uint256 tokenMaxSupply,\r\n        string memory tokenName,\r\n        string memory tokenSymbol,\r\n        uint256 timeout\r\n    ) external {\r\n        address newCampaign = address(\r\n            new Campaign(\r\n                msg.sender,\r\n                title,\r\n                image,\r\n                description,\r\n                tokenMaxSupply,\r\n                tokenName,\r\n                tokenSymbol,\r\n                timeout\r\n            )\r\n        );\r\n        runningCampaigns.push(newCampaign);\r\n        runningCampaignsIndexer[newCampaign] = runningCampaigns.length - 1;\r\n    }\r\n\r\n    function finalizeCrowdfunding(address campaignAddress) external {\r\n        uint256 index = runningCampaignsIndexer[campaignAddress];\r\n        assert(index < runningCampaigns.length);\r\n\r\n        Campaign c = Campaign(campaignAddress);\r\n        assert(c.manager() == msg.sender && block.timestamp > c.timeout());\r\n\r\n        fundedCampaigns.push(runningCampaigns[index]);\r\n        runningCampaigns[index] = runningCampaigns[runningCampaigns.length - 1];\r\n        runningCampaigns.pop();\r\n\r\n        c.finalizeCrowdfunding();\r\n    }\r\n\r\n    function getCampaigns(\r\n        uint256 cursor,\r\n        uint256 howMany,\r\n        bool isRunning\r\n    ) external view returns (address[] memory values, uint256 len) {\r\n        uint256 length = howMany;\r\n        address[] memory arr = isRunning ? runningCampaigns : fundedCampaigns;\r\n        if (length > arr.length - cursor) {\r\n            length = arr.length - cursor;\r\n        }\r\n        values = new address[](length);\r\n        for (uint256 i = 0; i < length; i++) {\r\n            values[i] = arr[cursor + i];\r\n        }\r\n\r\n        return (values, arr.length);\r\n    }\r\n}\r\n",
  "sourcePath": "/home/christianvari/github/EthStart-contracts/contracts/CampaignFactory.sol",
  "compiler": {
    "name": "solc",
    "version": "0.8.2+commit.661d1103.Emscripten.clang"
  },
  "schemaVersion": "3.4.3",
  "updatedAt": "2021-10-08T12:12:45.451Z",
  "networkType": "ethereum",
  "devdoc": {
    "kind": "dev",
    "methods": {},
    "version": 1
  },
  "userdoc": {
    "kind": "user",
    "methods": {},
    "version": 1
  }
}