{
  "contractName": "Campaign",
  "abi": [
    {
      "inputs": [
        {
          "internalType": "address",
          "name": "_manager",
          "type": "address"
        },
        {
          "internalType": "string",
          "name": "_title",
          "type": "string"
        },
        {
          "internalType": "string",
          "name": "_imageURL",
          "type": "string"
        },
        {
          "internalType": "string",
          "name": "_description",
          "type": "string"
        },
        {
          "internalType": "uint256",
          "name": "_tokenMaxSupply",
          "type": "uint256"
        },
        {
          "internalType": "string",
          "name": "_tokenName",
          "type": "string"
        },
        {
          "internalType": "string",
          "name": "_tokenSymbol",
          "type": "string"
        },
        {
          "internalType": "uint256",
          "name": "_endBlock",
          "type": "uint256"
        }
      ],
      "stateMutability": "nonpayable",
      "type": "constructor"
    },
    {
      "inputs": [],
      "name": "description",
      "outputs": [
        {
          "internalType": "string",
          "name": "",
          "type": "string"
        }
      ],
      "stateMutability": "view",
      "type": "function"
    },
    {
      "inputs": [],
      "name": "endBlock",
      "outputs": [
        {
          "internalType": "uint256",
          "name": "",
          "type": "uint256"
        }
      ],
      "stateMutability": "view",
      "type": "function"
    },
    {
      "inputs": [],
      "name": "governanceAddress",
      "outputs": [
        {
          "internalType": "address",
          "name": "",
          "type": "address"
        }
      ],
      "stateMutability": "view",
      "type": "function"
    },
    {
      "inputs": [],
      "name": "imageURL",
      "outputs": [
        {
          "internalType": "string",
          "name": "",
          "type": "string"
        }
      ],
      "stateMutability": "view",
      "type": "function"
    },
    {
      "inputs": [],
      "name": "initiator",
      "outputs": [
        {
          "internalType": "address",
          "name": "",
          "type": "address"
        }
      ],
      "stateMutability": "view",
      "type": "function"
    },
    {
      "inputs": [],
      "name": "isCampaignFunded",
      "outputs": [
        {
          "internalType": "bool",
          "name": "",
          "type": "bool"
        }
      ],
      "stateMutability": "view",
      "type": "function"
    },
    {
      "inputs": [],
      "name": "manager",
      "outputs": [
        {
          "internalType": "address",
          "name": "",
          "type": "address"
        }
      ],
      "stateMutability": "view",
      "type": "function"
    },
    {
      "inputs": [],
      "name": "title",
      "outputs": [
        {
          "internalType": "string",
          "name": "",
          "type": "string"
        }
      ],
      "stateMutability": "view",
      "type": "function"
    },
    {
      "inputs": [],
      "name": "tokenAddress",
      "outputs": [
        {
          "internalType": "address",
          "name": "",
          "type": "address"
        }
      ],
      "stateMutability": "view",
      "type": "function"
    },
    {
      "inputs": [],
      "name": "tokenMaxSupply",
      "outputs": [
        {
          "internalType": "uint256",
          "name": "",
          "type": "uint256"
        }
      ],
      "stateMutability": "view",
      "type": "function"
    },
    {
      "inputs": [],
      "name": "tokenName",
      "outputs": [
        {
          "internalType": "string",
          "name": "",
          "type": "string"
        }
      ],
      "stateMutability": "view",
      "type": "function"
    },
    {
      "inputs": [],
      "name": "tokenSymbol",
      "outputs": [
        {
          "internalType": "string",
          "name": "",
          "type": "string"
        }
      ],
      "stateMutability": "view",
      "type": "function"
    },
    {
      "inputs": [],
      "name": "contribute",
      "outputs": [],
      "stateMutability": "payable",
      "type": "function"
    },
    {
      "inputs": [
        {
          "internalType": "address",
          "name": "account",
          "type": "address"
        }
      ],
      "name": "contributerBalanceOf",
      "outputs": [
        {
          "internalType": "uint256",
          "name": "",
          "type": "uint256"
        }
      ],
      "stateMutability": "view",
      "type": "function"
    },
    {
      "inputs": [],
      "name": "finalizeCrowdfunding",
      "outputs": [],
      "stateMutability": "nonpayable",
      "type": "function"
    },
    {
      "inputs": [],
      "name": "redeem",
      "outputs": [],
      "stateMutability": "nonpayable",
      "type": "function"
    }
  ],
  "bytecode": "0x60806040523480156200001157600080fd5b506040516200548c3803806200548c83398101604081905262000034916200028d565b6000600654116200005557634e487b7160e01b600052600160045260246000fd5b600080546001600160a01b0319163317905586516200007c9060019060208a019062000117565b5085516200009290600390602089019062000117565b508451620000a890600290602088019062000117565b5060068490558251620000c390600490602086019062000117565b508151620000d990600590602085019062000117565b50600780546001600160a01b0319166001600160a01b03999099169890981790975550505060089390935550506009805460ff1916905550620003e2565b82805462000125906200038f565b90600052602060002090601f01602090048101928262000149576000855562000194565b82601f106200016457805160ff191683800117855562000194565b8280016001018555821562000194579182015b828111156200019457825182559160200191906001019062000177565b50620001a2929150620001a6565b5090565b5b80821115620001a25760008155600101620001a7565b80516001600160a01b0381168114620001d557600080fd5b919050565b600082601f830112620001eb578081fd5b81516001600160401b0380821115620002085762000208620003cc565b604051601f8301601f19908116603f01168101908282118183101715620002335762000233620003cc565b816040528381526020925086838588010111156200024f578485fd5b8491505b8382101562000272578582018301518183018401529082019062000253565b838211156200028357848385830101525b9695505050505050565b600080600080600080600080610100898b031215620002aa578384fd5b620002b589620001bd565b60208a01519098506001600160401b0380821115620002d2578586fd5b620002e08c838d01620001da565b985060408b0151915080821115620002f6578586fd5b620003048c838d01620001da565b975060608b01519150808211156200031a578586fd5b620003288c838d01620001da565b965060808b0151955060a08b015191508082111562000345578485fd5b620003538c838d01620001da565b945060c08b015191508082111562000369578384fd5b50620003788b828c01620001da565b92505060e089015190509295985092959890939650565b600281046001821680620003a457607f821691505b60208210811415620003c657634e487b7160e01b600052602260045260246000fd5b50919050565b634e487b7160e01b600052604160045260246000fd5b61509a80620003f26000396000f3fe608060405260043610620000d45760003560e01c8063083c632314620000d95780631ed692c01462000104578063481c6a75146200011e5780634a79d50c14620001595780635708716d14620001805780635c39fcc114620001ba5780636c02a93114620001dc5780637284e41614620001f4578063795053d3146200020c5780637b52b03b146200022e5780637b61c320146200025b5780639d76ea581462000273578063b90497e01462000295578063be040fb014620002ad578063d7bb99ba14620002c5578063f99cc96e14620002cf575b600080fd5b348015620000e657600080fd5b50620000f160085481565b6040519081526020015b60405180910390f35b3480156200011157600080fd5b506200011c620002e7565b005b3480156200012b57600080fd5b5060075462000140906001600160a01b031681565b6040516001600160a01b039091168152602001620000fb565b3480156200016657600080fd5b506200017162000484565b604051620000fb9190620008a8565b3480156200018d57600080fd5b50620000f16200019f366004620007a4565b6001600160a01b03166000908152600b602052604090205490565b348015620001c757600080fd5b5060005462000140906001600160a01b031681565b348015620001e957600080fd5b50620001716200051a565b3480156200020157600080fd5b506200017162000529565b3480156200021957600080fd5b50600d5462000140906001600160a01b031681565b3480156200023b57600080fd5b506009546200024a9060ff1681565b6040519015158152602001620000fb565b3480156200026857600080fd5b506200017162000538565b3480156200028057600080fd5b50600c5462000140906001600160a01b031681565b348015620002a257600080fd5b506200017162000547565b348015620002ba57600080fd5b506200011c62000556565b6200011c620006e1565b348015620002dc57600080fd5b50620000f160065481565b60085443116200030757634e487b7160e01b600052600160045260246000fd5b6000546001600160a01b031633146200033057634e487b7160e01b600052600160045260246000fd5b600060065460046005604051620003479062000788565b620003559392919062000915565b604051809103906000f08015801562000372573d6000803e3d6000fd5b50600c80546001600160a01b0319166001600160a01b0383161790556040519091506000908290600190620003a79062000796565b620003b49291906200087a565b604051809103906000f080158015620003d1573d6000803e3d6000fd5b50600d80546001600160a01b0319166001600160a01b03838116919091179091556006549192508316906329322e05906200040f9060049062000969565b6007546040516001600160e01b031960e085901b1681526200043f92916001600160a01b031690600401620008fe565b600060405180830381600087803b1580156200045a57600080fd5b505af11580156200046f573d6000803e3d6000fd5b50506009805460ff1916600117905550505050565b600180546200049390620009ac565b80601f0160208091040260200160405190810160405280929190818152602001828054620004c190620009ac565b8015620005125780601f10620004e65761010080835404028352916020019162000512565b820191906000526020600020905b815481529060010190602001808311620004f457829003601f168201915b505050505081565b600480546200049390620009ac565b600280546200049390620009ac565b600580546200049390620009ac565b600380546200049390620009ac565b60085443116200057657634e487b7160e01b600052600160045260246000fd5b60095460ff16156200062857336000908152600b6020526040902054806200059d57600080fd5b600c546006546001600160a01b03909116906329322e0590620005c1478562000969565b620005cd91906200098a565b336040518363ffffffff1660e01b8152600401620005ed929190620008fe565b600060405180830381600087803b1580156200060857600080fd5b505af11580156200061d573d6000803e3d6000fd5b5050505050620006cf565b336000818152600b602052604080822054905190929083908381818185875af1925050503d80600081146200067a576040519150601f19603f3d011682016040523d82523d6000602084013e6200067f565b606091505b5050905080620006cc5760405162461bcd60e51b81526020600482015260146024820152732330b4b632b2103a379039b2b7321022ba3432b960611b604482015260640160405180910390fd5b50505b336000908152600b6020526040812055565b6008544311156200070257634e487b7160e01b600052600160045260246000fd5b600034116200071057600080fd5b336000908152600b6020526040902054806200076957600a80546001810182556000919091527fc65a7bb8d6351c1cf70c95a316cc6a92839c986682d98bc35f958f4883f9d2a80180546001600160a01b031916331790555b6200077534826200094e565b336000908152600b602052604090205550565b6120de8062000a0083390190565b6125878062002ade83390190565b600060208284031215620007b6578081fd5b81356001600160a01b0381168114620007cd578182fd5b9392505050565b805460009060028104600180831680620007ef57607f831692505b60208084108214156200081057634e487b7160e01b86526022600452602486fd5b838852602088018280156200082e576001811462000840576200086d565b60ff198716825282820197506200086d565b60008981526020902060005b8781101562000867578154848201529086019084016200084c565b83019850505b5050505050505092915050565b6001600160a01b0383168152604060208201819052600090620008a090830184620007d4565b949350505050565b6000602080835283518082850152825b81811015620008d657858101830151858201604001528201620008b8565b81811115620008e85783604083870101525b50601f01601f1916929092016040019392505050565b9182526001600160a01b0316602082015260400190565b600084825260606020830152620009306060830185620007d4565b8281036040840152620009448185620007d4565b9695505050505050565b60008219821115620009645762000964620009e9565b500190565b6000826200098557634e487b7160e01b81526012600452602481fd5b500490565b6000816000190483118215151615620009a757620009a7620009e9565b500290565b600281046001821680620009c157607f821691505b60208210811415620009e357634e487b7160e01b600052602260045260246000fd5b50919050565b634e487b7160e01b600052601160045260246000fdfe6101406040527f6e71edae12b1b97f4d1f60370fef10105fa2faae0126114a169c64845d6126c9610120523480156200003757600080fd5b50604051620020de380380620020de8339810160408190526200005a91620002a9565b8180604051806040016040528060018152602001603160f81b815250848481600390805190602001906200009092919062000150565b508051620000a690600490602084019062000150565b5050825160209384012082519284019290922060c083815260e08290524660a0818152604080517f8b73c3c69bb8fe3d512ecc4cf759cc79239f7b179b0ffacaa9a75d522b39400f818a01819052818301989098526060810195909552608080860193909352308583015280518086039092018252939092019092528051940193909320909252610100525050600980546001600160a01b031916331790555050600a556200036d565b8280546200015e906200031a565b90600052602060002090601f016020900481019282620001825760008555620001cd565b82601f106200019d57805160ff1916838001178555620001cd565b82800160010185558215620001cd579182015b82811115620001cd578251825591602001919060010190620001b0565b50620001db929150620001df565b5090565b5b80821115620001db5760008155600101620001e0565b600082601f83011262000207578081fd5b81516001600160401b038082111562000224576200022462000357565b604051601f8301601f19908116603f011681019082821181831017156200024f576200024f62000357565b816040528381526020925086838588010111156200026b578485fd5b8491505b838210156200028e57858201830151818301840152908201906200026f565b838211156200029f57848385830101525b9695505050505050565b600080600060608486031215620002be578283fd5b835160208501519093506001600160401b0380821115620002dd578384fd5b620002eb87838801620001f6565b9350604086015191508082111562000301578283fd5b506200031086828701620001f6565b9150509250925092565b6002810460018216806200032f57607f821691505b602082108114156200035157634e487b7160e01b600052602260045260246000fd5b50919050565b634e487b7160e01b600052604160045260246000fd5b60805160a05160c05160e0516101005161012051611d21620003bd600039600061097401526000610e6301526000610eb201526000610e8d01526000610e0f01526000610e380152611d216000f3fe608060405234801561001057600080fd5b50600436106101335760003560e01c806306fdde0314610138578063095ea7b31461015657806311765b271461017957806318160ddd146101a457806323b872dd146101b657806329322e05146101c9578063313ce567146101de5780633644e515146101ed57806339509351146101f55780633a46b1a8146102085780634051ddac1461021b578063587cde1e146102335780635c19a95c146102465780636fcfff451461025957806370a08231146102815780637ecebe00146102945780638e539e8c146102a757806395d89b41146102ba5780639ab24eb0146102c2578063a457c2d7146102d5578063a9059cbb146102e8578063c3cda520146102fb578063d505accf1461030e578063dd62ed3e14610321578063f1127ed81461035a575b600080fd5b610140610397565b60405161014d9190611b8b565b60405180910390f35b610169610164366004611a48565b61042a565b604051901515815260200161014d565b60095461018c906001600160a01b031681565b6040516001600160a01b03909116815260200161014d565b6002545b60405190815260200161014d565b6101696101c43660046119a4565b610440565b6101dc6101d7366004611b1e565b6104ef565b005b6040516012815260200161014d565b6101a8610525565b610169610203366004611a48565b610534565b6101a8610216366004611a48565b610570565b6102236105ba565b60405161014d9493929190611bd5565b61018c610241366004611958565b6105ea565b6101dc610254366004611958565b61060b565b61026c610267366004611958565b610618565b60405163ffffffff909116815260200161014d565b6101a861028f366004611958565b610640565b6101a86102a2366004611958565b61065b565b6101a86102b5366004611b06565b610679565b6101406106a5565b6101a86102d0366004611958565b6106b4565b6101696102e3366004611a48565b610748565b6101696102f6366004611a48565b6107e1565b6101dc610309366004611a71565b6107ee565b6101dc61031c3660046119df565b610920565b6101a861032f366004611972565b6001600160a01b03918216600090815260016020908152604080832093909416825291909152205490565b61036d610368366004611ac8565b610a84565b60408051825163ffffffff1681526020928301516001600160e01b0316928101929092520161014d565b6060600380546103a690611c60565b80601f01602080910402602001604051908101604052809291908181526020018280546103d290611c60565b801561041f5780601f106103f45761010080835404028352916020019161041f565b820191906000526020600020905b81548152906001019060200180831161040257829003601f168201915b505050505090505b90565b6000610437338484610b15565b50600192915050565b600061044d848484610c39565b6001600160a01b0384166000908152600160209081526040808320338452909152902054828110156104d75760405162461bcd60e51b815260206004820152602860248201527f45524332303a207472616e7366657220616d6f756e74206578636565647320616044820152676c6c6f77616e636560c01b60648201526084015b60405180910390fd5b6104e48533858403610b15565b506001949350505050565b6009546001600160a01b0316331461051757634e487b7160e01b600052600160045260246000fd5b6105218183610e01565b5050565b600061052f610e0b565b905090565b3360008181526001602090815260408083206001600160a01b0387168452909152812054909161043791859061056b908690611c11565b610b15565b60004382106105915760405162461bcd60e51b81526004016104ce90611b9e565b6001600160a01b03831660009081526007602052604090206105b39083610f02565b9392505050565b6000806060806105c960025490565b600a546105d4610397565b6105dc6106a5565b935093509350935090919293565b6001600160a01b03808216600090815260066020526040902054165b919050565b6106153382610fda565b50565b6001600160a01b03811660009081526007602052604081205461063a9061105a565b92915050565b6001600160a01b031660009081526020819052604090205490565b6001600160a01b03811660009081526005602052604081205461063a565b600043821061069a5760405162461bcd60e51b81526004016104ce90611b9e565b61063a600883610f02565b6060600480546103a690611c60565b6001600160a01b0381166000908152600760205260408120548015610735576001600160a01b03831660009081526007602052604090206106f6600183611c49565b8154811061071457634e487b7160e01b600052603260045260246000fd5b600091825260209091200154600160201b90046001600160e01b0316610738565b60005b6001600160e01b03169392505050565b3360009081526001602090815260408083206001600160a01b0386168452909152812054828110156107ca5760405162461bcd60e51b815260206004820152602560248201527f45524332303a2064656372656173656420616c6c6f77616e63652062656c6f77604482015264207a65726f60d81b60648201526084016104ce565b6107d73385858403610b15565b5060019392505050565b6000610437338484610c39565b8342111561083e5760405162461bcd60e51b815260206004820152601d60248201527f4552433230566f7465733a207369676e6174757265206578706972656400000060448201526064016104ce565b604080517fe48329057bfd03d55e49b547132e39cffd9c1820ad7b9d4c5307691425d15adf60208201526001600160a01b0388169181019190915260608101869052608081018590526000906108b8906108b09060a001604051602081830303815290604052805190602001206110c3565b858585611111565b90506108c381611139565b861461090d5760405162461bcd60e51b81526020600482015260196024820152784552433230566f7465733a20696e76616c6964206e6f6e636560381b60448201526064016104ce565b6109178188610fda565b50505050505050565b834211156109705760405162461bcd60e51b815260206004820152601d60248201527f45524332305065726d69743a206578706972656420646561646c696e6500000060448201526064016104ce565b60007f000000000000000000000000000000000000000000000000000000000000000088888861099f8c611139565b6040805160208101969096526001600160a01b0394851690860152929091166060840152608083015260a082015260c0810186905260e00160405160208183030381529060405280519060200120905060006109fa826110c3565b90506000610a0a82878787611111565b9050896001600160a01b0316816001600160a01b031614610a6d5760405162461bcd60e51b815260206004820152601e60248201527f45524332305065726d69743a20696e76616c6964207369676e6174757265000060448201526064016104ce565b610a788a8a8a610b15565b50505050505050505050565b60408051808201909152600080825260208201526001600160a01b0383166000908152600760205260409020805463ffffffff8416908110610ad657634e487b7160e01b600052603260045260246000fd5b60009182526020918290206040805180820190915291015463ffffffff81168252600160201b90046001600160e01b0316918101919091529392505050565b6001600160a01b038316610b775760405162461bcd60e51b8152602060048201526024808201527f45524332303a20617070726f76652066726f6d20746865207a65726f206164646044820152637265737360e01b60648201526084016104ce565b6001600160a01b038216610bd85760405162461bcd60e51b815260206004820152602260248201527f45524332303a20617070726f766520746f20746865207a65726f206164647265604482015261737360f01b60648201526084016104ce565b6001600160a01b0383811660008181526001602090815260408083209487168084529482529182902085905590518481527f8c5be1e5ebec7d5bd14f71427d1e84f3dd0314c0f7b2291e5b200ac8c7c3b925910160405180910390a3505050565b6001600160a01b038316610c9d5760405162461bcd60e51b815260206004820152602560248201527f45524332303a207472616e736665722066726f6d20746865207a65726f206164604482015264647265737360d81b60648201526084016104ce565b6001600160a01b038216610cff5760405162461bcd60e51b815260206004820152602360248201527f45524332303a207472616e7366657220746f20746865207a65726f206164647260448201526265737360e81b60648201526084016104ce565b6001600160a01b03831660009081526020819052604090205481811015610d775760405162461bcd60e51b815260206004820152602660248201527f45524332303a207472616e7366657220616d6f756e7420657863656564732062604482015265616c616e636560d01b60648201526084016104ce565b6001600160a01b03808516600090815260208190526040808220858503905591851681529081208054849290610dae908490611c11565b92505081905550826001600160a01b0316846001600160a01b0316600080516020611cac83398151915284604051610de891815260200190565b60405180910390a3610dfb848484611166565b50505050565b6105218282611171565b60007f0000000000000000000000000000000000000000000000000000000000000000461415610e5c57507f0000000000000000000000000000000000000000000000000000000000000000610427565b50604080517f00000000000000000000000000000000000000000000000000000000000000006020808301919091527f0000000000000000000000000000000000000000000000000000000000000000828401527f000000000000000000000000000000000000000000000000000000000000000060608301524660808301523060a0808401919091528351808403909101815260c09092019092528051910120610427565b8154600090815b81811015610f74576000610f1d82846111fb565b905084868281548110610f4057634e487b7160e01b600052603260045260246000fd5b60009182526020909120015463ffffffff161115610f6057809250610f6e565b610f6b816001611c11565b91505b50610f09565b8115610fc55784610f86600184611c49565b81548110610fa457634e487b7160e01b600052603260045260246000fd5b600091825260209091200154600160201b90046001600160e01b0316610fc8565b60005b6001600160e01b031695945050505050565b6000610fe5836105ea565b90506000610ff284610640565b6001600160a01b0385811660008181526006602052604080822080546001600160a01b031916898616908117909155905194955093928616927f3134e8a2e6d97e929a7e54011ea5485d7d196dd5f0ba4d4ef95803e8e3fc257f9190a4610dfb828483611216565b600063ffffffff8211156110bf5760405162461bcd60e51b815260206004820152602660248201527f53616665436173743a2076616c756520646f65736e27742066697420696e203360448201526532206269747360d01b60648201526084016104ce565b5090565b600061063a6110d0610e0b565b8360405161190160f01b6020820152602281018390526042810182905260009060620160405160208183030381529060405280519060200120905092915050565b60008060006111228787878761132f565b9150915061112f81611412565b5095945050505050565b6001600160a01b03811660009081526005602052604090208054600181018255905b50919050565b505050565b611161838383611610565b61117b828261162b565b6002546001600160e01b0310156111ed5760405162461bcd60e51b815260206004820152603060248201527f4552433230566f7465733a20746f74616c20737570706c79207269736b73206f60448201526f766572666c6f77696e6720766f74657360801b60648201526084016104ce565b610dfb60086117008361170c565b600061120a6002848418611c29565b6105b390848416611c11565b816001600160a01b0316836001600160a01b0316141580156112385750600081115b15611161576001600160a01b038316156112b4576001600160a01b03831660009081526007602052604081208190611273906118bb8561170c565b91509150846001600160a01b0316600080516020611ccc83398151915283836040516112a9929190918252602082015260400190565b60405180910390a250505b6001600160a01b03821615611161576001600160a01b038216600090815260076020526040812081906112ea906117008561170c565b91509150836001600160a01b0316600080516020611ccc8339815191528383604051611320929190918252602082015260400190565b60405180910390a25050505050565b6000806fa2a8918ca85bafe22016d0b997e4df60600160ff1b0383111561135c5750600090506003611409565b8460ff16601b1415801561137457508460ff16601c14155b156113855750600090506004611409565b6040805160008082526020820180845289905260ff881692820192909252606081018690526080810185905260019060a0016020604051602081039080840390855afa1580156113d9573d6000803e3d6000fd5b5050604051601f1901519150506001600160a01b03811661140257600060019250925050611409565b9150600090505b94509492505050565b600081600481111561143457634e487b7160e01b600052602160045260246000fd5b141561143f57610615565b600181600481111561146157634e487b7160e01b600052602160045260246000fd5b14156114aa5760405162461bcd60e51b815260206004820152601860248201527745434453413a20696e76616c6964207369676e617475726560401b60448201526064016104ce565b60028160048111156114cc57634e487b7160e01b600052602160045260246000fd5b141561151a5760405162461bcd60e51b815260206004820152601f60248201527f45434453413a20696e76616c6964207369676e6174757265206c656e6774680060448201526064016104ce565b600381600481111561153c57634e487b7160e01b600052602160045260246000fd5b14156115955760405162461bcd60e51b815260206004820152602260248201527f45434453413a20696e76616c6964207369676e6174757265202773272076616c604482015261756560f01b60648201526084016104ce565b60048160048111156115b757634e487b7160e01b600052602160045260246000fd5b14156106155760405162461bcd60e51b815260206004820152602260248201527f45434453413a20696e76616c6964207369676e6174757265202776272076616c604482015261756560f01b60648201526084016104ce565b61116161161c846105ea565b611625846105ea565b83611216565b6001600160a01b0382166116815760405162461bcd60e51b815260206004820152601f60248201527f45524332303a206d696e7420746f20746865207a65726f20616464726573730060448201526064016104ce565b80600260008282546116939190611c11565b90915550506001600160a01b038216600090815260208190526040812080548392906116c0908490611c11565b90915550506040518181526001600160a01b03831690600090600080516020611cac8339815191529060200160405180910390a361052160008383611166565b60006105b38284611c11565b8254600090819080156117645785611725600183611c49565b8154811061174357634e487b7160e01b600052603260045260246000fd5b600091825260209091200154600160201b90046001600160e01b0316611767565b60005b6001600160e01b0316925061178083858763ffffffff16565b91506000811180156117cc5750438661179a600184611c49565b815481106117b857634e487b7160e01b600052603260045260246000fd5b60009182526020909120015463ffffffff16145b1561183a576117da826118c7565b866117e6600184611c49565b8154811061180457634e487b7160e01b600052603260045260246000fd5b9060005260206000200160000160046101000a8154816001600160e01b0302191690836001600160e01b031602179055506118b2565b85604051806040016040528061184f4361105a565b63ffffffff168152602001611863856118c7565b6001600160e01b03908116909152825460018101845560009384526020938490208351910180549390940151909116600160201b0263ffffffff91821663ffffffff1990931692909217161790555b50935093915050565b60006105b38284611c49565b60006001600160e01b038211156110bf5760405162461bcd60e51b815260206004820152602760248201527f53616665436173743a2076616c756520646f65736e27742066697420696e20326044820152663234206269747360c81b60648201526084016104ce565b80356001600160a01b038116811461060657600080fd5b803560ff8116811461060657600080fd5b600060208284031215611969578081fd5b6105b382611930565b60008060408385031215611984578081fd5b61198d83611930565b915061199b60208401611930565b90509250929050565b6000806000606084860312156119b8578081fd5b6119c184611930565b92506119cf60208501611930565b9150604084013590509250925092565b600080600080600080600060e0888a0312156119f9578283fd5b611a0288611930565b9650611a1060208901611930565b95506040880135945060608801359350611a2c60808901611947565b925060a0880135915060c0880135905092959891949750929550565b60008060408385031215611a5a578182fd5b611a6383611930565b946020939093013593505050565b60008060008060008060c08789031215611a89578182fd5b611a9287611930565b95506020870135945060408701359350611aae60608801611947565b92506080870135915060a087013590509295509295509295565b60008060408385031215611ada578182fd5b611ae383611930565b9150602083013563ffffffff81168114611afb578182fd5b809150509250929050565b600060208284031215611b17578081fd5b5035919050565b60008060408385031215611b30578182fd5b8235915061199b60208401611930565b60008151808452815b81811015611b6557602081850181015186830182015201611b49565b81811115611b765782602083870101525b50601f01601f19169290920160200192915050565b6000602082526105b36020830184611b40565b6020808252601f908201527f4552433230566f7465733a20626c6f636b206e6f7420796574206d696e656400604082015260600190565b600085825284602083015260806040830152611bf46080830185611b40565b8281036060840152611c068185611b40565b979650505050505050565b60008219821115611c2457611c24611c95565b500190565b600082611c4457634e487b7160e01b81526012600452602481fd5b500490565b600082821015611c5b57611c5b611c95565b500390565b600281046001821680611c7457607f821691505b6020821081141561115b57634e487b7160e01b600052602260045260246000fd5b634e487b7160e01b600052601160045260246000fdfeddf252ad1be2c89b69c2b068fc378daa952ba7f163c4a11628f55a4df523b3efdec2bacdd2f05b59de34da9b523dff8be42e5e38e818c82fdb0bae774387a724a264697066735822122049e8bd56e91d3b1d79b851b57cddfae463b26e76155264fcb72d656113a0a44564736f6c634300080200336101406040523480156200001257600080fd5b50604051620025873803806200258783398101604081905262000035916200028d565b6033828280620000596040805180820190915260018152603160f81b602082015290565b815160209283012081519183019190912060c082815260e08290524660a0818152604080517f8b73c3c69bb8fe3d512ecc4cf759cc79239f7b179b0ffacaa9a75d522b39400f818901819052818301979097526060810195909552608080860193909352308583015280518086039092018252939092019092528051908401209052610100528151620000f39160009190840190620001e7565b505060601b6001600160601b0319166101205262000111816200011a565b505050620003d9565b6064811115620001a25760405162461bcd60e51b815260206004820152604360248201527f476f7665726e6f72566f74657351756f72756d4672616374696f6e3a2071756f60448201527f72756d4e756d657261746f72206f7665722071756f72756d44656e6f6d696e616064820152623a37b960e91b608482015260a40160405180910390fd5b600380549082905560408051828152602081018490527f0553476bf02ef2726e8ce5ced78d63e26e602e4a2257b1f559418e24b4633997910160405180910390a15050565b828054620001f59062000386565b90600052602060002090601f01602090048101928262000219576000855562000264565b82601f106200023457805160ff191683800117855562000264565b8280016001018555821562000264579182015b828111156200026457825182559160200191906001019062000247565b506200027292915062000276565b5090565b5b8082111562000272576000815560010162000277565b60008060408385031215620002a0578182fd5b82516001600160a01b0381168114620002b7578283fd5b602084810151919350906001600160401b0380821115620002d6578384fd5b818601915086601f830112620002ea578384fd5b815181811115620002ff57620002ff620003c3565b604051601f8201601f19908116603f011681019083821181831017156200032a576200032a620003c3565b81604052828152898684870101111562000342578687fd5b8693505b8284101562000365578484018601518185018701529285019262000346565b828411156200037657868684830101525b8096505050505050509250929050565b6002810460018216806200039b57607f821691505b60208210811415620003bd57634e487b7160e01b600052602260045260246000fd5b50919050565b634e487b7160e01b600052604160045260246000fd5b60805160a05160c05160e051610100516101205160601c61214d6200043a600039600081816104a10152818161110a01526111a3015260006112ca01526000611319015260006112f4015260006112760152600061129f015261214d6000f3fe60806040526004361061011b5760003560e01c806301ffc9a71461012057806302a251a31461015557806306f3f9e61461017857806306fdde031461019a5780632656227d146101bc5780632d63f693146101cf5780633932abb1146101ef5780633bccf4fd146102035780633e4f49e6146102235780634385963214610250578063544ffc9c1461029a57806354fd4d50146102f4578063567813881461031e5780637b3c71d31461033e5780637d5e81e21461035e57806397c3d3341461037e578063a7713a7014610392578063c01f9e37146103a7578063c59057e4146103c7578063dd4e2ba5146103e7578063deaaa7cc1461042d578063eb9019d41461044f578063f8ce560a1461046f578063fc0c546a1461048f575b600080fd5b34801561012c57600080fd5b5061014061013b366004611af4565b6104db565b60405190151581526020015b60405180910390f35b34801561016157600080fd5b5061016a610514565b60405190815260200161014c565b34801561018457600080fd5b50610198610193366004611b1c565b61051b565b005b3480156101a657600080fd5b506101af610576565b60405161014c9190611de7565b61016a6101ca3660046119af565b610608565b3480156101db57600080fd5b5061016a6101ea366004611b1c565b610731565b3480156101fb57600080fd5b50600161016a565b34801561020f57600080fd5b5061016a61021e366004611c1a565b610768565b34801561022f57600080fd5b5061024361023e366004611b1c565b6107ea565b60405161014c9190611dbf565b34801561025c57600080fd5b5061014061026b366004611b4c565b60008281526002602090815260408083206001600160a01b038516845260030190915290205460ff1692915050565b3480156102a657600080fd5b506102d96102b5366004611b1c565b60008181526002602081905260409091208054600182015491909201549193909250565b6040805193845260208401929092529082015260600161014c565b34801561030057600080fd5b506040805180820190915260018152603160f81b60208201526101af565b34801561032a57600080fd5b5061016a610339366004611b77565b610953565b34801561034a57600080fd5b5061016a610359366004611b99565b61097c565b34801561036a57600080fd5b5061016a610379366004611a3a565b6109ce565b34801561038a57600080fd5b50606461016a565b34801561039e57600080fd5b5060035461016a565b3480156103b357600080fd5b5061016a6103c2366004611b1c565b610bf4565b3480156103d357600080fd5b5061016a6103e23660046119af565b610c23565b3480156103f357600080fd5b506040805180820190915260208082527f737570706f72743d627261766f2671756f72756d3d666f722c6162737461696e908201526101af565b34801561043957600080fd5b5061016a6000805160206120d183398151915281565b34801561045b57600080fd5b5061016a61046a366004611986565b610c5d565b34801561047b57600080fd5b5061016a61048a366004611b1c565b610c70565b34801561049b57600080fd5b506104c37f000000000000000000000000000000000000000000000000000000000000000081565b6040516001600160a01b03909116815260200161014c565b60006001600160e01b0319821663bf26d89760e01b148061050c57506301ffc9a760e01b6001600160e01b03198316145b90505b919050565b61b2fa5b90565b33301461056a5760405162461bcd60e51b8152602060048201526018602482015277476f7665726e6f723a206f6e6c79476f7665726e616e636560401b60448201526064015b60405180910390fd5b61057381610c7b565b50565b60606000805461058590612054565b80601f01602080910402602001604051908101604052809291908181526020018280546105b190612054565b80156105fe5780601f106105d3576101008083540402835291602001916105fe565b820191906000526020600020905b8154815290600101906020018083116105e157829003601f168201915b5050505050905090565b60008061061786868686610c23565b90506000610624826107ea565b9050600481600781111561064857634e487b7160e01b600052602160045260246000fd5b14806106735750600581600781111561067157634e487b7160e01b600052602160045260246000fd5b145b6106c95760405162461bcd60e51b815260206004820152602160248201527f476f7665726e6f723a2070726f706f73616c206e6f74207375636365737366756044820152601b60fa1b6064820152608401610561565b600082815260016020818152604092839020600201805460ff191690921790915590518381527f712ae1383f79ac853f8d882153778e0260ef8f03b504e2866e0593e04d2b291f910160405180910390a16107278288888888610d43565b5095945050505050565b60008181526001602090815260408083208151928301909152546001600160401b0316908190525b6001600160401b031692915050565b604080516000805160206120d1833981519152602082015290810186905260ff8516606082015260009081906107c2906107ba9060800160405160208183030381529060405280519060200120610e6c565b868686610eba565b90506107df87828860405180602001604052806000815250610ed8565b979650505050505050565b6000818152600160208181526040808420815160a08101835281546001600160401b0390811660808301908152825283518086018552958301541685529283019390935260029092015460ff8082161580159484019490945261010090910416151560608201529061086057600791505061050f565b80606001511561087457600291505061050f565b805151436001600160401b03909116111561089357600091505061050f565b602081015151436001600160401b0390911611156108b557600191505061050f565b6108c28160200151610ff1565b15610905576108d083611020565b80156108ef575060008381526002602052604090208054600190910154115b6108fa5760036108fd565b60045b91505061050f565b60405162461bcd60e51b815260206004820152601d60248201527f476f7665726e6f723a20756e6b6e6f776e2070726f706f73616c2069640000006044820152606401610561565b50919050565b60008033905061097484828560405180602001604052806000815250610ed8565b949350505050565b6000803390506109c486828787878080601f016020809104026020016040519081016040528093929190818152602001838380828437600092019190915250610ed892505050565b9695505050505050565b6000806109e48686868680519060200120610c23565b90508451865114610a075760405162461bcd60e51b815260040161056190611dfa565b8351865114610a285760405162461bcd60e51b815260040161056190611dfa565b6000865111610a745760405162461bcd60e51b815260206004820152601860248201527711dbdd995c9b9bdc8e88195b5c1d1e481c1c9bdc1bdcd85b60421b6044820152606401610561565b600081815260016020908152604091829020825191820190925281546001600160401b03169081905215610af45760405162461bcd60e51b815260206004820152602160248201527f476f7665726e6f723a2070726f706f73616c20616c72656164792065786973746044820152607360f81b6064820152608401610561565b6000610b0160015b611058565b610b0a43611058565b610b149190611fba565b90506000610b23610afc610514565b610b2d9083611fba565b9050610b3983836110c4565b610b4660018401826110c4565b7f7d84a6263ae0d98d3329bd7b46bb4e8d6f98cd35a7adb45c274c8b7fd5ebd5e084338b8b8d516001600160401b03811115610b9257634e487b7160e01b600052604160045260246000fd5b604051908082528060200260200182016040528015610bc557816020015b6060815260200190600190039081610bb05790505b508c88888e604051610bdf99989796959493929190611e3b565b60405180910390a15091979650505050505050565b60008181526001602081815260408084208151928301909152909101546001600160401b031690819052610759565b600084848484604051602001610c3c9493929190611d74565b60408051601f19818403018152919052805160209091012095945050505050565b6000610c6983836110e1565b9392505050565b600061050c82611186565b6064811115610cfe5760405162461bcd60e51b815260206004820152604360248201527f476f7665726e6f72566f74657351756f72756d4672616374696f6e3a2071756f60448201527f72756d4e756d657261746f72206f7665722071756f72756d44656e6f6d696e616064820152623a37b960e91b608482015260a401610561565b600380549082905560408051828152602081018490527f0553476bf02ef2726e8ce5ced78d63e26e602e4a2257b1f559418e24b4633997910160405180910390a15050565b60006040518060600160405280602781526020016120f160279139905060005b8551811015610e6357600080878381518110610d8f57634e487b7160e01b600052603260045260246000fd5b60200260200101516001600160a01b0316878481518110610dc057634e487b7160e01b600052603260045260246000fd5b6020026020010151878581518110610de857634e487b7160e01b600052603260045260246000fd5b6020026020010151604051610dfd9190611d58565b60006040518083038185875af1925050503d8060008114610e3a576040519150601f19603f3d011682016040523d82523d6000602084013e610e3f565b606091505b5091509150610e4f828286611239565b50505080610e5c90612089565b9050610d63565b50505050505050565b600061050c610e79611272565b8360405161190160f01b6020820152602281018390526042810182905260009060620160405160208183030381529060405280519060200120905092915050565b6000806000610ecb87878787611369565b915091506107278161144c565b6000848152600160208190526040822090610ef2876107ea565b6007811115610f1157634e487b7160e01b600052602160045260246000fd5b14610f6a5760405162461bcd60e51b815260206004820152602360248201527f476f7665726e6f723a20766f7465206e6f742063757272656e746c792061637460448201526269766560e81b6064820152608401610561565b604080516020810190915281546001600160401b031690819052600090610f92908790610c5d565b9050610fa08787878461164a565b856001600160a01b03167fb8e138887d0aa13bab447e82de9d5c1777041ecd21ca36ba824ff1e6c07ddda488878488604051610fdf9493929190611f27565b60405180910390a29695505050505050565b600061100682516001600160401b0316151590565b801561050c57505051436001600160401b03909116111590565b600081815260026020819052604082209081015460018201546110439190611fa2565b61104f61048a85610731565b11159392505050565b60006001600160401b038211156110c05760405162461bcd60e51b815260206004820152602660248201527f53616665436173743a2076616c756520646f65736e27742066697420696e203660448201526534206269747360d01b6064820152608401610561565b5090565b81546001600160401b0319166001600160401b0391909116179055565b604051630748d63560e31b81526001600160a01b038381166004830152602482018390526000917f000000000000000000000000000000000000000000000000000000000000000090911690633a46b1a89060440160206040518083038186803b15801561114e57600080fd5b505afa158015611162573d6000803e3d6000fd5b505050506040513d601f19601f82011682018060405250810190610c699190611b34565b60006064600354604051632394e7a360e21b8152600481018590527f00000000000000000000000000000000000000000000000000000000000000006001600160a01b031690638e539e8c9060240160206040518083038186803b1580156111ed57600080fd5b505afa158015611201573d6000803e3d6000fd5b505050506040513d601f19601f820116820180604052508101906112259190611b34565b61122f9190612005565b61050c9190611fe5565b60608315611248575081610c69565b8251156112585782518084602001fd5b8160405162461bcd60e51b81526004016105619190611de7565b60007f00000000000000000000000000000000000000000000000000000000000000004614156112c357507f0000000000000000000000000000000000000000000000000000000000000000610518565b50604080517f00000000000000000000000000000000000000000000000000000000000000006020808301919091527f0000000000000000000000000000000000000000000000000000000000000000828401527f000000000000000000000000000000000000000000000000000000000000000060608301524660808301523060a0808401919091528351808403909101815260c09092019092528051910120610518565b6000806fa2a8918ca85bafe22016d0b997e4df60600160ff1b038311156113965750600090506003611443565b8460ff16601b141580156113ae57508460ff16601c14155b156113bf5750600090506004611443565b6040805160008082526020820180845289905260ff881692820192909252606081018690526080810185905260019060a0016020604051602081039080840390855afa158015611413573d6000803e3d6000fd5b5050604051601f1901519150506001600160a01b03811661143c57600060019250925050611443565b9150600090505b94509492505050565b600081600481111561146e57634e487b7160e01b600052602160045260246000fd5b141561147957610573565b600181600481111561149b57634e487b7160e01b600052602160045260246000fd5b14156114e45760405162461bcd60e51b815260206004820152601860248201527745434453413a20696e76616c6964207369676e617475726560401b6044820152606401610561565b600281600481111561150657634e487b7160e01b600052602160045260246000fd5b14156115545760405162461bcd60e51b815260206004820152601f60248201527f45434453413a20696e76616c6964207369676e6174757265206c656e677468006044820152606401610561565b600381600481111561157657634e487b7160e01b600052602160045260246000fd5b14156115cf5760405162461bcd60e51b815260206004820152602260248201527f45434453413a20696e76616c6964207369676e6174757265202773272076616c604482015261756560f01b6064820152608401610561565b60048160048111156115f157634e487b7160e01b600052602160045260246000fd5b14156105735760405162461bcd60e51b815260206004820152602260248201527f45434453413a20696e76616c6964207369676e6174757265202776272076616c604482015261756560f01b6064820152608401610561565b60008481526002602090815260408083206001600160a01b0387168452600381019092529091205460ff16156116d25760405162461bcd60e51b815260206004820152602760248201527f476f7665726e6f72566f74696e6753696d706c653a20766f746520616c726561604482015266191e4818d85cdd60ca1b6064820152608401610561565b6001600160a01b03841660009081526003820160205260408120805460ff1916600117905560ff168360ff16141561172357818160000160008282546117189190611fa2565b909155506117c99050565b60ff83166001141561174357818160010160008282546117189190611fa2565b60ff83166002141561176357818160020160008282546117189190611fa2565b60405162461bcd60e51b815260206004820152603560248201527f476f7665726e6f72566f74696e6753696d706c653a20696e76616c69642076616044820152746c756520666f7220656e756d20566f74655479706560581b6064820152608401610561565b5050505050565b60006001600160401b038311156117e9576117e96120ba565b6117fc601f8401601f1916602001611f4f565b905082815283838301111561181057600080fd5b828260208301376000602084830101529392505050565b80356001600160a01b038116811461050f57600080fd5b600082601f83011261184e578081fd5b8135602061186361185e83611f7f565b611f4f565b828152818101908583018385028701840188101561187f578586fd5b855b858110156118a45761189282611827565b84529284019290840190600101611881565b5090979650505050505050565b600082601f8301126118c1578081fd5b813560206118d161185e83611f7f565b82815281810190858301855b858110156118a4578135880189603f8201126118f7578788fd5b6119088a87830135604084016117d0565b85525092840192908401906001016118dd565b600082601f83011261192b578081fd5b8135602061193b61185e83611f7f565b8281528181019085830183850287018401881015611957578586fd5b855b858110156118a457813584529284019290840190600101611959565b803560ff8116811461050f57600080fd5b60008060408385031215611998578182fd5b6119a183611827565b946020939093013593505050565b600080600080608085870312156119c4578182fd5b84356001600160401b03808211156119da578384fd5b6119e68883890161183e565b955060208701359150808211156119fb578384fd5b611a078883890161191b565b94506040870135915080821115611a1c578384fd5b50611a29878288016118b1565b949793965093946060013593505050565b60008060008060808587031215611a4f578384fd5b84356001600160401b0380821115611a65578586fd5b611a718883890161183e565b95506020870135915080821115611a86578485fd5b611a928883890161191b565b94506040870135915080821115611aa7578384fd5b611ab3888389016118b1565b93506060870135915080821115611ac8578283fd5b508501601f81018713611ad9578182fd5b611ae8878235602084016117d0565b91505092959194509250565b600060208284031215611b05578081fd5b81356001600160e01b031981168114610c69578182fd5b600060208284031215611b2d578081fd5b5035919050565b600060208284031215611b45578081fd5b5051919050565b60008060408385031215611b5e578182fd5b82359150611b6e60208401611827565b90509250929050565b60008060408385031215611b89578182fd5b82359150611b6e60208401611975565b60008060008060608587031215611bae578182fd5b84359350611bbe60208601611975565b925060408501356001600160401b0380821115611bd9578384fd5b818701915087601f830112611bec578384fd5b813581811115611bfa578485fd5b886020828501011115611c0b578485fd5b95989497505060200194505050565b600080600080600060a08688031215611c31578283fd5b85359450611c4160208701611975565b9350611c4f60408701611975565b94979396509394606081013594506080013592915050565b6000815180845260208085019450808401835b83811015611c9f5781516001600160a01b031687529582019590820190600101611c7a565b509495945050505050565b6000815180845260208085018081965082840281019150828601855b85811015611cf0578284038952611cde848351611d2c565b98850198935090840190600101611cc6565b5091979650505050505050565b6000815180845260208085019450808401835b83811015611c9f57815187529582019590820190600101611d10565b60008151808452611d44816020860160208601612024565b601f01601f19169290920160200192915050565b60008251611d6a818460208701612024565b9190910192915050565b600060808252611d876080830187611c67565b8281036020840152611d998187611cfd565b90508281036040840152611dad8186611caa565b91505082606083015295945050505050565b6020810160088310611de157634e487b7160e01b600052602160045260246000fd5b91905290565b600060208252610c696020830184611d2c565b60208082526021908201527f476f7665726e6f723a20696e76616c69642070726f706f73616c206c656e67746040820152600d60fb1b606082015260800190565b60006101208b8352602060018060a01b038c1681850152816040850152611e648285018c611c67565b91508382036060850152611e78828b611cfd565b848103608086015289518082529092508183019082810284018301838c01865b83811015611ec657601f19878403018552611eb4838351611d2c565b94860194925090850190600101611e98565b505086810360a0880152611eda818c611caa565b945050505050611ef560c08401876001600160401b03169052565b6001600160401b03851660e0840152828103610100840152611f178185611d2c565b9c9b505050505050505050505050565b600085825260ff85166020830152836040830152608060608301526109c46080830184611d2c565b604051601f8201601f191681016001600160401b0381118282101715611f7757611f776120ba565b604052919050565b60006001600160401b03821115611f9857611f986120ba565b5060209081020190565b60008219821115611fb557611fb56120a4565b500190565b60006001600160401b03828116848216808303821115611fdc57611fdc6120a4565b01949350505050565b60008261200057634e487b7160e01b81526012600452602481fd5b500490565b600081600019048311821515161561201f5761201f6120a4565b500290565b60005b8381101561203f578181015183820152602001612027565b8381111561204e576000848401525b50505050565b60028104600182168061206857607f821691505b6020821081141561094d57634e487b7160e01b600052602260045260246000fd5b600060001982141561209d5761209d6120a4565b5060010190565b634e487b7160e01b600052601160045260246000fd5b634e487b7160e01b600052604160045260246000fdfe150214d74d59b7d1e90c73fc22ef3d991dd0a76b046543d4d80ab92d2a50328f476f7665726e6f723a2063616c6c20726576657274656420776974686f7574206d657373616765a264697066735822122044e445541297936650a94424ac939b027cc475ca481d7662fb903387302b1e9364736f6c63430008020033a2646970667358221220a5508df41c41f4514a09b0f803500a280fc43d806a049590d876a4d8e9c582f364736f6c63430008020033",
  "immutableReferences": {},
  "source": "// SPDX-License-Identifier: GPLv3\r\npragma solidity >=0.8.2 <0.9.0;\r\nimport {Token} from \"./Token.sol\";\r\nimport {StartGovernor} from \"./StartGovernor.sol\";\r\n\r\ncontract Campaign {\r\n    address public initiator;\r\n\r\n    string public title;\r\n    string public description;\r\n    string public imageURL;\r\n    string public tokenName;\r\n    string public tokenSymbol;\r\n\r\n    uint256 public tokenMaxSupply;\r\n    address public manager;\r\n    uint256 public endBlock;\r\n    bool public isCampaignFunded;\r\n\r\n    address[] contributersAddresses;\r\n    mapping(address => uint256) contributersDeposits;\r\n\r\n    address public tokenAddress;\r\n    address public governanceAddress;\r\n\r\n    modifier restricted() {\r\n        assert(msg.sender == initiator);\r\n        _;\r\n    }\r\n\r\n    modifier beforeTimeout() {\r\n        assert(block.number <= endBlock);\r\n        _;\r\n    }\r\n    modifier afterTimeout() {\r\n        assert(block.number > endBlock);\r\n        _;\r\n    }\r\n    modifier isCampaignFundedModifier() {\r\n        assert(isCampaignFunded);\r\n        _;\r\n    }\r\n\r\n    constructor(\r\n        address _manager,\r\n        string memory _title,\r\n        string memory _imageURL,\r\n        string memory _description,\r\n        uint256 _tokenMaxSupply,\r\n        string memory _tokenName,\r\n        string memory _tokenSymbol,\r\n        uint256 _endBlock\r\n    ) {\r\n        assert(tokenMaxSupply > 0);\r\n\r\n        initiator = msg.sender;\r\n        title = _title;\r\n        imageURL = _imageURL;\r\n        description = _description;\r\n        tokenMaxSupply = _tokenMaxSupply;\r\n        tokenName = _tokenName;\r\n        tokenSymbol = _tokenSymbol;\r\n        manager = _manager;\r\n        endBlock = _endBlock;\r\n        isCampaignFunded = false;\r\n    }\r\n\r\n    function contribute() public payable beforeTimeout {\r\n        require(msg.value > 0);\r\n        uint256 depositedAmount = contributersDeposits[msg.sender];\r\n        if (depositedAmount == 0) contributersAddresses.push(msg.sender);\r\n        contributersDeposits[msg.sender] = depositedAmount + msg.value;\r\n    }\r\n\r\n    function contributerBalanceOf(address account)\r\n        public\r\n        view\r\n        returns (uint256)\r\n    {\r\n        return contributersDeposits[account];\r\n    }\r\n\r\n    function finalizeCrowdfunding() public afterTimeout restricted {\r\n        Token token = new Token(tokenMaxSupply, tokenName, tokenSymbol);\r\n        tokenAddress = address(token);\r\n        StartGovernor governor = new StartGovernor(token, title);\r\n        governanceAddress = address(governor);\r\n        token.sendTokens(tokenMaxSupply / 4, manager);\r\n        isCampaignFunded = true;\r\n    }\r\n\r\n    function redeem() public afterTimeout {\r\n        if (isCampaignFunded) {\r\n            uint256 depositedAmount = contributersDeposits[msg.sender];\r\n            require(depositedAmount > 0);\r\n            Token(tokenAddress).sendTokens(\r\n                (depositedAmount / address(this).balance) * tokenMaxSupply,\r\n                msg.sender\r\n            );\r\n        } else {\r\n            uint256 depositedAmount = contributersDeposits[msg.sender];\r\n            (bool sent, ) = msg.sender.call{value: depositedAmount}(\"\");\r\n            require(sent, \"Failed to send Ether\");\r\n        }\r\n        contributersDeposits[msg.sender] = 0;\r\n    }\r\n\r\n    // function createRequest(string memory t, string memory desc, uint value, address payable recipient, uint time) public afterTimeout isCampaignFundedModifier {\r\n    //     require(sToken.balanceOf(msg.sender) > details.tokenMaxSupply/10);\r\n    //     sGovernance.createRequest(msg.sender, t, desc, value, recipient, time);\r\n    // }\r\n\r\n    // function approveRequest(uint requestId) public afterTimeout isCampaignFundedModifier {\r\n    //     uint balance = sToken.balanceOf(msg.sender);\r\n    //     require( balance > 0, \"You havent tokens\");\r\n\r\n    //     sGovernance.approveRequest(requestId, msg.sender, balance);\r\n    // }\r\n\r\n    // function finalizeRequest(uint id) public afterTimeout isCampaignFundedModifier{\r\n\r\n    //     sGovernance.finalizeRequest(id, sToken.totalSupply());\r\n    //     (bool isApproved, address payable recipient, uint value) = sGovernance.getRequestStatus(id);\r\n    //     if(isApproved)\r\n    //         recipient.transfer(value);\r\n    // }\r\n\r\n    // function getCampaignSummary()\r\n    //     public\r\n    //     view\r\n    //     returns (\r\n    //         address,\r\n    //         string memory,\r\n    //         string memory,\r\n    //         string memory,\r\n    //         bool,\r\n    //         uint256\r\n    //     )\r\n    // {\r\n    //     return (\r\n    //         manager,\r\n    //         title,\r\n    //         description,\r\n    //         imageURL,\r\n    //         isCampaignFunded,\r\n    //         tokenMaxSupply\r\n    //     );\r\n    // }\r\n\r\n    // function getFundingSummary()\r\n    //     public\r\n    //     view\r\n    //     returns (\r\n    //         uint256,\r\n    //         uint256,\r\n    //         address[] memory,\r\n    //         string memory,\r\n    //         string memory\r\n    //     )\r\n    // {\r\n    //     return (\r\n    //         address(this).balance,\r\n    //         endBlock,\r\n    //         contributersAddresses,\r\n    //         tokenName,\r\n    //         tokenSymbol\r\n    //     );\r\n    // }\r\n}\r\n",
  "sourcePath": "/home/christianvari/github/EthStart-contracts/contracts/Campaign.sol",
  "compiler": {
    "name": "solc",
    "version": "0.8.2+commit.661d1103.Emscripten.clang"
  },
  "schemaVersion": "3.4.3",
  "updatedAt": "2021-10-04T17:15:07.706Z",
  "devdoc": {
    "kind": "dev",
    "methods": {},
    "version": 1
  },
  "userdoc": {
    "kind": "user",
    "methods": {},
    "version": 1
  }
}