{
  "contractName": "SGovernance",
  "abi": [
    {
      "inputs": [],
      "stateMutability": "nonpayable",
      "type": "constructor"
    },
    {
      "inputs": [],
      "name": "campaign",
      "outputs": [
        {
          "internalType": "address",
          "name": "",
          "type": "address"
        }
      ],
      "stateMutability": "view",
      "type": "function"
    },
    {
      "inputs": [
        {
          "internalType": "uint256",
          "name": "",
          "type": "uint256"
        }
      ],
      "name": "requests",
      "outputs": [
        {
          "internalType": "address",
          "name": "creator",
          "type": "address"
        },
        {
          "internalType": "address payable",
          "name": "recipient",
          "type": "address"
        }
      ],
      "stateMutability": "view",
      "type": "function"
    },
    {
      "inputs": [],
      "name": "requestsCount",
      "outputs": [
        {
          "internalType": "uint256",
          "name": "",
          "type": "uint256"
        }
      ],
      "stateMutability": "view",
      "type": "function"
    },
    {
      "inputs": [
        {
          "internalType": "address",
          "name": "c",
          "type": "address"
        },
        {
          "internalType": "string",
          "name": "t",
          "type": "string"
        },
        {
          "internalType": "string",
          "name": "desc",
          "type": "string"
        },
        {
          "internalType": "uint256",
          "name": "value",
          "type": "uint256"
        },
        {
          "internalType": "address payable",
          "name": "recipient",
          "type": "address"
        },
        {
          "internalType": "uint256",
          "name": "time",
          "type": "uint256"
        }
      ],
      "name": "createRequest",
      "outputs": [],
      "stateMutability": "nonpayable",
      "type": "function"
    },
    {
      "inputs": [
        {
          "internalType": "uint256",
          "name": "id",
          "type": "uint256"
        },
        {
          "internalType": "address",
          "name": "user",
          "type": "address"
        },
        {
          "internalType": "uint256",
          "name": "balance",
          "type": "uint256"
        }
      ],
      "name": "approveRequest",
      "outputs": [],
      "stateMutability": "nonpayable",
      "type": "function"
    },
    {
      "inputs": [
        {
          "internalType": "uint256",
          "name": "id",
          "type": "uint256"
        },
        {
          "internalType": "uint256",
          "name": "totalSupply",
          "type": "uint256"
        }
      ],
      "name": "finalizeRequest",
      "outputs": [],
      "stateMutability": "nonpayable",
      "type": "function"
    },
    {
      "inputs": [
        {
          "internalType": "uint256",
          "name": "id",
          "type": "uint256"
        }
      ],
      "name": "getRequestStatus",
      "outputs": [
        {
          "internalType": "bool",
          "name": "",
          "type": "bool"
        },
        {
          "internalType": "address payable",
          "name": "",
          "type": "address"
        },
        {
          "internalType": "uint256",
          "name": "value",
          "type": "uint256"
        }
      ],
      "stateMutability": "view",
      "type": "function"
    },
    {
      "inputs": [],
      "name": "getRequestsCount",
      "outputs": [
        {
          "internalType": "uint256",
          "name": "",
          "type": "uint256"
        }
      ],
      "stateMutability": "view",
      "type": "function"
    }
  ],
  "bytecode": "0x608060405234801561001057600080fd5b50600280546001600160a01b031916331790556000600155610d8a806100376000396000f3fe608060405234801561001057600080fd5b50600436106100785760003560e01c80631c45b2c61461007d5780633410452a146101cc578063811e539c146101e657806381d12c581461020a578063c8b9dd6714610256578063cd81b43a14610279578063d8a4676f146102ab578063fbfa4b7f146102f0575b600080fd5b6101ca600480360360c081101561009357600080fd5b6001600160a01b038235169190810190604081016020820135600160201b8111156100bd57600080fd5b8201836020820111156100cf57600080fd5b803590602001918460018302840111600160201b831117156100f057600080fd5b91908080601f0160208091040260200160405190810160405280939291908181526020018383808284376000920191909152509295949360208101935035915050600160201b81111561014257600080fd5b82018360208201111561015457600080fd5b803590602001918460018302840111600160201b8311171561017557600080fd5b91908080601f0160208091040260200160405190810160405280939291908181526020018383808284376000920191909152509295505082359350505060208101356001600160a01b031690604001356102f8565b005b6101d4610499565b60408051918252519081900360200190f35b6101ee61049f565b604080516001600160a01b039092168252519081900360200190f35b6102276004803603602081101561022057600080fd5b50356104ae565b60405180836001600160a01b03168152602001826001600160a01b031681526020019250505060405180910390f35b6101ca6004803603604081101561026c57600080fd5b50803590602001356104e4565b6101ca6004803603606081101561028f57600080fd5b508035906001600160a01b0360208201351690604001356105f8565b6102c8600480360360208110156102c157600080fd5b5035610789565b6040805193151584526001600160a01b03909216602084015282820152519081900360600190f35b6101d4610950565b6002546001600160a01b0316331461030c57fe5b610314610a91565b6040518060a00160405280886001600160a01b031681526020016040518060400160405280898152602001888152508152602001604051806060016040528087815260200160008152602001610373864261095690919063ffffffff16565b905281526001600160a01b0385811660208084019190915260408051808201825260008082528184018190529190940193909352825460018101845592805283517f290decd9548b62a8d60345a988386fc84ba6bc95484008f6362f93160ef3e563600990940293840180546001600160a01b031916919093161782558301519293508392909161042a917f290decd9548b62a8d60345a988386fc84ba6bc95484008f6362f93160ef3e564909101906002610ada565b5060408201516104409060038084019190610b2a565b5060608201516006820180546001600160a01b0319166001600160a01b03909216919091179055608082015161047c9060078301906002610b64565b50506001805461048d925090610956565b60015550505050505050565b60005490565b6002546001600160a01b031681565b600081815481106104bb57fe5b6000918252602090912060099091020180546006909101546001600160a01b0391821692501682565b6002546001600160a01b031633146104f857fe5b600080838154811061050657fe5b60009182526020909120600990910201600781015490915060ff161561056f576040805162461bcd60e51b815260206004820152601960248201527814995c5d595cdd08185b1d1c99591e4818dbdb5c1b195d1959603a1b604482015290519081900360640190fd5b600581015442116105be576040805162461bcd60e51b8152602060048201526014602482015273151a5b595bdd5d081a5cc81b9bdd08195b99195960621b604482015290519081900360640190fd5b6105c98260026109b5565b600482015460079092018054600161ff001990911692909311610100029190911760ff19169190911790555050565b6002546001600160a01b0316331461060c57fe5b600154831061061757fe5b600080848154811061062557fe5b60009182526020909120600990910201600781015490915060ff161561068e576040805162461bcd60e51b815260206004820152601960248201527814995c5d595cdd08185b1d1c99591e4818dbdb5c1b195d1959603a1b604482015290519081900360640190fd5b60058101544211156106da576040805162461bcd60e51b815260206004820152601060248201526f151a5b595bdd5d081a5cc8195b99195960821b604482015290519081900360640190fd5b6001600160a01b038316600090815260088201602052604090205460ff161561074a576040805162461bcd60e51b815260206004820152601d60248201527f596f752063616e20617070726f7665206f6e6c79206f6e652074696d65000000604482015290519081900360640190fd5b6001600160a01b03831660009081526008820160205260409020805460ff19166001179055600481015461077e9083610956565b600490910155505050565b6000806000610796610a91565b600085815481106107a357fe5b600091825260208083206040805160a081018252600990940290910180546001600160a01b0316845281518083019092529293918401916001840190600290835b8282101561088757838201805460408051602060026001851615610100026000190190941693909304601f810184900484028201840190925281815292918301828280156108735780601f1061084857610100808354040283529160200191610873565b820191906000526020600020905b81548152906001019060200180831161085657829003601f168201915b5050505050815260200190600101906107e4565b505050908252506040805160608101918290526020909201919060038481019182845b8154815260200190600101908083116108aa57505050918352505060068201546001600160a01b03166020820152604080518082018083529190920191906007840190600290826000855b825461010083900a900460ff1615158152602060019283018181049485019490930390920291018084116108f55750505092909352505050506080810151602001516060820151604090920151519097919650945092505050565b60015481565b6000828201838110156109ae576040805162461bcd60e51b815260206004820152601b60248201527a536166654d6174683a206164646974696f6e206f766572666c6f7760281b604482015290519081900360640190fd5b9392505050565b60006109ae83836040518060400160405280601a815260200179536166654d6174683a206469766973696f6e206279207a65726f60301b81525060008183610a7b5760405162461bcd60e51b81526004018080602001828103825283818151815260200191508051906020019080838360005b83811015610a40578181015183820152602001610a28565b50505050905090810190601f168015610a6d5780820380516001836020036101000a031916815260200191505b509250505060405180910390fd5b506000838581610a8757fe5b0495945050505050565b6040518060a0016040528060006001600160a01b03168152602001610ab4610bf2565b8152602001610ac1610c19565b815260006020820152604001610ad5610c37565b905290565b8260028101928215610b1a579160200282015b82811115610b1a5782518051610b0a918491602090910190610c55565b5091602001919060010190610aed565b50610b26929150610cc2565b5090565b8260038101928215610b58579160200282015b82811115610b58578251825591602001919060010190610b3d565b50610b26929150610cdf565b600183019183908215610be65791602002820160005b83821115610bb757835183826101000a81548160ff0219169083151502179055509260200192600101602081600001049283019260010302610b7a565b8015610be45782816101000a81549060ff0219169055600101602081600001049283019260010302610bb7565b505b50610b26929150610cf4565b60405180604001604052806002905b6060815260200190600190039081610c015790505090565b60405180606001604052806003906020820280368337509192915050565b60405180604001604052806002906020820280368337509192915050565b828054600181600116156101000203166002900490600052602060002090601f016020900481019282601f10610c9657805160ff1916838001178555610b58565b82800160010185558215610b585791820182811115610b58578251825591602001919060010190610b3d565b80821115610b26576000610cd68282610d0d565b50600101610cc2565b5b80821115610b265760008155600101610ce0565b5b80821115610b2657805460ff19168155600101610cf5565b50805460018160011615610100020316600290046000825580601f10610d335750610d51565b601f016020900490600052602060002090810190610d519190610cdf565b5056fea2646970667358221220e853d77d50ea4ffe06d17a57f57ea7f5f1919973d4381ff21c7da82405edc2ba64736f6c634300060c0033",
  "immutableReferences": {},
  "source": "// SPDX-License-Identifier: GPLv3\npragma solidity ^0.6.0;\nimport '@openzeppelin/contracts/math/SafeMath.sol';\n\ncontract SGovernance {\n\n    using SafeMath for uint;\n\n    struct Request {\n        address creator;\n        string[2] info; // [title,description]\n        uint[3] uintArray; // [value, approvalsCount, timeout]\n        address payable recipient;\n        bool[2] status; // [isCompleted, isApproved]\n        mapping(address=>bool) approvals;\n    }\n\n\n    Request[] public requests;\n    uint public requestsCount;\n    address public campaign;\n\n    modifier restricted(){\n        assert(msg.sender == campaign);\n        _;\n    }\n\n    constructor() public {\n\n        campaign = msg.sender;\n        requestsCount = 0;\n    }\n\n    function createRequest(address c, string memory t, string memory desc, uint value, address payable recipient, uint time) public restricted{\n        Request memory newRequest = Request(\n            {creator: c,\n            info:[t,desc],\n            uintArray:[value, 0 , block.timestamp.add(time)],\n            recipient:recipient,\n            status:[false, false]\n            }\n        );\n\n        requests.push(newRequest);\n        requestsCount = requestsCount.add(1);\n    }\n\n    function approveRequest(uint id, address user, uint balance) public restricted{\n        assert(id < requestsCount);\n        Request storage req = requests[id];\n\n        require(!req.status[0], \"Request altredy completed\");\n        require(block.timestamp <= req.uintArray[2], \"Timeout is ended\");\n        require(!req.approvals[user], \"You can approve only one time\");\n\n        req.approvals[user] = true;\n        req.uintArray[1] = req.uintArray[1].add(balance);\n    }\n\n    function finalizeRequest(uint id, uint totalSupply) public restricted{\n        Request storage req = requests[id];\n\n        require(!req.status[0], \"Request altredy completed\");\n        require(block.timestamp > req.uintArray[2], \"Timeout is not ended\");\n\n        req.status[1] = req.uintArray[1] > (totalSupply.div(2));\n        req.status[0] = true;\n    }\n\n    function getRequestStatus(uint id) public view returns(bool, address payable, uint value){\n        Request memory req = requests[id];\n        return(req.status[1], req.recipient, req.uintArray[0]);\n    }\n\n    function getRequestsCount() public view returns(uint){\n        return requests.length;\n    }\n}",
  "sourcePath": "/home/christian/Documenti/GitHub/EthStart-contracts/contracts/SGovernance.sol",
  "compiler": {
    "name": "solc",
    "version": "0.6.12+commit.27d51765.Emscripten.clang"
  },
  "schemaVersion": "3.2.5",
  "updatedAt": "2020-10-07T13:42:39.334Z",
  "devdoc": {
    "kind": "dev",
    "methods": {},
    "version": 1
  },
  "userdoc": {
    "kind": "user",
    "methods": {},
    "version": 1
  }
}