{
  "contractName": "StartGovernor",
  "abi": [
    {
      "inputs": [
        {
          "internalType": "contract ERC20Votes",
          "name": "_token",
          "type": "address"
        },
        {
          "internalType": "string",
          "name": "_name",
          "type": "string"
        }
      ],
      "stateMutability": "nonpayable",
      "type": "constructor"
    },
    {
      "anonymous": false,
      "inputs": [
        {
          "indexed": false,
          "internalType": "uint256",
          "name": "proposalId",
          "type": "uint256"
        }
      ],
      "name": "ProposalCanceled",
      "type": "event"
    },
    {
      "anonymous": false,
      "inputs": [
        {
          "indexed": false,
          "internalType": "uint256",
          "name": "proposalId",
          "type": "uint256"
        },
        {
          "indexed": false,
          "internalType": "address",
          "name": "proposer",
          "type": "address"
        },
        {
          "indexed": false,
          "internalType": "address[]",
          "name": "targets",
          "type": "address[]"
        },
        {
          "indexed": false,
          "internalType": "uint256[]",
          "name": "values",
          "type": "uint256[]"
        },
        {
          "indexed": false,
          "internalType": "string[]",
          "name": "signatures",
          "type": "string[]"
        },
        {
          "indexed": false,
          "internalType": "bytes[]",
          "name": "calldatas",
          "type": "bytes[]"
        },
        {
          "indexed": false,
          "internalType": "uint256",
          "name": "startBlock",
          "type": "uint256"
        },
        {
          "indexed": false,
          "internalType": "uint256",
          "name": "endBlock",
          "type": "uint256"
        },
        {
          "indexed": false,
          "internalType": "string",
          "name": "description",
          "type": "string"
        }
      ],
      "name": "ProposalCreated",
      "type": "event"
    },
    {
      "anonymous": false,
      "inputs": [
        {
          "indexed": false,
          "internalType": "uint256",
          "name": "proposalId",
          "type": "uint256"
        }
      ],
      "name": "ProposalExecuted",
      "type": "event"
    },
    {
      "anonymous": false,
      "inputs": [
        {
          "indexed": false,
          "internalType": "uint256",
          "name": "oldQuorumNumerator",
          "type": "uint256"
        },
        {
          "indexed": false,
          "internalType": "uint256",
          "name": "newQuorumNumerator",
          "type": "uint256"
        }
      ],
      "name": "QuorumNumeratorUpdated",
      "type": "event"
    },
    {
      "anonymous": false,
      "inputs": [
        {
          "indexed": true,
          "internalType": "address",
          "name": "voter",
          "type": "address"
        },
        {
          "indexed": false,
          "internalType": "uint256",
          "name": "proposalId",
          "type": "uint256"
        },
        {
          "indexed": false,
          "internalType": "uint8",
          "name": "support",
          "type": "uint8"
        },
        {
          "indexed": false,
          "internalType": "uint256",
          "name": "weight",
          "type": "uint256"
        },
        {
          "indexed": false,
          "internalType": "string",
          "name": "reason",
          "type": "string"
        }
      ],
      "name": "VoteCast",
      "type": "event"
    },
    {
      "inputs": [],
      "name": "BALLOT_TYPEHASH",
      "outputs": [
        {
          "internalType": "bytes32",
          "name": "",
          "type": "bytes32"
        }
      ],
      "stateMutability": "view",
      "type": "function"
    },
    {
      "inputs": [],
      "name": "COUNTING_MODE",
      "outputs": [
        {
          "internalType": "string",
          "name": "",
          "type": "string"
        }
      ],
      "stateMutability": "pure",
      "type": "function"
    },
    {
      "inputs": [
        {
          "internalType": "uint256",
          "name": "proposalId",
          "type": "uint256"
        },
        {
          "internalType": "uint8",
          "name": "support",
          "type": "uint8"
        }
      ],
      "name": "castVote",
      "outputs": [
        {
          "internalType": "uint256",
          "name": "",
          "type": "uint256"
        }
      ],
      "stateMutability": "nonpayable",
      "type": "function"
    },
    {
      "inputs": [
        {
          "internalType": "uint256",
          "name": "proposalId",
          "type": "uint256"
        },
        {
          "internalType": "uint8",
          "name": "support",
          "type": "uint8"
        },
        {
          "internalType": "uint8",
          "name": "v",
          "type": "uint8"
        },
        {
          "internalType": "bytes32",
          "name": "r",
          "type": "bytes32"
        },
        {
          "internalType": "bytes32",
          "name": "s",
          "type": "bytes32"
        }
      ],
      "name": "castVoteBySig",
      "outputs": [
        {
          "internalType": "uint256",
          "name": "",
          "type": "uint256"
        }
      ],
      "stateMutability": "nonpayable",
      "type": "function"
    },
    {
      "inputs": [
        {
          "internalType": "uint256",
          "name": "proposalId",
          "type": "uint256"
        },
        {
          "internalType": "uint8",
          "name": "support",
          "type": "uint8"
        },
        {
          "internalType": "string",
          "name": "reason",
          "type": "string"
        }
      ],
      "name": "castVoteWithReason",
      "outputs": [
        {
          "internalType": "uint256",
          "name": "",
          "type": "uint256"
        }
      ],
      "stateMutability": "nonpayable",
      "type": "function"
    },
    {
      "inputs": [
        {
          "internalType": "address[]",
          "name": "targets",
          "type": "address[]"
        },
        {
          "internalType": "uint256[]",
          "name": "values",
          "type": "uint256[]"
        },
        {
          "internalType": "bytes[]",
          "name": "calldatas",
          "type": "bytes[]"
        },
        {
          "internalType": "bytes32",
          "name": "descriptionHash",
          "type": "bytes32"
        }
      ],
      "name": "execute",
      "outputs": [
        {
          "internalType": "uint256",
          "name": "",
          "type": "uint256"
        }
      ],
      "stateMutability": "payable",
      "type": "function"
    },
    {
      "inputs": [
        {
          "internalType": "uint256",
          "name": "proposalId",
          "type": "uint256"
        },
        {
          "internalType": "address",
          "name": "account",
          "type": "address"
        }
      ],
      "name": "hasVoted",
      "outputs": [
        {
          "internalType": "bool",
          "name": "",
          "type": "bool"
        }
      ],
      "stateMutability": "view",
      "type": "function"
    },
    {
      "inputs": [
        {
          "internalType": "address[]",
          "name": "targets",
          "type": "address[]"
        },
        {
          "internalType": "uint256[]",
          "name": "values",
          "type": "uint256[]"
        },
        {
          "internalType": "bytes[]",
          "name": "calldatas",
          "type": "bytes[]"
        },
        {
          "internalType": "bytes32",
          "name": "descriptionHash",
          "type": "bytes32"
        }
      ],
      "name": "hashProposal",
      "outputs": [
        {
          "internalType": "uint256",
          "name": "",
          "type": "uint256"
        }
      ],
      "stateMutability": "pure",
      "type": "function"
    },
    {
      "inputs": [],
      "name": "name",
      "outputs": [
        {
          "internalType": "string",
          "name": "",
          "type": "string"
        }
      ],
      "stateMutability": "view",
      "type": "function"
    },
    {
      "inputs": [
        {
          "internalType": "uint256",
          "name": "proposalId",
          "type": "uint256"
        }
      ],
      "name": "proposalDeadline",
      "outputs": [
        {
          "internalType": "uint256",
          "name": "",
          "type": "uint256"
        }
      ],
      "stateMutability": "view",
      "type": "function"
    },
    {
      "inputs": [
        {
          "internalType": "uint256",
          "name": "proposalId",
          "type": "uint256"
        }
      ],
      "name": "proposalSnapshot",
      "outputs": [
        {
          "internalType": "uint256",
          "name": "",
          "type": "uint256"
        }
      ],
      "stateMutability": "view",
      "type": "function"
    },
    {
      "inputs": [
        {
          "internalType": "uint256",
          "name": "proposalId",
          "type": "uint256"
        }
      ],
      "name": "proposalVotes",
      "outputs": [
        {
          "internalType": "uint256",
          "name": "againstVotes",
          "type": "uint256"
        },
        {
          "internalType": "uint256",
          "name": "forVotes",
          "type": "uint256"
        },
        {
          "internalType": "uint256",
          "name": "abstainVotes",
          "type": "uint256"
        }
      ],
      "stateMutability": "view",
      "type": "function"
    },
    {
      "inputs": [
        {
          "internalType": "address[]",
          "name": "targets",
          "type": "address[]"
        },
        {
          "internalType": "uint256[]",
          "name": "values",
          "type": "uint256[]"
        },
        {
          "internalType": "bytes[]",
          "name": "calldatas",
          "type": "bytes[]"
        },
        {
          "internalType": "string",
          "name": "description",
          "type": "string"
        }
      ],
      "name": "propose",
      "outputs": [
        {
          "internalType": "uint256",
          "name": "",
          "type": "uint256"
        }
      ],
      "stateMutability": "nonpayable",
      "type": "function"
    },
    {
      "inputs": [],
      "name": "quorumDenominator",
      "outputs": [
        {
          "internalType": "uint256",
          "name": "",
          "type": "uint256"
        }
      ],
      "stateMutability": "view",
      "type": "function"
    },
    {
      "inputs": [],
      "name": "quorumNumerator",
      "outputs": [
        {
          "internalType": "uint256",
          "name": "",
          "type": "uint256"
        }
      ],
      "stateMutability": "view",
      "type": "function"
    },
    {
      "inputs": [
        {
          "internalType": "uint256",
          "name": "proposalId",
          "type": "uint256"
        }
      ],
      "name": "state",
      "outputs": [
        {
          "internalType": "enum IGovernor.ProposalState",
          "name": "",
          "type": "uint8"
        }
      ],
      "stateMutability": "view",
      "type": "function"
    },
    {
      "inputs": [
        {
          "internalType": "bytes4",
          "name": "interfaceId",
          "type": "bytes4"
        }
      ],
      "name": "supportsInterface",
      "outputs": [
        {
          "internalType": "bool",
          "name": "",
          "type": "bool"
        }
      ],
      "stateMutability": "view",
      "type": "function"
    },
    {
      "inputs": [],
      "name": "token",
      "outputs": [
        {
          "internalType": "contract ERC20Votes",
          "name": "",
          "type": "address"
        }
      ],
      "stateMutability": "view",
      "type": "function"
    },
    {
      "inputs": [
        {
          "internalType": "uint256",
          "name": "newQuorumNumerator",
          "type": "uint256"
        }
      ],
      "name": "updateQuorumNumerator",
      "outputs": [],
      "stateMutability": "nonpayable",
      "type": "function"
    },
    {
      "inputs": [],
      "name": "version",
      "outputs": [
        {
          "internalType": "string",
          "name": "",
          "type": "string"
        }
      ],
      "stateMutability": "view",
      "type": "function"
    },
    {
      "inputs": [],
      "name": "votingDelay",
      "outputs": [
        {
          "internalType": "uint256",
          "name": "",
          "type": "uint256"
        }
      ],
      "stateMutability": "pure",
      "type": "function"
    },
    {
      "inputs": [],
      "name": "votingPeriod",
      "outputs": [
        {
          "internalType": "uint256",
          "name": "",
          "type": "uint256"
        }
      ],
      "stateMutability": "pure",
      "type": "function"
    },
    {
      "inputs": [
        {
          "internalType": "uint256",
          "name": "blockNumber",
          "type": "uint256"
        }
      ],
      "name": "quorum",
      "outputs": [
        {
          "internalType": "uint256",
          "name": "",
          "type": "uint256"
        }
      ],
      "stateMutability": "view",
      "type": "function"
    },
    {
      "inputs": [
        {
          "internalType": "address",
          "name": "account",
          "type": "address"
        },
        {
          "internalType": "uint256",
          "name": "blockNumber",
          "type": "uint256"
        }
      ],
      "name": "getVotes",
      "outputs": [
        {
          "internalType": "uint256",
          "name": "",
          "type": "uint256"
        }
      ],
      "stateMutability": "view",
      "type": "function"
    }
  ],
  "bytecode": "0x6101406040523480156200001257600080fd5b50604051620025873803806200258783398101604081905262000035916200028d565b6033828280620000596040805180820190915260018152603160f81b602082015290565b815160209283012081519183019190912060c082815260e08290524660a0818152604080517f8b73c3c69bb8fe3d512ecc4cf759cc79239f7b179b0ffacaa9a75d522b39400f818901819052818301979097526060810195909552608080860193909352308583015280518086039092018252939092019092528051908401209052610100528151620000f39160009190840190620001e7565b505060601b6001600160601b0319166101205262000111816200011a565b505050620003d9565b6064811115620001a25760405162461bcd60e51b815260206004820152604360248201527f476f7665726e6f72566f74657351756f72756d4672616374696f6e3a2071756f60448201527f72756d4e756d657261746f72206f7665722071756f72756d44656e6f6d696e616064820152623a37b960e91b608482015260a40160405180910390fd5b600380549082905560408051828152602081018490527f0553476bf02ef2726e8ce5ced78d63e26e602e4a2257b1f559418e24b4633997910160405180910390a15050565b828054620001f59062000386565b90600052602060002090601f01602090048101928262000219576000855562000264565b82601f106200023457805160ff191683800117855562000264565b8280016001018555821562000264579182015b828111156200026457825182559160200191906001019062000247565b506200027292915062000276565b5090565b5b8082111562000272576000815560010162000277565b60008060408385031215620002a0578182fd5b82516001600160a01b0381168114620002b7578283fd5b602084810151919350906001600160401b0380821115620002d6578384fd5b818601915086601f830112620002ea578384fd5b815181811115620002ff57620002ff620003c3565b604051601f8201601f19908116603f011681019083821181831017156200032a576200032a620003c3565b81604052828152898684870101111562000342578687fd5b8693505b8284101562000365578484018601518185018701529285019262000346565b828411156200037657868684830101525b8096505050505050509250929050565b6002810460018216806200039b57607f821691505b60208210811415620003bd57634e487b7160e01b600052602260045260246000fd5b50919050565b634e487b7160e01b600052604160045260246000fd5b60805160a05160c05160e051610100516101205160601c61214d6200043a600039600081816104a10152818161110a01526111a3015260006112ca01526000611319015260006112f4015260006112760152600061129f015261214d6000f3fe60806040526004361061011b5760003560e01c806301ffc9a71461012057806302a251a31461015557806306f3f9e61461017857806306fdde031461019a5780632656227d146101bc5780632d63f693146101cf5780633932abb1146101ef5780633bccf4fd146102035780633e4f49e6146102235780634385963214610250578063544ffc9c1461029a57806354fd4d50146102f4578063567813881461031e5780637b3c71d31461033e5780637d5e81e21461035e57806397c3d3341461037e578063a7713a7014610392578063c01f9e37146103a7578063c59057e4146103c7578063dd4e2ba5146103e7578063deaaa7cc1461042d578063eb9019d41461044f578063f8ce560a1461046f578063fc0c546a1461048f575b600080fd5b34801561012c57600080fd5b5061014061013b366004611af4565b6104db565b60405190151581526020015b60405180910390f35b34801561016157600080fd5b5061016a610514565b60405190815260200161014c565b34801561018457600080fd5b50610198610193366004611b1c565b61051b565b005b3480156101a657600080fd5b506101af610576565b60405161014c9190611de7565b61016a6101ca3660046119af565b610608565b3480156101db57600080fd5b5061016a6101ea366004611b1c565b610731565b3480156101fb57600080fd5b50600161016a565b34801561020f57600080fd5b5061016a61021e366004611c1a565b610768565b34801561022f57600080fd5b5061024361023e366004611b1c565b6107ea565b60405161014c9190611dbf565b34801561025c57600080fd5b5061014061026b366004611b4c565b60008281526002602090815260408083206001600160a01b038516845260030190915290205460ff1692915050565b3480156102a657600080fd5b506102d96102b5366004611b1c565b60008181526002602081905260409091208054600182015491909201549193909250565b6040805193845260208401929092529082015260600161014c565b34801561030057600080fd5b506040805180820190915260018152603160f81b60208201526101af565b34801561032a57600080fd5b5061016a610339366004611b77565b610953565b34801561034a57600080fd5b5061016a610359366004611b99565b61097c565b34801561036a57600080fd5b5061016a610379366004611a3a565b6109ce565b34801561038a57600080fd5b50606461016a565b34801561039e57600080fd5b5060035461016a565b3480156103b357600080fd5b5061016a6103c2366004611b1c565b610bf4565b3480156103d357600080fd5b5061016a6103e23660046119af565b610c23565b3480156103f357600080fd5b506040805180820190915260208082527f737570706f72743d627261766f2671756f72756d3d666f722c6162737461696e908201526101af565b34801561043957600080fd5b5061016a6000805160206120d183398151915281565b34801561045b57600080fd5b5061016a61046a366004611986565b610c5d565b34801561047b57600080fd5b5061016a61048a366004611b1c565b610c70565b34801561049b57600080fd5b506104c37f000000000000000000000000000000000000000000000000000000000000000081565b6040516001600160a01b03909116815260200161014c565b60006001600160e01b0319821663bf26d89760e01b148061050c57506301ffc9a760e01b6001600160e01b03198316145b90505b919050565b61b2fa5b90565b33301461056a5760405162461bcd60e51b8152602060048201526018602482015277476f7665726e6f723a206f6e6c79476f7665726e616e636560401b60448201526064015b60405180910390fd5b61057381610c7b565b50565b60606000805461058590612054565b80601f01602080910402602001604051908101604052809291908181526020018280546105b190612054565b80156105fe5780601f106105d3576101008083540402835291602001916105fe565b820191906000526020600020905b8154815290600101906020018083116105e157829003601f168201915b5050505050905090565b60008061061786868686610c23565b90506000610624826107ea565b9050600481600781111561064857634e487b7160e01b600052602160045260246000fd5b14806106735750600581600781111561067157634e487b7160e01b600052602160045260246000fd5b145b6106c95760405162461bcd60e51b815260206004820152602160248201527f476f7665726e6f723a2070726f706f73616c206e6f74207375636365737366756044820152601b60fa1b6064820152608401610561565b600082815260016020818152604092839020600201805460ff191690921790915590518381527f712ae1383f79ac853f8d882153778e0260ef8f03b504e2866e0593e04d2b291f910160405180910390a16107278288888888610d43565b5095945050505050565b60008181526001602090815260408083208151928301909152546001600160401b0316908190525b6001600160401b031692915050565b604080516000805160206120d1833981519152602082015290810186905260ff8516606082015260009081906107c2906107ba9060800160405160208183030381529060405280519060200120610e6c565b868686610eba565b90506107df87828860405180602001604052806000815250610ed8565b979650505050505050565b6000818152600160208181526040808420815160a08101835281546001600160401b0390811660808301908152825283518086018552958301541685529283019390935260029092015460ff8082161580159484019490945261010090910416151560608201529061086057600791505061050f565b80606001511561087457600291505061050f565b805151436001600160401b03909116111561089357600091505061050f565b602081015151436001600160401b0390911611156108b557600191505061050f565b6108c28160200151610ff1565b15610905576108d083611020565b80156108ef575060008381526002602052604090208054600190910154115b6108fa5760036108fd565b60045b91505061050f565b60405162461bcd60e51b815260206004820152601d60248201527f476f7665726e6f723a20756e6b6e6f776e2070726f706f73616c2069640000006044820152606401610561565b50919050565b60008033905061097484828560405180602001604052806000815250610ed8565b949350505050565b6000803390506109c486828787878080601f016020809104026020016040519081016040528093929190818152602001838380828437600092019190915250610ed892505050565b9695505050505050565b6000806109e48686868680519060200120610c23565b90508451865114610a075760405162461bcd60e51b815260040161056190611dfa565b8351865114610a285760405162461bcd60e51b815260040161056190611dfa565b6000865111610a745760405162461bcd60e51b815260206004820152601860248201527711dbdd995c9b9bdc8e88195b5c1d1e481c1c9bdc1bdcd85b60421b6044820152606401610561565b600081815260016020908152604091829020825191820190925281546001600160401b03169081905215610af45760405162461bcd60e51b815260206004820152602160248201527f476f7665726e6f723a2070726f706f73616c20616c72656164792065786973746044820152607360f81b6064820152608401610561565b6000610b0160015b611058565b610b0a43611058565b610b149190611fba565b90506000610b23610afc610514565b610b2d9083611fba565b9050610b3983836110c4565b610b4660018401826110c4565b7f7d84a6263ae0d98d3329bd7b46bb4e8d6f98cd35a7adb45c274c8b7fd5ebd5e084338b8b8d516001600160401b03811115610b9257634e487b7160e01b600052604160045260246000fd5b604051908082528060200260200182016040528015610bc557816020015b6060815260200190600190039081610bb05790505b508c88888e604051610bdf99989796959493929190611e3b565b60405180910390a15091979650505050505050565b60008181526001602081815260408084208151928301909152909101546001600160401b031690819052610759565b600084848484604051602001610c3c9493929190611d74565b60408051601f19818403018152919052805160209091012095945050505050565b6000610c6983836110e1565b9392505050565b600061050c82611186565b6064811115610cfe5760405162461bcd60e51b815260206004820152604360248201527f476f7665726e6f72566f74657351756f72756d4672616374696f6e3a2071756f60448201527f72756d4e756d657261746f72206f7665722071756f72756d44656e6f6d696e616064820152623a37b960e91b608482015260a401610561565b600380549082905560408051828152602081018490527f0553476bf02ef2726e8ce5ced78d63e26e602e4a2257b1f559418e24b4633997910160405180910390a15050565b60006040518060600160405280602781526020016120f160279139905060005b8551811015610e6357600080878381518110610d8f57634e487b7160e01b600052603260045260246000fd5b60200260200101516001600160a01b0316878481518110610dc057634e487b7160e01b600052603260045260246000fd5b6020026020010151878581518110610de857634e487b7160e01b600052603260045260246000fd5b6020026020010151604051610dfd9190611d58565b60006040518083038185875af1925050503d8060008114610e3a576040519150601f19603f3d011682016040523d82523d6000602084013e610e3f565b606091505b5091509150610e4f828286611239565b50505080610e5c90612089565b9050610d63565b50505050505050565b600061050c610e79611272565b8360405161190160f01b6020820152602281018390526042810182905260009060620160405160208183030381529060405280519060200120905092915050565b6000806000610ecb87878787611369565b915091506107278161144c565b6000848152600160208190526040822090610ef2876107ea565b6007811115610f1157634e487b7160e01b600052602160045260246000fd5b14610f6a5760405162461bcd60e51b815260206004820152602360248201527f476f7665726e6f723a20766f7465206e6f742063757272656e746c792061637460448201526269766560e81b6064820152608401610561565b604080516020810190915281546001600160401b031690819052600090610f92908790610c5d565b9050610fa08787878461164a565b856001600160a01b03167fb8e138887d0aa13bab447e82de9d5c1777041ecd21ca36ba824ff1e6c07ddda488878488604051610fdf9493929190611f27565b60405180910390a29695505050505050565b600061100682516001600160401b0316151590565b801561050c57505051436001600160401b03909116111590565b600081815260026020819052604082209081015460018201546110439190611fa2565b61104f61048a85610731565b11159392505050565b60006001600160401b038211156110c05760405162461bcd60e51b815260206004820152602660248201527f53616665436173743a2076616c756520646f65736e27742066697420696e203660448201526534206269747360d01b6064820152608401610561565b5090565b81546001600160401b0319166001600160401b0391909116179055565b604051630748d63560e31b81526001600160a01b038381166004830152602482018390526000917f000000000000000000000000000000000000000000000000000000000000000090911690633a46b1a89060440160206040518083038186803b15801561114e57600080fd5b505afa158015611162573d6000803e3d6000fd5b505050506040513d601f19601f82011682018060405250810190610c699190611b34565b60006064600354604051632394e7a360e21b8152600481018590527f00000000000000000000000000000000000000000000000000000000000000006001600160a01b031690638e539e8c9060240160206040518083038186803b1580156111ed57600080fd5b505afa158015611201573d6000803e3d6000fd5b505050506040513d601f19601f820116820180604052508101906112259190611b34565b61122f9190612005565b61050c9190611fe5565b60608315611248575081610c69565b8251156112585782518084602001fd5b8160405162461bcd60e51b81526004016105619190611de7565b60007f00000000000000000000000000000000000000000000000000000000000000004614156112c357507f0000000000000000000000000000000000000000000000000000000000000000610518565b50604080517f00000000000000000000000000000000000000000000000000000000000000006020808301919091527f0000000000000000000000000000000000000000000000000000000000000000828401527f000000000000000000000000000000000000000000000000000000000000000060608301524660808301523060a0808401919091528351808403909101815260c09092019092528051910120610518565b6000806fa2a8918ca85bafe22016d0b997e4df60600160ff1b038311156113965750600090506003611443565b8460ff16601b141580156113ae57508460ff16601c14155b156113bf5750600090506004611443565b6040805160008082526020820180845289905260ff881692820192909252606081018690526080810185905260019060a0016020604051602081039080840390855afa158015611413573d6000803e3d6000fd5b5050604051601f1901519150506001600160a01b03811661143c57600060019250925050611443565b9150600090505b94509492505050565b600081600481111561146e57634e487b7160e01b600052602160045260246000fd5b141561147957610573565b600181600481111561149b57634e487b7160e01b600052602160045260246000fd5b14156114e45760405162461bcd60e51b815260206004820152601860248201527745434453413a20696e76616c6964207369676e617475726560401b6044820152606401610561565b600281600481111561150657634e487b7160e01b600052602160045260246000fd5b14156115545760405162461bcd60e51b815260206004820152601f60248201527f45434453413a20696e76616c6964207369676e6174757265206c656e677468006044820152606401610561565b600381600481111561157657634e487b7160e01b600052602160045260246000fd5b14156115cf5760405162461bcd60e51b815260206004820152602260248201527f45434453413a20696e76616c6964207369676e6174757265202773272076616c604482015261756560f01b6064820152608401610561565b60048160048111156115f157634e487b7160e01b600052602160045260246000fd5b14156105735760405162461bcd60e51b815260206004820152602260248201527f45434453413a20696e76616c6964207369676e6174757265202776272076616c604482015261756560f01b6064820152608401610561565b60008481526002602090815260408083206001600160a01b0387168452600381019092529091205460ff16156116d25760405162461bcd60e51b815260206004820152602760248201527f476f7665726e6f72566f74696e6753696d706c653a20766f746520616c726561604482015266191e4818d85cdd60ca1b6064820152608401610561565b6001600160a01b03841660009081526003820160205260408120805460ff1916600117905560ff168360ff16141561172357818160000160008282546117189190611fa2565b909155506117c99050565b60ff83166001141561174357818160010160008282546117189190611fa2565b60ff83166002141561176357818160020160008282546117189190611fa2565b60405162461bcd60e51b815260206004820152603560248201527f476f7665726e6f72566f74696e6753696d706c653a20696e76616c69642076616044820152746c756520666f7220656e756d20566f74655479706560581b6064820152608401610561565b5050505050565b60006001600160401b038311156117e9576117e96120ba565b6117fc601f8401601f1916602001611f4f565b905082815283838301111561181057600080fd5b828260208301376000602084830101529392505050565b80356001600160a01b038116811461050f57600080fd5b600082601f83011261184e578081fd5b8135602061186361185e83611f7f565b611f4f565b828152818101908583018385028701840188101561187f578586fd5b855b858110156118a45761189282611827565b84529284019290840190600101611881565b5090979650505050505050565b600082601f8301126118c1578081fd5b813560206118d161185e83611f7f565b82815281810190858301855b858110156118a4578135880189603f8201126118f7578788fd5b6119088a87830135604084016117d0565b85525092840192908401906001016118dd565b600082601f83011261192b578081fd5b8135602061193b61185e83611f7f565b8281528181019085830183850287018401881015611957578586fd5b855b858110156118a457813584529284019290840190600101611959565b803560ff8116811461050f57600080fd5b60008060408385031215611998578182fd5b6119a183611827565b946020939093013593505050565b600080600080608085870312156119c4578182fd5b84356001600160401b03808211156119da578384fd5b6119e68883890161183e565b955060208701359150808211156119fb578384fd5b611a078883890161191b565b94506040870135915080821115611a1c578384fd5b50611a29878288016118b1565b949793965093946060013593505050565b60008060008060808587031215611a4f578384fd5b84356001600160401b0380821115611a65578586fd5b611a718883890161183e565b95506020870135915080821115611a86578485fd5b611a928883890161191b565b94506040870135915080821115611aa7578384fd5b611ab3888389016118b1565b93506060870135915080821115611ac8578283fd5b508501601f81018713611ad9578182fd5b611ae8878235602084016117d0565b91505092959194509250565b600060208284031215611b05578081fd5b81356001600160e01b031981168114610c69578182fd5b600060208284031215611b2d578081fd5b5035919050565b600060208284031215611b45578081fd5b5051919050565b60008060408385031215611b5e578182fd5b82359150611b6e60208401611827565b90509250929050565b60008060408385031215611b89578182fd5b82359150611b6e60208401611975565b60008060008060608587031215611bae578182fd5b84359350611bbe60208601611975565b925060408501356001600160401b0380821115611bd9578384fd5b818701915087601f830112611bec578384fd5b813581811115611bfa578485fd5b886020828501011115611c0b578485fd5b95989497505060200194505050565b600080600080600060a08688031215611c31578283fd5b85359450611c4160208701611975565b9350611c4f60408701611975565b94979396509394606081013594506080013592915050565b6000815180845260208085019450808401835b83811015611c9f5781516001600160a01b031687529582019590820190600101611c7a565b509495945050505050565b6000815180845260208085018081965082840281019150828601855b85811015611cf0578284038952611cde848351611d2c565b98850198935090840190600101611cc6565b5091979650505050505050565b6000815180845260208085019450808401835b83811015611c9f57815187529582019590820190600101611d10565b60008151808452611d44816020860160208601612024565b601f01601f19169290920160200192915050565b60008251611d6a818460208701612024565b9190910192915050565b600060808252611d876080830187611c67565b8281036020840152611d998187611cfd565b90508281036040840152611dad8186611caa565b91505082606083015295945050505050565b6020810160088310611de157634e487b7160e01b600052602160045260246000fd5b91905290565b600060208252610c696020830184611d2c565b60208082526021908201527f476f7665726e6f723a20696e76616c69642070726f706f73616c206c656e67746040820152600d60fb1b606082015260800190565b60006101208b8352602060018060a01b038c1681850152816040850152611e648285018c611c67565b91508382036060850152611e78828b611cfd565b848103608086015289518082529092508183019082810284018301838c01865b83811015611ec657601f19878403018552611eb4838351611d2c565b94860194925090850190600101611e98565b505086810360a0880152611eda818c611caa565b945050505050611ef560c08401876001600160401b03169052565b6001600160401b03851660e0840152828103610100840152611f178185611d2c565b9c9b505050505050505050505050565b600085825260ff85166020830152836040830152608060608301526109c46080830184611d2c565b604051601f8201601f191681016001600160401b0381118282101715611f7757611f776120ba565b604052919050565b60006001600160401b03821115611f9857611f986120ba565b5060209081020190565b60008219821115611fb557611fb56120a4565b500190565b60006001600160401b03828116848216808303821115611fdc57611fdc6120a4565b01949350505050565b60008261200057634e487b7160e01b81526012600452602481fd5b500490565b600081600019048311821515161561201f5761201f6120a4565b500290565b60005b8381101561203f578181015183820152602001612027565b8381111561204e576000848401525b50505050565b60028104600182168061206857607f821691505b6020821081141561094d57634e487b7160e01b600052602260045260246000fd5b600060001982141561209d5761209d6120a4565b5060010190565b634e487b7160e01b600052601160045260246000fd5b634e487b7160e01b600052604160045260246000fdfe150214d74d59b7d1e90c73fc22ef3d991dd0a76b046543d4d80ab92d2a50328f476f7665726e6f723a2063616c6c20726576657274656420776974686f7574206d657373616765a264697066735822122044e445541297936650a94424ac939b027cc475ca481d7662fb903387302b1e9364736f6c63430008020033",
  "immutableReferences": {
    "1252": [
      {
        "length": 32,
        "start": 1185
      },
      {
        "length": 32,
        "start": 4362
      },
      {
        "length": 32,
        "start": 4515
      }
    ],
    "3863": [
      {
        "length": 32,
        "start": 4767
      }
    ],
    "3865": [
      {
        "length": 32,
        "start": 4726
      }
    ],
    "3867": [
      {
        "length": 32,
        "start": 4852
      }
    ],
    "3869": [
      {
        "length": 32,
        "start": 4889
      }
    ],
    "3871": [
      {
        "length": 32,
        "start": 4810
      }
    ]
  },
  "source": "// SPDX-License-Identifier: MIT\npragma solidity ^0.8.2;\n\nimport \"@openzeppelin/contracts/governance/Governor.sol\";\nimport \"@openzeppelin/contracts/governance/extensions/GovernorCountingSimple.sol\";\nimport \"@openzeppelin/contracts/governance/extensions/GovernorVotes.sol\";\nimport \"@openzeppelin/contracts/governance/extensions/GovernorVotesQuorumFraction.sol\";\n\ncontract StartGovernor is Governor, GovernorCountingSimple, GovernorVotes, GovernorVotesQuorumFraction {\n    constructor(ERC20Votes _token, string memory _name)\n        Governor(_name)\n        GovernorVotes(_token)\n        GovernorVotesQuorumFraction(51)\n    {}\n\n    function votingDelay() public pure override returns (uint256) {\n        return 1; // 1 block\n    }\n\n    function votingPeriod() public pure override returns (uint256) {\n        return 45818; // 1 week\n    }\n\n    // The following functions are overrides required by Solidity.\n\n    function quorum(uint256 blockNumber)\n        public\n        view\n        override(IGovernor, GovernorVotesQuorumFraction)\n        returns (uint256)\n    {\n        return super.quorum(blockNumber);\n    }\n\n    function getVotes(address account, uint256 blockNumber)\n        public\n        view\n        override(IGovernor, GovernorVotes)\n        returns (uint256)\n    {\n        return super.getVotes(account, blockNumber);\n    }\n}",
  "sourcePath": "/home/christianvari/github/EthStart-contracts/contracts/StartGovernor.sol",
  "compiler": {
    "name": "solc",
    "version": "0.8.2+commit.661d1103.Emscripten.clang"
  },
  "schemaVersion": "3.4.3",
  "updatedAt": "2021-09-30T16:16:30.187Z",
  "devdoc": {
    "kind": "dev",
    "methods": {
      "COUNTING_MODE()": {
        "details": "See {IGovernor-COUNTING_MODE}."
      },
      "castVote(uint256,uint8)": {
        "details": "See {IGovernor-castVote}."
      },
      "castVoteBySig(uint256,uint8,uint8,bytes32,bytes32)": {
        "details": "See {IGovernor-castVoteBySig}."
      },
      "castVoteWithReason(uint256,uint8,string)": {
        "details": "See {IGovernor-castVoteWithReason}."
      },
      "execute(address[],uint256[],bytes[],bytes32)": {
        "details": "See {IGovernor-execute}."
      },
      "hasVoted(uint256,address)": {
        "details": "See {IGovernor-hasVoted}."
      },
      "hashProposal(address[],uint256[],bytes[],bytes32)": {
        "details": "See {IGovernor-hashProposal}. The proposal id is produced by hashing the RLC encoded `targets` array, the `values` array, the `calldatas` array and the descriptionHash (bytes32 which itself is the keccak256 hash of the description string). This proposal id can be produced from the proposal data which is part of the {ProposalCreated} event. It can even be computed in advance, before the proposal is submitted. Note that the chainId and the governor address are not part of the proposal id computation. Consequently, the same proposal (with same operation and same description) will have the same id if submitted on multiple governors accross multiple networks. This also means that in order to execute the same operation twice (on the same governor) the proposer will have to change the description in order to avoid proposal id conflicts."
      },
      "name()": {
        "details": "See {IGovernor-name}."
      },
      "proposalDeadline(uint256)": {
        "details": "See {IGovernor-proposalDeadline}."
      },
      "proposalSnapshot(uint256)": {
        "details": "See {IGovernor-proposalSnapshot}."
      },
      "proposalVotes(uint256)": {
        "details": "Accessor to the internal vote counts."
      },
      "propose(address[],uint256[],bytes[],string)": {
        "details": "See {IGovernor-propose}."
      },
      "state(uint256)": {
        "details": "See {IGovernor-state}."
      },
      "supportsInterface(bytes4)": {
        "details": "See {IERC165-supportsInterface}."
      },
      "version()": {
        "details": "See {IGovernor-version}."
      },
      "votingDelay()": {
        "details": "delay, in number of block, between the proposal is created and the vote starts. This can be increassed to leave time for users to buy voting power, of delegate it, before the voting of a proposal starts."
      },
      "votingPeriod()": {
        "details": "delay, in number of blocks, between the vote start and vote ends. Note: the {votingDelay} can delay the start of the vote. This must be considered when setting the voting duration compared to the voting delay."
      }
    },
    "version": 1
  },
  "userdoc": {
    "kind": "user",
    "methods": {
      "votingDelay()": {
        "notice": "module:user-config"
      },
      "votingPeriod()": {
        "notice": "module:user-config"
      }
    },
    "version": 1
  }
}