{
  "contractName": "SToken",
  "abi": [
    {
      "inputs": [
        {
          "internalType": "uint256",
          "name": "maxSupply",
          "type": "uint256"
        },
        {
          "internalType": "string",
          "name": "name",
          "type": "string"
        },
        {
          "internalType": "string",
          "name": "symbol",
          "type": "string"
        }
      ],
      "stateMutability": "nonpayable",
      "type": "constructor"
    },
    {
      "anonymous": false,
      "inputs": [
        {
          "indexed": true,
          "internalType": "address",
          "name": "owner",
          "type": "address"
        },
        {
          "indexed": true,
          "internalType": "address",
          "name": "spender",
          "type": "address"
        },
        {
          "indexed": false,
          "internalType": "uint256",
          "name": "value",
          "type": "uint256"
        }
      ],
      "name": "Approval",
      "type": "event"
    },
    {
      "anonymous": false,
      "inputs": [
        {
          "indexed": true,
          "internalType": "address",
          "name": "from",
          "type": "address"
        },
        {
          "indexed": true,
          "internalType": "address",
          "name": "to",
          "type": "address"
        },
        {
          "indexed": false,
          "internalType": "uint256",
          "name": "value",
          "type": "uint256"
        }
      ],
      "name": "Transfer",
      "type": "event"
    },
    {
      "inputs": [
        {
          "internalType": "address",
          "name": "owner",
          "type": "address"
        },
        {
          "internalType": "address",
          "name": "spender",
          "type": "address"
        }
      ],
      "name": "allowance",
      "outputs": [
        {
          "internalType": "uint256",
          "name": "",
          "type": "uint256"
        }
      ],
      "stateMutability": "view",
      "type": "function"
    },
    {
      "inputs": [
        {
          "internalType": "address",
          "name": "spender",
          "type": "address"
        },
        {
          "internalType": "uint256",
          "name": "amount",
          "type": "uint256"
        }
      ],
      "name": "approve",
      "outputs": [
        {
          "internalType": "bool",
          "name": "",
          "type": "bool"
        }
      ],
      "stateMutability": "nonpayable",
      "type": "function"
    },
    {
      "inputs": [
        {
          "internalType": "address",
          "name": "account",
          "type": "address"
        }
      ],
      "name": "balanceOf",
      "outputs": [
        {
          "internalType": "uint256",
          "name": "",
          "type": "uint256"
        }
      ],
      "stateMutability": "view",
      "type": "function"
    },
    {
      "inputs": [],
      "name": "campaignAddress",
      "outputs": [
        {
          "internalType": "address",
          "name": "",
          "type": "address"
        }
      ],
      "stateMutability": "view",
      "type": "function"
    },
    {
      "inputs": [],
      "name": "cap",
      "outputs": [
        {
          "internalType": "uint256",
          "name": "",
          "type": "uint256"
        }
      ],
      "stateMutability": "view",
      "type": "function"
    },
    {
      "inputs": [],
      "name": "decimals",
      "outputs": [
        {
          "internalType": "uint8",
          "name": "",
          "type": "uint8"
        }
      ],
      "stateMutability": "view",
      "type": "function"
    },
    {
      "inputs": [
        {
          "internalType": "address",
          "name": "spender",
          "type": "address"
        },
        {
          "internalType": "uint256",
          "name": "subtractedValue",
          "type": "uint256"
        }
      ],
      "name": "decreaseAllowance",
      "outputs": [
        {
          "internalType": "bool",
          "name": "",
          "type": "bool"
        }
      ],
      "stateMutability": "nonpayable",
      "type": "function"
    },
    {
      "inputs": [
        {
          "internalType": "address",
          "name": "spender",
          "type": "address"
        },
        {
          "internalType": "uint256",
          "name": "addedValue",
          "type": "uint256"
        }
      ],
      "name": "increaseAllowance",
      "outputs": [
        {
          "internalType": "bool",
          "name": "",
          "type": "bool"
        }
      ],
      "stateMutability": "nonpayable",
      "type": "function"
    },
    {
      "inputs": [],
      "name": "maxSupplyToken",
      "outputs": [
        {
          "internalType": "uint256",
          "name": "",
          "type": "uint256"
        }
      ],
      "stateMutability": "view",
      "type": "function"
    },
    {
      "inputs": [],
      "name": "name",
      "outputs": [
        {
          "internalType": "string",
          "name": "",
          "type": "string"
        }
      ],
      "stateMutability": "view",
      "type": "function"
    },
    {
      "inputs": [],
      "name": "symbol",
      "outputs": [
        {
          "internalType": "string",
          "name": "",
          "type": "string"
        }
      ],
      "stateMutability": "view",
      "type": "function"
    },
    {
      "inputs": [],
      "name": "totalSupply",
      "outputs": [
        {
          "internalType": "uint256",
          "name": "",
          "type": "uint256"
        }
      ],
      "stateMutability": "view",
      "type": "function"
    },
    {
      "inputs": [
        {
          "internalType": "address",
          "name": "recipient",
          "type": "address"
        },
        {
          "internalType": "uint256",
          "name": "amount",
          "type": "uint256"
        }
      ],
      "name": "transfer",
      "outputs": [
        {
          "internalType": "bool",
          "name": "",
          "type": "bool"
        }
      ],
      "stateMutability": "nonpayable",
      "type": "function"
    },
    {
      "inputs": [
        {
          "internalType": "address",
          "name": "sender",
          "type": "address"
        },
        {
          "internalType": "address",
          "name": "recipient",
          "type": "address"
        },
        {
          "internalType": "uint256",
          "name": "amount",
          "type": "uint256"
        }
      ],
      "name": "transferFrom",
      "outputs": [
        {
          "internalType": "bool",
          "name": "",
          "type": "bool"
        }
      ],
      "stateMutability": "nonpayable",
      "type": "function"
    },
    {
      "inputs": [
        {
          "internalType": "uint256",
          "name": "amount",
          "type": "uint256"
        },
        {
          "internalType": "address",
          "name": "sender",
          "type": "address"
        }
      ],
      "name": "sendTokens",
      "outputs": [],
      "stateMutability": "nonpayable",
      "type": "function"
    },
    {
      "inputs": [],
      "name": "getSummary",
      "outputs": [
        {
          "internalType": "uint256",
          "name": "",
          "type": "uint256"
        },
        {
          "internalType": "uint256",
          "name": "",
          "type": "uint256"
        },
        {
          "internalType": "string",
          "name": "",
          "type": "string"
        },
        {
          "internalType": "string",
          "name": "",
          "type": "string"
        }
      ],
      "stateMutability": "view",
      "type": "function"
    }
  ],
  "bytecode": "0x60806040523480156200001157600080fd5b506040516200104d3803806200104d833981810160405260608110156200003757600080fd5b8151602083018051604051929492938301929190846401000000008211156200005f57600080fd5b9083019060208201858111156200007557600080fd5b82516401000000008111828201881017156200009057600080fd5b82525081516020918201929091019080838360005b83811015620000bf578181015183820152602001620000a5565b50505050905090810190601f168015620000ed5780820380516001836020036101000a031916815260200191505b50604052602001805160405193929190846401000000008211156200011157600080fd5b9083019060208201858111156200012757600080fd5b82516401000000008111828201881017156200014257600080fd5b82525081516020918201929091019080838360005b838110156200017157818101518382015260200162000157565b50505050905090810190601f1680156200019f5780820380516001836020036101000a031916815260200191505b506040525050508282828160039080519060200190620001c19291906200025a565b508051620001d79060049060208401906200025a565b50506005805460ff1916601217905550806200023a576040805162461bcd60e51b815260206004820152601560248201527f45524332304361707065643a2063617020697320300000000000000000000000604482015290519081900360640190fd5b6006555050600780546001600160a01b03191633179055600855620002f6565b828054600181600116156101000203166002900490600052602060002090601f016020900481019282601f106200029d57805160ff1916838001178555620002cd565b82800160010185558215620002cd579182015b82811115620002cd578251825591602001919060010190620002b0565b50620002db929150620002df565b5090565b5b80821115620002db5760008155600101620002e0565b610d4780620003066000396000f3fe608060405234801561001057600080fd5b50600436106100d05760003560e01c806306fdde03146100d5578063095ea7b31461015257806311765b271461019257806318160ddd146101b657806323b872dd146101d057806329322e0514610206578063313ce56714610234578063355274ea14610252578063395093511461025a5780634051ddac1461028657806370a082311461037a57806382ae7286146103a057806395d89b41146103a8578063a457c2d7146103b0578063a9059cbb146103dc578063dd62ed3e14610408575b600080fd5b6100dd610436565b6040805160208082528351818301528351919283929083019185019080838360005b838110156101175781810151838201526020016100ff565b50505050905090810190601f1680156101445780820380516001836020036101000a031916815260200191505b509250505060405180910390f35b61017e6004803603604081101561016857600080fd5b506001600160a01b0381351690602001356104cc565b604080519115158252519081900360200190f35b61019a6104e9565b604080516001600160a01b039092168252519081900360200190f35b6101be6104f8565b60408051918252519081900360200190f35b61017e600480360360608110156101e657600080fd5b506001600160a01b038135811691602081013590911690604001356104fe565b6102326004803603604081101561021c57600080fd5b50803590602001356001600160a01b0316610585565b005b61023c6105a7565b6040805160ff9092168252519081900360200190f35b6101be6105b0565b61017e6004803603604081101561027057600080fd5b506001600160a01b0381351690602001356105b6565b61028e610604565b604051808581526020018481526020018060200180602001838103835285818151815260200191508051906020019080838360005b838110156102db5781810151838201526020016102c3565b50505050905090810190601f1680156103085780820380516001836020036101000a031916815260200191505b50838103825284518152845160209182019186019080838360005b8381101561033b578181015183820152602001610323565b50505050905090810190601f1680156103685780820380516001836020036101000a031916815260200191505b50965050505050505060405180910390f35b6101be6004803603602081101561039057600080fd5b50356001600160a01b0316610633565b6101be61064e565b6100dd610654565b61017e600480360360408110156103c657600080fd5b506001600160a01b0381351690602001356106b5565b61017e600480360360408110156103f257600080fd5b506001600160a01b03813516906020013561071d565b6101be6004803603604081101561041e57600080fd5b506001600160a01b0381358116916020013516610731565b60038054604080516020601f60026000196101006001881615020190951694909404938401819004810282018101909252828152606093909290918301828280156104c25780601f10610497576101008083540402835291602001916104c2565b820191906000526020600020905b8154815290600101906020018083116104a557829003601f168201915b5050505050905090565b60006104e06104d961075c565b8484610760565b50600192915050565b6007546001600160a01b031681565b60025490565b600061050b84848461084c565b61057b8461051761075c565b61057685604051806060016040528060288152602001610c5c602891396001600160a01b038a1660009081526001602052604081209061055561075c565b6001600160a01b031681526020810191909152604001600020549190610995565b610760565b5060019392505050565b6007546001600160a01b0316331461059957fe5b6105a38183610a2c565b5050565b60055460ff1690565b60065490565b60006104e06105c361075c565b8461057685600160006105d461075c565b6001600160a01b03908116825260208083019390935260409182016000908120918c168152925290205490610b0a565b6000806060806106126104f8565b60085461061d610436565b610625610654565b935093509350935090919293565b6001600160a01b031660009081526020819052604090205490565b60085481565b60048054604080516020601f60026000196101006001881615020190951694909404938401819004810282018101909252828152606093909290918301828280156104c25780601f10610497576101008083540402835291602001916104c2565b60006104e06106c261075c565b8461057685604051806060016040528060258152602001610ced60259139600160006106ec61075c565b6001600160a01b03908116825260208083019390935260409182016000908120918d16815292529020549190610995565b60006104e061072a61075c565b848461084c565b6001600160a01b03918216600090815260016020908152604080832093909416825291909152205490565b3390565b6001600160a01b0383166107a55760405162461bcd60e51b8152600401808060200182810382526024815260200180610cc96024913960400191505060405180910390fd5b6001600160a01b0382166107ea5760405162461bcd60e51b8152600401808060200182810382526022815260200180610c146022913960400191505060405180910390fd5b6001600160a01b03808416600081815260016020908152604080832094871680845294825291829020859055815185815291517f8c5be1e5ebec7d5bd14f71427d1e84f3dd0314c0f7b2291e5b200ac8c7c3b9259281900390910190a3505050565b6001600160a01b0383166108915760405162461bcd60e51b8152600401808060200182810382526025815260200180610ca46025913960400191505060405180910390fd5b6001600160a01b0382166108d65760405162461bcd60e51b8152600401808060200182810382526023815260200180610bf16023913960400191505060405180910390fd5b6108e1838383610b69565b61091e81604051806060016040528060268152602001610c36602691396001600160a01b0386166000908152602081905260409020549190610995565b6001600160a01b03808516600090815260208190526040808220939093559084168152205461094d9082610b0a565b6001600160a01b03808416600081815260208181526040918290209490945580518581529051919392871692600080516020610c8483398151915292918290030190a3505050565b60008184841115610a245760405162461bcd60e51b81526004018080602001828103825283818151815260200191508051906020019080838360005b838110156109e95781810151838201526020016109d1565b50505050905090810190601f168015610a165780820380516001836020036101000a031916815260200191505b509250505060405180910390fd5b505050900390565b6001600160a01b038216610a87576040805162461bcd60e51b815260206004820152601f60248201527f45524332303a206d696e7420746f20746865207a65726f206164647265737300604482015290519081900360640190fd5b610a9360008383610b69565b600254610aa09082610b0a565b6002556001600160a01b038216600090815260208190526040902054610ac69082610b0a565b6001600160a01b038316600081815260208181526040808320949094558351858152935192939192600080516020610c848339815191529281900390910190a35050565b600082820183811015610b62576040805162461bcd60e51b815260206004820152601b60248201527a536166654d6174683a206164646974696f6e206f766572666c6f7760281b604482015290519081900360640190fd5b9392505050565b610b74838383610beb565b6001600160a01b038316610beb57610b8a6105b0565b610b9c82610b966104f8565b90610b0a565b1115610beb576040805162461bcd60e51b8152602060048201526019602482015278115490cc8c10d85c1c19590e8818d85c08195e18d959591959603a1b604482015290519081900360640190fd5b50505056fe45524332303a207472616e7366657220746f20746865207a65726f206164647265737345524332303a20617070726f766520746f20746865207a65726f206164647265737345524332303a207472616e7366657220616d6f756e7420657863656564732062616c616e636545524332303a207472616e7366657220616d6f756e74206578636565647320616c6c6f77616e6365ddf252ad1be2c89b69c2b068fc378daa952ba7f163c4a11628f55a4df523b3ef45524332303a207472616e736665722066726f6d20746865207a65726f206164647265737345524332303a20617070726f76652066726f6d20746865207a65726f206164647265737345524332303a2064656372656173656420616c6c6f77616e63652062656c6f77207a65726fa26469706673582212209c6f3c466edf91866acd6ef71b336fb8ada8ee170f273c988b9ba25ff6bde8af64736f6c634300060c0033",
  "immutableReferences": {},
  "source": "// SPDX-License-Identifier: GPLv3\r\npragma solidity ^0.6.0;\r\nimport \"@openzeppelin/contracts/token/ERC20/ERC20Capped.sol\";\r\nimport \"@openzeppelin/contracts/token/ERC20/ERC20.sol\";\r\n\r\ncontract SToken is ERC20Capped {\r\n\r\n    address public campaignAddress;\r\n    uint public maxSupplyToken;\r\n\r\n    modifier restricted(){\r\n        assert(msg.sender == campaignAddress);\r\n        _;\r\n    }\r\n\r\n    constructor(uint256 maxSupply, string memory name, string memory symbol ) public ERC20(name, symbol) ERC20Capped(maxSupply) {\r\n        campaignAddress = msg.sender;\r\n        maxSupplyToken = maxSupply;\r\n    }\r\n\r\n    function sendTokens(uint256 amount, address sender) public restricted{\r\n        _mint(sender, amount);\r\n    }\r\n\r\n    function getSummary() public view returns(uint, uint, string memory, string memory){\r\n        return(\r\n            totalSupply(),\r\n            maxSupplyToken,\r\n            name(),\r\n            symbol()\r\n        );\r\n    }\r\n    \r\n}",
  "sourcePath": "/home/christianvari/github/EthStart-contracts/contracts/SToken.sol",
  "compiler": {
    "name": "solc",
    "version": "0.6.12+commit.27d51765.Emscripten.clang"
  },
  "schemaVersion": "3.4.3",
  "updatedAt": "2021-09-26T08:47:56.605Z",
  "devdoc": {
    "kind": "dev",
    "methods": {
      "allowance(address,address)": {
        "details": "See {IERC20-allowance}."
      },
      "approve(address,uint256)": {
        "details": "See {IERC20-approve}. Requirements: - `spender` cannot be the zero address."
      },
      "balanceOf(address)": {
        "details": "See {IERC20-balanceOf}."
      },
      "cap()": {
        "details": "Returns the cap on the token's total supply."
      },
      "decimals()": {
        "details": "Returns the number of decimals used to get its user representation. For example, if `decimals` equals `2`, a balance of `505` tokens should be displayed to a user as `5,05` (`505 / 10 ** 2`). Tokens usually opt for a value of 18, imitating the relationship between Ether and Wei. This is the value {ERC20} uses, unless {_setupDecimals} is called. NOTE: This information is only used for _display_ purposes: it in no way affects any of the arithmetic of the contract, including {IERC20-balanceOf} and {IERC20-transfer}."
      },
      "decreaseAllowance(address,uint256)": {
        "details": "Atomically decreases the allowance granted to `spender` by the caller. This is an alternative to {approve} that can be used as a mitigation for problems described in {IERC20-approve}. Emits an {Approval} event indicating the updated allowance. Requirements: - `spender` cannot be the zero address. - `spender` must have allowance for the caller of at least `subtractedValue`."
      },
      "increaseAllowance(address,uint256)": {
        "details": "Atomically increases the allowance granted to `spender` by the caller. This is an alternative to {approve} that can be used as a mitigation for problems described in {IERC20-approve}. Emits an {Approval} event indicating the updated allowance. Requirements: - `spender` cannot be the zero address."
      },
      "name()": {
        "details": "Returns the name of the token."
      },
      "symbol()": {
        "details": "Returns the symbol of the token, usually a shorter version of the name."
      },
      "totalSupply()": {
        "details": "See {IERC20-totalSupply}."
      },
      "transfer(address,uint256)": {
        "details": "See {IERC20-transfer}. Requirements: - `recipient` cannot be the zero address. - the caller must have a balance of at least `amount`."
      },
      "transferFrom(address,address,uint256)": {
        "details": "See {IERC20-transferFrom}. Emits an {Approval} event indicating the updated allowance. This is not required by the EIP. See the note at the beginning of {ERC20}. Requirements: - `sender` and `recipient` cannot be the zero address. - `sender` must have a balance of at least `amount`. - the caller must have allowance for ``sender``'s tokens of at least `amount`."
      }
    },
    "version": 1
  },
  "userdoc": {
    "kind": "user",
    "methods": {},
    "version": 1
  }
}