{
  "contractName": "Token",
  "abi": [
    {
      "inputs": [
        {
          "internalType": "uint256",
          "name": "_maxSupply",
          "type": "uint256"
        },
        {
          "internalType": "string",
          "name": "_name",
          "type": "string"
        },
        {
          "internalType": "string",
          "name": "_symbol",
          "type": "string"
        }
      ],
      "stateMutability": "nonpayable",
      "type": "constructor"
    },
    {
      "anonymous": false,
      "inputs": [
        {
          "indexed": true,
          "internalType": "address",
          "name": "owner",
          "type": "address"
        },
        {
          "indexed": true,
          "internalType": "address",
          "name": "spender",
          "type": "address"
        },
        {
          "indexed": false,
          "internalType": "uint256",
          "name": "value",
          "type": "uint256"
        }
      ],
      "name": "Approval",
      "type": "event"
    },
    {
      "anonymous": false,
      "inputs": [
        {
          "indexed": true,
          "internalType": "address",
          "name": "delegator",
          "type": "address"
        },
        {
          "indexed": true,
          "internalType": "address",
          "name": "fromDelegate",
          "type": "address"
        },
        {
          "indexed": true,
          "internalType": "address",
          "name": "toDelegate",
          "type": "address"
        }
      ],
      "name": "DelegateChanged",
      "type": "event"
    },
    {
      "anonymous": false,
      "inputs": [
        {
          "indexed": true,
          "internalType": "address",
          "name": "delegate",
          "type": "address"
        },
        {
          "indexed": false,
          "internalType": "uint256",
          "name": "previousBalance",
          "type": "uint256"
        },
        {
          "indexed": false,
          "internalType": "uint256",
          "name": "newBalance",
          "type": "uint256"
        }
      ],
      "name": "DelegateVotesChanged",
      "type": "event"
    },
    {
      "anonymous": false,
      "inputs": [
        {
          "indexed": true,
          "internalType": "address",
          "name": "from",
          "type": "address"
        },
        {
          "indexed": true,
          "internalType": "address",
          "name": "to",
          "type": "address"
        },
        {
          "indexed": false,
          "internalType": "uint256",
          "name": "value",
          "type": "uint256"
        }
      ],
      "name": "Transfer",
      "type": "event"
    },
    {
      "inputs": [],
      "name": "DOMAIN_SEPARATOR",
      "outputs": [
        {
          "internalType": "bytes32",
          "name": "",
          "type": "bytes32"
        }
      ],
      "stateMutability": "view",
      "type": "function"
    },
    {
      "inputs": [
        {
          "internalType": "address",
          "name": "owner",
          "type": "address"
        },
        {
          "internalType": "address",
          "name": "spender",
          "type": "address"
        }
      ],
      "name": "allowance",
      "outputs": [
        {
          "internalType": "uint256",
          "name": "",
          "type": "uint256"
        }
      ],
      "stateMutability": "view",
      "type": "function"
    },
    {
      "inputs": [
        {
          "internalType": "address",
          "name": "spender",
          "type": "address"
        },
        {
          "internalType": "uint256",
          "name": "amount",
          "type": "uint256"
        }
      ],
      "name": "approve",
      "outputs": [
        {
          "internalType": "bool",
          "name": "",
          "type": "bool"
        }
      ],
      "stateMutability": "nonpayable",
      "type": "function"
    },
    {
      "inputs": [
        {
          "internalType": "address",
          "name": "account",
          "type": "address"
        }
      ],
      "name": "balanceOf",
      "outputs": [
        {
          "internalType": "uint256",
          "name": "",
          "type": "uint256"
        }
      ],
      "stateMutability": "view",
      "type": "function"
    },
    {
      "inputs": [],
      "name": "campaignAddress",
      "outputs": [
        {
          "internalType": "address",
          "name": "",
          "type": "address"
        }
      ],
      "stateMutability": "view",
      "type": "function"
    },
    {
      "inputs": [
        {
          "internalType": "address",
          "name": "account",
          "type": "address"
        },
        {
          "internalType": "uint32",
          "name": "pos",
          "type": "uint32"
        }
      ],
      "name": "checkpoints",
      "outputs": [
        {
          "components": [
            {
              "internalType": "uint32",
              "name": "fromBlock",
              "type": "uint32"
            },
            {
              "internalType": "uint224",
              "name": "votes",
              "type": "uint224"
            }
          ],
          "internalType": "struct ERC20Votes.Checkpoint",
          "name": "",
          "type": "tuple"
        }
      ],
      "stateMutability": "view",
      "type": "function"
    },
    {
      "inputs": [],
      "name": "decimals",
      "outputs": [
        {
          "internalType": "uint8",
          "name": "",
          "type": "uint8"
        }
      ],
      "stateMutability": "view",
      "type": "function"
    },
    {
      "inputs": [
        {
          "internalType": "address",
          "name": "spender",
          "type": "address"
        },
        {
          "internalType": "uint256",
          "name": "subtractedValue",
          "type": "uint256"
        }
      ],
      "name": "decreaseAllowance",
      "outputs": [
        {
          "internalType": "bool",
          "name": "",
          "type": "bool"
        }
      ],
      "stateMutability": "nonpayable",
      "type": "function"
    },
    {
      "inputs": [
        {
          "internalType": "address",
          "name": "delegatee",
          "type": "address"
        }
      ],
      "name": "delegate",
      "outputs": [],
      "stateMutability": "nonpayable",
      "type": "function"
    },
    {
      "inputs": [
        {
          "internalType": "address",
          "name": "delegatee",
          "type": "address"
        },
        {
          "internalType": "uint256",
          "name": "nonce",
          "type": "uint256"
        },
        {
          "internalType": "uint256",
          "name": "expiry",
          "type": "uint256"
        },
        {
          "internalType": "uint8",
          "name": "v",
          "type": "uint8"
        },
        {
          "internalType": "bytes32",
          "name": "r",
          "type": "bytes32"
        },
        {
          "internalType": "bytes32",
          "name": "s",
          "type": "bytes32"
        }
      ],
      "name": "delegateBySig",
      "outputs": [],
      "stateMutability": "nonpayable",
      "type": "function"
    },
    {
      "inputs": [
        {
          "internalType": "address",
          "name": "account",
          "type": "address"
        }
      ],
      "name": "delegates",
      "outputs": [
        {
          "internalType": "address",
          "name": "",
          "type": "address"
        }
      ],
      "stateMutability": "view",
      "type": "function"
    },
    {
      "inputs": [
        {
          "internalType": "uint256",
          "name": "blockNumber",
          "type": "uint256"
        }
      ],
      "name": "getPastTotalSupply",
      "outputs": [
        {
          "internalType": "uint256",
          "name": "",
          "type": "uint256"
        }
      ],
      "stateMutability": "view",
      "type": "function"
    },
    {
      "inputs": [
        {
          "internalType": "address",
          "name": "account",
          "type": "address"
        },
        {
          "internalType": "uint256",
          "name": "blockNumber",
          "type": "uint256"
        }
      ],
      "name": "getPastVotes",
      "outputs": [
        {
          "internalType": "uint256",
          "name": "",
          "type": "uint256"
        }
      ],
      "stateMutability": "view",
      "type": "function"
    },
    {
      "inputs": [
        {
          "internalType": "address",
          "name": "account",
          "type": "address"
        }
      ],
      "name": "getVotes",
      "outputs": [
        {
          "internalType": "uint256",
          "name": "",
          "type": "uint256"
        }
      ],
      "stateMutability": "view",
      "type": "function"
    },
    {
      "inputs": [
        {
          "internalType": "address",
          "name": "spender",
          "type": "address"
        },
        {
          "internalType": "uint256",
          "name": "addedValue",
          "type": "uint256"
        }
      ],
      "name": "increaseAllowance",
      "outputs": [
        {
          "internalType": "bool",
          "name": "",
          "type": "bool"
        }
      ],
      "stateMutability": "nonpayable",
      "type": "function"
    },
    {
      "inputs": [],
      "name": "name",
      "outputs": [
        {
          "internalType": "string",
          "name": "",
          "type": "string"
        }
      ],
      "stateMutability": "view",
      "type": "function"
    },
    {
      "inputs": [
        {
          "internalType": "address",
          "name": "owner",
          "type": "address"
        }
      ],
      "name": "nonces",
      "outputs": [
        {
          "internalType": "uint256",
          "name": "",
          "type": "uint256"
        }
      ],
      "stateMutability": "view",
      "type": "function"
    },
    {
      "inputs": [
        {
          "internalType": "address",
          "name": "account",
          "type": "address"
        }
      ],
      "name": "numCheckpoints",
      "outputs": [
        {
          "internalType": "uint32",
          "name": "",
          "type": "uint32"
        }
      ],
      "stateMutability": "view",
      "type": "function"
    },
    {
      "inputs": [
        {
          "internalType": "address",
          "name": "owner",
          "type": "address"
        },
        {
          "internalType": "address",
          "name": "spender",
          "type": "address"
        },
        {
          "internalType": "uint256",
          "name": "value",
          "type": "uint256"
        },
        {
          "internalType": "uint256",
          "name": "deadline",
          "type": "uint256"
        },
        {
          "internalType": "uint8",
          "name": "v",
          "type": "uint8"
        },
        {
          "internalType": "bytes32",
          "name": "r",
          "type": "bytes32"
        },
        {
          "internalType": "bytes32",
          "name": "s",
          "type": "bytes32"
        }
      ],
      "name": "permit",
      "outputs": [],
      "stateMutability": "nonpayable",
      "type": "function"
    },
    {
      "inputs": [],
      "name": "symbol",
      "outputs": [
        {
          "internalType": "string",
          "name": "",
          "type": "string"
        }
      ],
      "stateMutability": "view",
      "type": "function"
    },
    {
      "inputs": [],
      "name": "totalSupply",
      "outputs": [
        {
          "internalType": "uint256",
          "name": "",
          "type": "uint256"
        }
      ],
      "stateMutability": "view",
      "type": "function"
    },
    {
      "inputs": [
        {
          "internalType": "address",
          "name": "recipient",
          "type": "address"
        },
        {
          "internalType": "uint256",
          "name": "amount",
          "type": "uint256"
        }
      ],
      "name": "transfer",
      "outputs": [
        {
          "internalType": "bool",
          "name": "",
          "type": "bool"
        }
      ],
      "stateMutability": "nonpayable",
      "type": "function"
    },
    {
      "inputs": [
        {
          "internalType": "address",
          "name": "sender",
          "type": "address"
        },
        {
          "internalType": "address",
          "name": "recipient",
          "type": "address"
        },
        {
          "internalType": "uint256",
          "name": "amount",
          "type": "uint256"
        }
      ],
      "name": "transferFrom",
      "outputs": [
        {
          "internalType": "bool",
          "name": "",
          "type": "bool"
        }
      ],
      "stateMutability": "nonpayable",
      "type": "function"
    },
    {
      "inputs": [
        {
          "internalType": "uint256",
          "name": "amount",
          "type": "uint256"
        },
        {
          "internalType": "address",
          "name": "sender",
          "type": "address"
        }
      ],
      "name": "sendTokens",
      "outputs": [],
      "stateMutability": "nonpayable",
      "type": "function"
    },
    {
      "inputs": [],
      "name": "getSummary",
      "outputs": [
        {
          "internalType": "uint256",
          "name": "",
          "type": "uint256"
        },
        {
          "internalType": "uint256",
          "name": "",
          "type": "uint256"
        },
        {
          "internalType": "string",
          "name": "",
          "type": "string"
        },
        {
          "internalType": "string",
          "name": "",
          "type": "string"
        }
      ],
      "stateMutability": "view",
      "type": "function"
    }
  ],
  "bytecode": "0x6101406040527f6e71edae12b1b97f4d1f60370fef10105fa2faae0126114a169c64845d6126c9610120523480156200003757600080fd5b50604051620020de380380620020de8339810160408190526200005a91620002a9565b8180604051806040016040528060018152602001603160f81b815250848481600390805190602001906200009092919062000150565b508051620000a690600490602084019062000150565b5050825160209384012082519284019290922060c083815260e08290524660a0818152604080517f8b73c3c69bb8fe3d512ecc4cf759cc79239f7b179b0ffacaa9a75d522b39400f818a01819052818301989098526060810195909552608080860193909352308583015280518086039092018252939092019092528051940193909320909252610100525050600980546001600160a01b031916331790555050600a556200036d565b8280546200015e906200031a565b90600052602060002090601f016020900481019282620001825760008555620001cd565b82601f106200019d57805160ff1916838001178555620001cd565b82800160010185558215620001cd579182015b82811115620001cd578251825591602001919060010190620001b0565b50620001db929150620001df565b5090565b5b80821115620001db5760008155600101620001e0565b600082601f83011262000207578081fd5b81516001600160401b038082111562000224576200022462000357565b604051601f8301601f19908116603f011681019082821181831017156200024f576200024f62000357565b816040528381526020925086838588010111156200026b578485fd5b8491505b838210156200028e57858201830151818301840152908201906200026f565b838211156200029f57848385830101525b9695505050505050565b600080600060608486031215620002be578283fd5b835160208501519093506001600160401b0380821115620002dd578384fd5b620002eb87838801620001f6565b9350604086015191508082111562000301578283fd5b506200031086828701620001f6565b9150509250925092565b6002810460018216806200032f57607f821691505b602082108114156200035157634e487b7160e01b600052602260045260246000fd5b50919050565b634e487b7160e01b600052604160045260246000fd5b60805160a05160c05160e0516101005161012051611d21620003bd600039600061097401526000610e6301526000610eb201526000610e8d01526000610e0f01526000610e380152611d216000f3fe608060405234801561001057600080fd5b50600436106101335760003560e01c806306fdde0314610138578063095ea7b31461015657806311765b271461017957806318160ddd146101a457806323b872dd146101b657806329322e05146101c9578063313ce567146101de5780633644e515146101ed57806339509351146101f55780633a46b1a8146102085780634051ddac1461021b578063587cde1e146102335780635c19a95c146102465780636fcfff451461025957806370a08231146102815780637ecebe00146102945780638e539e8c146102a757806395d89b41146102ba5780639ab24eb0146102c2578063a457c2d7146102d5578063a9059cbb146102e8578063c3cda520146102fb578063d505accf1461030e578063dd62ed3e14610321578063f1127ed81461035a575b600080fd5b610140610397565b60405161014d9190611b8b565b60405180910390f35b610169610164366004611a48565b61042a565b604051901515815260200161014d565b60095461018c906001600160a01b031681565b6040516001600160a01b03909116815260200161014d565b6002545b60405190815260200161014d565b6101696101c43660046119a4565b610440565b6101dc6101d7366004611b1e565b6104ef565b005b6040516012815260200161014d565b6101a8610525565b610169610203366004611a48565b610534565b6101a8610216366004611a48565b610570565b6102236105ba565b60405161014d9493929190611bd5565b61018c610241366004611958565b6105ea565b6101dc610254366004611958565b61060b565b61026c610267366004611958565b610618565b60405163ffffffff909116815260200161014d565b6101a861028f366004611958565b610640565b6101a86102a2366004611958565b61065b565b6101a86102b5366004611b06565b610679565b6101406106a5565b6101a86102d0366004611958565b6106b4565b6101696102e3366004611a48565b610748565b6101696102f6366004611a48565b6107e1565b6101dc610309366004611a71565b6107ee565b6101dc61031c3660046119df565b610920565b6101a861032f366004611972565b6001600160a01b03918216600090815260016020908152604080832093909416825291909152205490565b61036d610368366004611ac8565b610a84565b60408051825163ffffffff1681526020928301516001600160e01b0316928101929092520161014d565b6060600380546103a690611c60565b80601f01602080910402602001604051908101604052809291908181526020018280546103d290611c60565b801561041f5780601f106103f45761010080835404028352916020019161041f565b820191906000526020600020905b81548152906001019060200180831161040257829003601f168201915b505050505090505b90565b6000610437338484610b15565b50600192915050565b600061044d848484610c39565b6001600160a01b0384166000908152600160209081526040808320338452909152902054828110156104d75760405162461bcd60e51b815260206004820152602860248201527f45524332303a207472616e7366657220616d6f756e74206578636565647320616044820152676c6c6f77616e636560c01b60648201526084015b60405180910390fd5b6104e48533858403610b15565b506001949350505050565b6009546001600160a01b0316331461051757634e487b7160e01b600052600160045260246000fd5b6105218183610e01565b5050565b600061052f610e0b565b905090565b3360008181526001602090815260408083206001600160a01b0387168452909152812054909161043791859061056b908690611c11565b610b15565b60004382106105915760405162461bcd60e51b81526004016104ce90611b9e565b6001600160a01b03831660009081526007602052604090206105b39083610f02565b9392505050565b6000806060806105c960025490565b600a546105d4610397565b6105dc6106a5565b935093509350935090919293565b6001600160a01b03808216600090815260066020526040902054165b919050565b6106153382610fda565b50565b6001600160a01b03811660009081526007602052604081205461063a9061105a565b92915050565b6001600160a01b031660009081526020819052604090205490565b6001600160a01b03811660009081526005602052604081205461063a565b600043821061069a5760405162461bcd60e51b81526004016104ce90611b9e565b61063a600883610f02565b6060600480546103a690611c60565b6001600160a01b0381166000908152600760205260408120548015610735576001600160a01b03831660009081526007602052604090206106f6600183611c49565b8154811061071457634e487b7160e01b600052603260045260246000fd5b600091825260209091200154600160201b90046001600160e01b0316610738565b60005b6001600160e01b03169392505050565b3360009081526001602090815260408083206001600160a01b0386168452909152812054828110156107ca5760405162461bcd60e51b815260206004820152602560248201527f45524332303a2064656372656173656420616c6c6f77616e63652062656c6f77604482015264207a65726f60d81b60648201526084016104ce565b6107d73385858403610b15565b5060019392505050565b6000610437338484610c39565b8342111561083e5760405162461bcd60e51b815260206004820152601d60248201527f4552433230566f7465733a207369676e6174757265206578706972656400000060448201526064016104ce565b604080517fe48329057bfd03d55e49b547132e39cffd9c1820ad7b9d4c5307691425d15adf60208201526001600160a01b0388169181019190915260608101869052608081018590526000906108b8906108b09060a001604051602081830303815290604052805190602001206110c3565b858585611111565b90506108c381611139565b861461090d5760405162461bcd60e51b81526020600482015260196024820152784552433230566f7465733a20696e76616c6964206e6f6e636560381b60448201526064016104ce565b6109178188610fda565b50505050505050565b834211156109705760405162461bcd60e51b815260206004820152601d60248201527f45524332305065726d69743a206578706972656420646561646c696e6500000060448201526064016104ce565b60007f000000000000000000000000000000000000000000000000000000000000000088888861099f8c611139565b6040805160208101969096526001600160a01b0394851690860152929091166060840152608083015260a082015260c0810186905260e00160405160208183030381529060405280519060200120905060006109fa826110c3565b90506000610a0a82878787611111565b9050896001600160a01b0316816001600160a01b031614610a6d5760405162461bcd60e51b815260206004820152601e60248201527f45524332305065726d69743a20696e76616c6964207369676e6174757265000060448201526064016104ce565b610a788a8a8a610b15565b50505050505050505050565b60408051808201909152600080825260208201526001600160a01b0383166000908152600760205260409020805463ffffffff8416908110610ad657634e487b7160e01b600052603260045260246000fd5b60009182526020918290206040805180820190915291015463ffffffff81168252600160201b90046001600160e01b0316918101919091529392505050565b6001600160a01b038316610b775760405162461bcd60e51b8152602060048201526024808201527f45524332303a20617070726f76652066726f6d20746865207a65726f206164646044820152637265737360e01b60648201526084016104ce565b6001600160a01b038216610bd85760405162461bcd60e51b815260206004820152602260248201527f45524332303a20617070726f766520746f20746865207a65726f206164647265604482015261737360f01b60648201526084016104ce565b6001600160a01b0383811660008181526001602090815260408083209487168084529482529182902085905590518481527f8c5be1e5ebec7d5bd14f71427d1e84f3dd0314c0f7b2291e5b200ac8c7c3b925910160405180910390a3505050565b6001600160a01b038316610c9d5760405162461bcd60e51b815260206004820152602560248201527f45524332303a207472616e736665722066726f6d20746865207a65726f206164604482015264647265737360d81b60648201526084016104ce565b6001600160a01b038216610cff5760405162461bcd60e51b815260206004820152602360248201527f45524332303a207472616e7366657220746f20746865207a65726f206164647260448201526265737360e81b60648201526084016104ce565b6001600160a01b03831660009081526020819052604090205481811015610d775760405162461bcd60e51b815260206004820152602660248201527f45524332303a207472616e7366657220616d6f756e7420657863656564732062604482015265616c616e636560d01b60648201526084016104ce565b6001600160a01b03808516600090815260208190526040808220858503905591851681529081208054849290610dae908490611c11565b92505081905550826001600160a01b0316846001600160a01b0316600080516020611cac83398151915284604051610de891815260200190565b60405180910390a3610dfb848484611166565b50505050565b6105218282611171565b60007f0000000000000000000000000000000000000000000000000000000000000000461415610e5c57507f0000000000000000000000000000000000000000000000000000000000000000610427565b50604080517f00000000000000000000000000000000000000000000000000000000000000006020808301919091527f0000000000000000000000000000000000000000000000000000000000000000828401527f000000000000000000000000000000000000000000000000000000000000000060608301524660808301523060a0808401919091528351808403909101815260c09092019092528051910120610427565b8154600090815b81811015610f74576000610f1d82846111fb565b905084868281548110610f4057634e487b7160e01b600052603260045260246000fd5b60009182526020909120015463ffffffff161115610f6057809250610f6e565b610f6b816001611c11565b91505b50610f09565b8115610fc55784610f86600184611c49565b81548110610fa457634e487b7160e01b600052603260045260246000fd5b600091825260209091200154600160201b90046001600160e01b0316610fc8565b60005b6001600160e01b031695945050505050565b6000610fe5836105ea565b90506000610ff284610640565b6001600160a01b0385811660008181526006602052604080822080546001600160a01b031916898616908117909155905194955093928616927f3134e8a2e6d97e929a7e54011ea5485d7d196dd5f0ba4d4ef95803e8e3fc257f9190a4610dfb828483611216565b600063ffffffff8211156110bf5760405162461bcd60e51b815260206004820152602660248201527f53616665436173743a2076616c756520646f65736e27742066697420696e203360448201526532206269747360d01b60648201526084016104ce565b5090565b600061063a6110d0610e0b565b8360405161190160f01b6020820152602281018390526042810182905260009060620160405160208183030381529060405280519060200120905092915050565b60008060006111228787878761132f565b9150915061112f81611412565b5095945050505050565b6001600160a01b03811660009081526005602052604090208054600181018255905b50919050565b505050565b611161838383611610565b61117b828261162b565b6002546001600160e01b0310156111ed5760405162461bcd60e51b815260206004820152603060248201527f4552433230566f7465733a20746f74616c20737570706c79207269736b73206f60448201526f766572666c6f77696e6720766f74657360801b60648201526084016104ce565b610dfb60086117008361170c565b600061120a6002848418611c29565b6105b390848416611c11565b816001600160a01b0316836001600160a01b0316141580156112385750600081115b15611161576001600160a01b038316156112b4576001600160a01b03831660009081526007602052604081208190611273906118bb8561170c565b91509150846001600160a01b0316600080516020611ccc83398151915283836040516112a9929190918252602082015260400190565b60405180910390a250505b6001600160a01b03821615611161576001600160a01b038216600090815260076020526040812081906112ea906117008561170c565b91509150836001600160a01b0316600080516020611ccc8339815191528383604051611320929190918252602082015260400190565b60405180910390a25050505050565b6000806fa2a8918ca85bafe22016d0b997e4df60600160ff1b0383111561135c5750600090506003611409565b8460ff16601b1415801561137457508460ff16601c14155b156113855750600090506004611409565b6040805160008082526020820180845289905260ff881692820192909252606081018690526080810185905260019060a0016020604051602081039080840390855afa1580156113d9573d6000803e3d6000fd5b5050604051601f1901519150506001600160a01b03811661140257600060019250925050611409565b9150600090505b94509492505050565b600081600481111561143457634e487b7160e01b600052602160045260246000fd5b141561143f57610615565b600181600481111561146157634e487b7160e01b600052602160045260246000fd5b14156114aa5760405162461bcd60e51b815260206004820152601860248201527745434453413a20696e76616c6964207369676e617475726560401b60448201526064016104ce565b60028160048111156114cc57634e487b7160e01b600052602160045260246000fd5b141561151a5760405162461bcd60e51b815260206004820152601f60248201527f45434453413a20696e76616c6964207369676e6174757265206c656e6774680060448201526064016104ce565b600381600481111561153c57634e487b7160e01b600052602160045260246000fd5b14156115955760405162461bcd60e51b815260206004820152602260248201527f45434453413a20696e76616c6964207369676e6174757265202773272076616c604482015261756560f01b60648201526084016104ce565b60048160048111156115b757634e487b7160e01b600052602160045260246000fd5b14156106155760405162461bcd60e51b815260206004820152602260248201527f45434453413a20696e76616c6964207369676e6174757265202776272076616c604482015261756560f01b60648201526084016104ce565b61116161161c846105ea565b611625846105ea565b83611216565b6001600160a01b0382166116815760405162461bcd60e51b815260206004820152601f60248201527f45524332303a206d696e7420746f20746865207a65726f20616464726573730060448201526064016104ce565b80600260008282546116939190611c11565b90915550506001600160a01b038216600090815260208190526040812080548392906116c0908490611c11565b90915550506040518181526001600160a01b03831690600090600080516020611cac8339815191529060200160405180910390a361052160008383611166565b60006105b38284611c11565b8254600090819080156117645785611725600183611c49565b8154811061174357634e487b7160e01b600052603260045260246000fd5b600091825260209091200154600160201b90046001600160e01b0316611767565b60005b6001600160e01b0316925061178083858763ffffffff16565b91506000811180156117cc5750438661179a600184611c49565b815481106117b857634e487b7160e01b600052603260045260246000fd5b60009182526020909120015463ffffffff16145b1561183a576117da826118c7565b866117e6600184611c49565b8154811061180457634e487b7160e01b600052603260045260246000fd5b9060005260206000200160000160046101000a8154816001600160e01b0302191690836001600160e01b031602179055506118b2565b85604051806040016040528061184f4361105a565b63ffffffff168152602001611863856118c7565b6001600160e01b03908116909152825460018101845560009384526020938490208351910180549390940151909116600160201b0263ffffffff91821663ffffffff1990931692909217161790555b50935093915050565b60006105b38284611c49565b60006001600160e01b038211156110bf5760405162461bcd60e51b815260206004820152602760248201527f53616665436173743a2076616c756520646f65736e27742066697420696e20326044820152663234206269747360c81b60648201526084016104ce565b80356001600160a01b038116811461060657600080fd5b803560ff8116811461060657600080fd5b600060208284031215611969578081fd5b6105b382611930565b60008060408385031215611984578081fd5b61198d83611930565b915061199b60208401611930565b90509250929050565b6000806000606084860312156119b8578081fd5b6119c184611930565b92506119cf60208501611930565b9150604084013590509250925092565b600080600080600080600060e0888a0312156119f9578283fd5b611a0288611930565b9650611a1060208901611930565b95506040880135945060608801359350611a2c60808901611947565b925060a0880135915060c0880135905092959891949750929550565b60008060408385031215611a5a578182fd5b611a6383611930565b946020939093013593505050565b60008060008060008060c08789031215611a89578182fd5b611a9287611930565b95506020870135945060408701359350611aae60608801611947565b92506080870135915060a087013590509295509295509295565b60008060408385031215611ada578182fd5b611ae383611930565b9150602083013563ffffffff81168114611afb578182fd5b809150509250929050565b600060208284031215611b17578081fd5b5035919050565b60008060408385031215611b30578182fd5b8235915061199b60208401611930565b60008151808452815b81811015611b6557602081850181015186830182015201611b49565b81811115611b765782602083870101525b50601f01601f19169290920160200192915050565b6000602082526105b36020830184611b40565b6020808252601f908201527f4552433230566f7465733a20626c6f636b206e6f7420796574206d696e656400604082015260600190565b600085825284602083015260806040830152611bf46080830185611b40565b8281036060840152611c068185611b40565b979650505050505050565b60008219821115611c2457611c24611c95565b500190565b600082611c4457634e487b7160e01b81526012600452602481fd5b500490565b600082821015611c5b57611c5b611c95565b500390565b600281046001821680611c7457607f821691505b6020821081141561115b57634e487b7160e01b600052602260045260246000fd5b634e487b7160e01b600052601160045260246000fdfeddf252ad1be2c89b69c2b068fc378daa952ba7f163c4a11628f55a4df523b3efdec2bacdd2f05b59de34da9b523dff8be42e5e38e818c82fdb0bae774387a724a264697066735822122049e8bd56e91d3b1d79b851b57cddfae463b26e76155264fcb72d656113a0a44564736f6c63430008020033",
  "immutableReferences": {
    "2706": [
      {
        "length": 32,
        "start": 2420
      }
    ],
    "3863": [
      {
        "length": 32,
        "start": 3640
      }
    ],
    "3865": [
      {
        "length": 32,
        "start": 3599
      }
    ],
    "3867": [
      {
        "length": 32,
        "start": 3725
      }
    ],
    "3869": [
      {
        "length": 32,
        "start": 3762
      }
    ],
    "3871": [
      {
        "length": 32,
        "start": 3683
      }
    ]
  },
  "source": "// SPDX-License-Identifier: MIT\npragma solidity ^0.8.2;\n\nimport \"@openzeppelin/contracts/token/ERC20/ERC20.sol\";\nimport \"@openzeppelin/contracts/token/ERC20/extensions/draft-ERC20Permit.sol\";\nimport \"@openzeppelin/contracts/token/ERC20/extensions/ERC20Votes.sol\";\n\ncontract Token is ERC20, ERC20Permit, ERC20Votes {\n\n    address public campaignAddress;\n    uint256 maxSupplyToken;\n\n    modifier restricted(){\n        assert(msg.sender == campaignAddress);\n        _;\n    }\n\n    constructor( uint256 _maxSupply, string memory _name, string memory _symbol ) ERC20(_name, _symbol) ERC20Permit(_name) {\n        campaignAddress = msg.sender;\n        maxSupplyToken = _maxSupply;\n    }\n\n    function sendTokens(uint256 amount, address sender) public restricted{\n        _mint(sender, amount);\n    }\n\n    function _afterTokenTransfer(address from, address to, uint256 amount)\n        internal\n        override(ERC20, ERC20Votes)\n    {\n        super._afterTokenTransfer(from, to, amount);\n    }\n\n    function _mint(address to, uint256 amount)\n        internal\n        override(ERC20, ERC20Votes)\n    {\n        super._mint(to, amount);\n    }\n\n    function _burn(address account, uint256 amount)\n        internal\n        override(ERC20, ERC20Votes)\n    {\n        super._burn(account, amount);\n    }\n\n    function getSummary() public view returns(uint, uint, string memory, string memory){\n        return(\n            totalSupply(),\n            maxSupplyToken,\n            name(),\n            symbol()\n        );\n    }\n}",
  "sourcePath": "/home/christianvari/github/EthStart-contracts/contracts/Token.sol",
  "compiler": {
    "name": "solc",
    "version": "0.8.2+commit.661d1103.Emscripten.clang"
  },
  "schemaVersion": "3.4.3",
  "updatedAt": "2021-09-30T16:16:30.202Z",
  "devdoc": {
    "kind": "dev",
    "methods": {
      "DOMAIN_SEPARATOR()": {
        "details": "See {IERC20Permit-DOMAIN_SEPARATOR}."
      },
      "allowance(address,address)": {
        "details": "See {IERC20-allowance}."
      },
      "approve(address,uint256)": {
        "details": "See {IERC20-approve}. Requirements: - `spender` cannot be the zero address."
      },
      "balanceOf(address)": {
        "details": "See {IERC20-balanceOf}."
      },
      "checkpoints(address,uint32)": {
        "details": "Get the `pos`-th checkpoint for `account`."
      },
      "decimals()": {
        "details": "Returns the number of decimals used to get its user representation. For example, if `decimals` equals `2`, a balance of `505` tokens should be displayed to a user as `5.05` (`505 / 10 ** 2`). Tokens usually opt for a value of 18, imitating the relationship between Ether and Wei. This is the value {ERC20} uses, unless this function is overridden; NOTE: This information is only used for _display_ purposes: it in no way affects any of the arithmetic of the contract, including {IERC20-balanceOf} and {IERC20-transfer}."
      },
      "decreaseAllowance(address,uint256)": {
        "details": "Atomically decreases the allowance granted to `spender` by the caller. This is an alternative to {approve} that can be used as a mitigation for problems described in {IERC20-approve}. Emits an {Approval} event indicating the updated allowance. Requirements: - `spender` cannot be the zero address. - `spender` must have allowance for the caller of at least `subtractedValue`."
      },
      "delegate(address)": {
        "details": "Delegate votes from the sender to `delegatee`."
      },
      "delegateBySig(address,uint256,uint256,uint8,bytes32,bytes32)": {
        "details": "Delegates votes from signer to `delegatee`"
      },
      "delegates(address)": {
        "details": "Get the address `account` is currently delegating to."
      },
      "getPastTotalSupply(uint256)": {
        "details": "Retrieve the `totalSupply` at the end of `blockNumber`. Note, this value is the sum of all balances. It is but NOT the sum of all the delegated votes! Requirements: - `blockNumber` must have been already mined"
      },
      "getPastVotes(address,uint256)": {
        "details": "Retrieve the number of votes for `account` at the end of `blockNumber`. Requirements: - `blockNumber` must have been already mined"
      },
      "getVotes(address)": {
        "details": "Gets the current votes balance for `account`"
      },
      "increaseAllowance(address,uint256)": {
        "details": "Atomically increases the allowance granted to `spender` by the caller. This is an alternative to {approve} that can be used as a mitigation for problems described in {IERC20-approve}. Emits an {Approval} event indicating the updated allowance. Requirements: - `spender` cannot be the zero address."
      },
      "name()": {
        "details": "Returns the name of the token."
      },
      "nonces(address)": {
        "details": "See {IERC20Permit-nonces}."
      },
      "numCheckpoints(address)": {
        "details": "Get number of checkpoints for `account`."
      },
      "permit(address,address,uint256,uint256,uint8,bytes32,bytes32)": {
        "details": "See {IERC20Permit-permit}."
      },
      "symbol()": {
        "details": "Returns the symbol of the token, usually a shorter version of the name."
      },
      "totalSupply()": {
        "details": "See {IERC20-totalSupply}."
      },
      "transfer(address,uint256)": {
        "details": "See {IERC20-transfer}. Requirements: - `recipient` cannot be the zero address. - the caller must have a balance of at least `amount`."
      },
      "transferFrom(address,address,uint256)": {
        "details": "See {IERC20-transferFrom}. Emits an {Approval} event indicating the updated allowance. This is not required by the EIP. See the note at the beginning of {ERC20}. Requirements: - `sender` and `recipient` cannot be the zero address. - `sender` must have a balance of at least `amount`. - the caller must have allowance for ``sender``'s tokens of at least `amount`."
      }
    },
    "version": 1
  },
  "userdoc": {
    "kind": "user",
    "methods": {},
    "version": 1
  }
}